{
  "_format": "hh-sol-artifact-1",
  "contractName": "SoulboundToken",
  "sourceName": "contracts/SoulboundToken.sol",
  "abi": [
    {
      "inputs": [],
      "stateMutability": "nonpayable",
      "type": "constructor"
    },
    {
      "inputs": [],
      "name": "AccessControlBadConfirmation",
      "type": "error"
    },
    {
      "inputs": [
        {
          "internalType": "address",
          "name": "account",
          "type": "address"
        },
        {
          "internalType": "bytes32",
          "name": "neededRole",
          "type": "bytes32"
        }
      ],
      "name": "AccessControlUnauthorizedAccount",
      "type": "error"
    },
    {
      "inputs": [],
      "name": "ERC721EnumerableForbiddenBatchMint",
      "type": "error"
    },
    {
      "inputs": [
        {
          "internalType": "address",
          "name": "sender",
          "type": "address"
        },
        {
          "internalType": "uint256",
          "name": "tokenId",
          "type": "uint256"
        },
        {
          "internalType": "address",
          "name": "owner",
          "type": "address"
        }
      ],
      "name": "ERC721IncorrectOwner",
      "type": "error"
    },
    {
      "inputs": [
        {
          "internalType": "address",
          "name": "operator",
          "type": "address"
        },
        {
          "internalType": "uint256",
          "name": "tokenId",
          "type": "uint256"
        }
      ],
      "name": "ERC721InsufficientApproval",
      "type": "error"
    },
    {
      "inputs": [
        {
          "internalType": "address",
          "name": "approver",
          "type": "address"
        }
      ],
      "name": "ERC721InvalidApprover",
      "type": "error"
    },
    {
      "inputs": [
        {
          "internalType": "address",
          "name": "operator",
          "type": "address"
        }
      ],
      "name": "ERC721InvalidOperator",
      "type": "error"
    },
    {
      "inputs": [
        {
          "internalType": "address",
          "name": "owner",
          "type": "address"
        }
      ],
      "name": "ERC721InvalidOwner",
      "type": "error"
    },
    {
      "inputs": [
        {
          "internalType": "address",
          "name": "receiver",
          "type": "address"
        }
      ],
      "name": "ERC721InvalidReceiver",
      "type": "error"
    },
    {
      "inputs": [
        {
          "internalType": "address",
          "name": "sender",
          "type": "address"
        }
      ],
      "name": "ERC721InvalidSender",
      "type": "error"
    },
    {
      "inputs": [
        {
          "internalType": "uint256",
          "name": "tokenId",
          "type": "uint256"
        }
      ],
      "name": "ERC721NonexistentToken",
      "type": "error"
    },
    {
      "inputs": [
        {
          "internalType": "address",
          "name": "owner",
          "type": "address"
        },
        {
          "internalType": "uint256",
          "name": "index",
          "type": "uint256"
        }
      ],
      "name": "ERC721OutOfBoundsIndex",
      "type": "error"
    },
    {
      "inputs": [],
      "name": "EnforcedPause",
      "type": "error"
    },
    {
      "inputs": [],
      "name": "ExpectedPause",
      "type": "error"
    },
    {
      "inputs": [],
      "name": "ReentrancyGuardReentrantCall",
      "type": "error"
    },
    {
      "anonymous": false,
      "inputs": [
        {
          "indexed": true,
          "internalType": "address",
          "name": "owner",
          "type": "address"
        },
        {
          "indexed": true,
          "internalType": "address",
          "name": "approved",
          "type": "address"
        },
        {
          "indexed": true,
          "internalType": "uint256",
          "name": "tokenId",
          "type": "uint256"
        }
      ],
      "name": "Approval",
      "type": "event"
    },
    {
      "anonymous": false,
      "inputs": [
        {
          "indexed": true,
          "internalType": "address",
          "name": "owner",
          "type": "address"
        },
        {
          "indexed": true,
          "internalType": "address",
          "name": "operator",
          "type": "address"
        },
        {
          "indexed": false,
          "internalType": "bool",
          "name": "approved",
          "type": "bool"
        }
      ],
      "name": "ApprovalForAll",
      "type": "event"
    },
    {
      "anonymous": false,
      "inputs": [
        {
          "indexed": false,
          "internalType": "address",
          "name": "account",
          "type": "address"
        }
      ],
      "name": "Paused",
      "type": "event"
    },
    {
      "anonymous": false,
      "inputs": [
        {
          "indexed": true,
          "internalType": "bytes32",
          "name": "role",
          "type": "bytes32"
        },
        {
          "indexed": true,
          "internalType": "bytes32",
          "name": "previousAdminRole",
          "type": "bytes32"
        },
        {
          "indexed": true,
          "internalType": "bytes32",
          "name": "newAdminRole",
          "type": "bytes32"
        }
      ],
      "name": "RoleAdminChanged",
      "type": "event"
    },
    {
      "anonymous": false,
      "inputs": [
        {
          "indexed": true,
          "internalType": "bytes32",
          "name": "role",
          "type": "bytes32"
        },
        {
          "indexed": true,
          "internalType": "address",
          "name": "account",
          "type": "address"
        },
        {
          "indexed": true,
          "internalType": "address",
          "name": "sender",
          "type": "address"
        }
      ],
      "name": "RoleGranted",
      "type": "event"
    },
    {
      "anonymous": false,
      "inputs": [
        {
          "indexed": true,
          "internalType": "bytes32",
          "name": "role",
          "type": "bytes32"
        },
        {
          "indexed": true,
          "internalType": "address",
          "name": "account",
          "type": "address"
        },
        {
          "indexed": true,
          "internalType": "address",
          "name": "sender",
          "type": "address"
        }
      ],
      "name": "RoleRevoked",
      "type": "event"
    },
    {
      "anonymous": false,
      "inputs": [
        {
          "indexed": true,
          "internalType": "uint256",
          "name": "tokenId",
          "type": "uint256"
        }
      ],
      "name": "TokenExpired",
      "type": "event"
    },
    {
      "anonymous": false,
      "inputs": [
        {
          "indexed": true,
          "internalType": "uint256",
          "name": "tokenId",
          "type": "uint256"
        },
        {
          "indexed": true,
          "internalType": "address",
          "name": "beneficiary",
          "type": "address"
        },
        {
          "indexed": true,
          "internalType": "uint256",
          "name": "campaignId",
          "type": "uint256"
        },
        {
          "indexed": false,
          "internalType": "uint256",
          "name": "entitledAmount",
          "type": "uint256"
        },
        {
          "indexed": false,
          "internalType": "string",
          "name": "serviceType",
          "type": "string"
        },
        {
          "indexed": false,
          "internalType": "uint256",
          "name": "expiryDate",
          "type": "uint256"
        }
      ],
      "name": "TokenMinted",
      "type": "event"
    },
    {
      "anonymous": false,
      "inputs": [
        {
          "indexed": true,
          "internalType": "uint256",
          "name": "tokenId",
          "type": "uint256"
        },
        {
          "indexed": true,
          "internalType": "address",
          "name": "redeemer",
          "type": "address"
        },
        {
          "indexed": true,
          "internalType": "address",
          "name": "beneficiary",
          "type": "address"
        },
        {
          "indexed": false,
          "internalType": "string",
          "name": "proofOfServiceHash",
          "type": "string"
        },
        {
          "indexed": false,
          "internalType": "uint256",
          "name": "redeemedAt",
          "type": "uint256"
        }
      ],
      "name": "TokenRedeemed",
      "type": "event"
    },
    {
      "anonymous": false,
      "inputs": [
        {
          "indexed": true,
          "internalType": "uint256",
          "name": "tokenId",
          "type": "uint256"
        },
        {
          "indexed": false,
          "internalType": "string",
          "name": "reason",
          "type": "string"
        }
      ],
      "name": "TokenRevoked",
      "type": "event"
    },
    {
      "anonymous": false,
      "inputs": [
        {
          "indexed": true,
          "internalType": "address",
          "name": "from",
          "type": "address"
        },
        {
          "indexed": true,
          "internalType": "address",
          "name": "to",
          "type": "address"
        },
        {
          "indexed": true,
          "internalType": "uint256",
          "name": "tokenId",
          "type": "uint256"
        }
      ],
      "name": "Transfer",
      "type": "event"
    },
    {
      "anonymous": false,
      "inputs": [
        {
          "indexed": false,
          "internalType": "address",
          "name": "account",
          "type": "address"
        }
      ],
      "name": "Unpaused",
      "type": "event"
    },
    {
      "inputs": [],
      "name": "ADMIN_ROLE",
      "outputs": [
        {
          "internalType": "bytes32",
          "name": "",
          "type": "bytes32"
        }
      ],
      "stateMutability": "view",
      "type": "function"
    },
    {
      "inputs": [],
      "name": "DEFAULT_ADMIN_ROLE",
      "outputs": [
        {
          "internalType": "bytes32",
          "name": "",
          "type": "bytes32"
        }
      ],
      "stateMutability": "view",
      "type": "function"
    },
    {
      "inputs": [],
      "name": "MINTER_ROLE",
      "outputs": [
        {
          "internalType": "bytes32",
          "name": "",
          "type": "bytes32"
        }
      ],
      "stateMutability": "view",
      "type": "function"
    },
    {
      "inputs": [],
      "name": "REDEEMER_ROLE",
      "outputs": [
        {
          "internalType": "bytes32",
          "name": "",
          "type": "bytes32"
        }
      ],
      "stateMutability": "view",
      "type": "function"
    },
    {
      "inputs": [
        {
          "internalType": "address",
          "name": "",
          "type": "address"
        },
        {
          "internalType": "uint256",
          "name": "",
          "type": "uint256"
        }
      ],
      "name": "approve",
      "outputs": [],
      "stateMutability": "pure",
      "type": "function"
    },
    {
      "inputs": [
        {
          "internalType": "address",
          "name": "owner",
          "type": "address"
        }
      ],
      "name": "balanceOf",
      "outputs": [
        {
          "internalType": "uint256",
          "name": "",
          "type": "uint256"
        }
      ],
      "stateMutability": "view",
      "type": "function"
    },
    {
      "inputs": [
        {
          "internalType": "address",
          "name": "",
          "type": "address"
        },
        {
          "internalType": "uint256",
          "name": "",
          "type": "uint256"
        }
      ],
      "name": "beneficiaryTokens",
      "outputs": [
        {
          "internalType": "uint256",
          "name": "",
          "type": "uint256"
        }
      ],
      "stateMutability": "view",
      "type": "function"
    },
    {
      "inputs": [
        {
          "internalType": "uint256",
          "name": "",
          "type": "uint256"
        },
        {
          "internalType": "uint256",
          "name": "",
          "type": "uint256"
        }
      ],
      "name": "campaignTokens",
      "outputs": [
        {
          "internalType": "uint256",
          "name": "",
          "type": "uint256"
        }
      ],
      "stateMutability": "view",
      "type": "function"
    },
    {
      "inputs": [
        {
          "internalType": "uint256",
          "name": "tokenId",
          "type": "uint256"
        }
      ],
      "name": "getApproved",
      "outputs": [
        {
          "internalType": "address",
          "name": "",
          "type": "address"
        }
      ],
      "stateMutability": "view",
      "type": "function"
    },
    {
      "inputs": [
        {
          "internalType": "address",
          "name": "beneficiary",
          "type": "address"
        }
      ],
      "name": "getBeneficiaryTokens",
      "outputs": [
        {
          "internalType": "uint256[]",
          "name": "",
          "type": "uint256[]"
        }
      ],
      "stateMutability": "view",
      "type": "function"
    },
    {
      "inputs": [
        {
          "internalType": "uint256",
          "name": "campaignId",
          "type": "uint256"
        }
      ],
      "name": "getCampaignTokens",
      "outputs": [
        {
          "internalType": "uint256[]",
          "name": "",
          "type": "uint256[]"
        }
      ],
      "stateMutability": "view",
      "type": "function"
    },
    {
      "inputs": [
        {
          "internalType": "bytes32",
          "name": "role",
          "type": "bytes32"
        }
      ],
      "name": "getRoleAdmin",
      "outputs": [
        {
          "internalType": "bytes32",
          "name": "",
          "type": "bytes32"
        }
      ],
      "stateMutability": "view",
      "type": "function"
    },
    {
      "inputs": [
        {
          "internalType": "uint256",
          "name": "tokenId",
          "type": "uint256"
        }
      ],
      "name": "getTokenMetadata",
      "outputs": [
        {
          "components": [
            {
              "internalType": "uint256",
              "name": "tokenId",
              "type": "uint256"
            },
            {
              "internalType": "address",
              "name": "beneficiary",
              "type": "address"
            },
            {
              "internalType": "uint256",
              "name": "campaignId",
              "type": "uint256"
            },
            {
              "internalType": "uint256",
              "name": "entitledAmount",
              "type": "uint256"
            },
            {
              "internalType": "string",
              "name": "serviceType",
              "type": "string"
            },
            {
              "internalType": "uint256",
              "name": "issuedAt",
              "type": "uint256"
            },
            {
              "internalType": "uint256",
              "name": "expiryDate",
              "type": "uint256"
            },
            {
              "internalType": "bool",
              "name": "isRedeemed",
              "type": "bool"
            },
            {
              "internalType": "address",
              "name": "redeemedBy",
              "type": "address"
            },
            {
              "internalType": "uint256",
              "name": "redeemedAt",
              "type": "uint256"
            },
            {
              "internalType": "string",
              "name": "proofOfServiceHash",
              "type": "string"
            },
            {
              "internalType": "enum SoulboundToken.TokenStatus",
              "name": "status",
              "type": "uint8"
            }
          ],
          "internalType": "struct SoulboundToken.TokenMetadata",
          "name": "",
          "type": "tuple"
        }
      ],
      "stateMutability": "view",
      "type": "function"
    },
    {
      "inputs": [
        {
          "internalType": "bytes32",
          "name": "role",
          "type": "bytes32"
        },
        {
          "internalType": "address",
          "name": "account",
          "type": "address"
        }
      ],
      "name": "grantRole",
      "outputs": [],
      "stateMutability": "nonpayable",
      "type": "function"
    },
    {
      "inputs": [
        {
          "internalType": "bytes32",
          "name": "role",
          "type": "bytes32"
        },
        {
          "internalType": "address",
          "name": "account",
          "type": "address"
        }
      ],
      "name": "hasRole",
      "outputs": [
        {
          "internalType": "bool",
          "name": "",
          "type": "bool"
        }
      ],
      "stateMutability": "view",
      "type": "function"
    },
    {
      "inputs": [
        {
          "internalType": "address",
          "name": "owner",
          "type": "address"
        },
        {
          "internalType": "address",
          "name": "operator",
          "type": "address"
        }
      ],
      "name": "isApprovedForAll",
      "outputs": [
        {
          "internalType": "bool",
          "name": "",
          "type": "bool"
        }
      ],
      "stateMutability": "view",
      "type": "function"
    },
    {
      "inputs": [
        {
          "internalType": "uint256",
          "name": "tokenId",
          "type": "uint256"
        }
      ],
      "name": "isTokenRedeemable",
      "outputs": [
        {
          "internalType": "bool",
          "name": "",
          "type": "bool"
        }
      ],
      "stateMutability": "view",
      "type": "function"
    },
    {
      "inputs": [
        {
          "internalType": "uint256",
          "name": "tokenId",
          "type": "uint256"
        }
      ],
      "name": "markExpired",
      "outputs": [],
      "stateMutability": "nonpayable",
      "type": "function"
    },
    {
      "inputs": [
        {
          "internalType": "address",
          "name": "beneficiary",
          "type": "address"
        },
        {
          "internalType": "uint256",
          "name": "campaignId",
          "type": "uint256"
        },
        {
          "internalType": "uint256",
          "name": "entitledAmount",
          "type": "uint256"
        },
        {
          "internalType": "string",
          "name": "serviceType",
          "type": "string"
        },
        {
          "internalType": "uint256",
          "name": "validityPeriod",
          "type": "uint256"
        }
      ],
      "name": "mintToken",
      "outputs": [
        {
          "internalType": "uint256",
          "name": "",
          "type": "uint256"
        }
      ],
      "stateMutability": "nonpayable",
      "type": "function"
    },
    {
      "inputs": [],
      "name": "name",
      "outputs": [
        {
          "internalType": "string",
          "name": "",
          "type": "string"
        }
      ],
      "stateMutability": "view",
      "type": "function"
    },
    {
      "inputs": [
        {
          "internalType": "uint256",
          "name": "tokenId",
          "type": "uint256"
        }
      ],
      "name": "ownerOf",
      "outputs": [
        {
          "internalType": "address",
          "name": "",
          "type": "address"
        }
      ],
      "stateMutability": "view",
      "type": "function"
    },
    {
      "inputs": [],
      "name": "pause",
      "outputs": [],
      "stateMutability": "nonpayable",
      "type": "function"
    },
    {
      "inputs": [],
      "name": "paused",
      "outputs": [
        {
          "internalType": "bool",
          "name": "",
          "type": "bool"
        }
      ],
      "stateMutability": "view",
      "type": "function"
    },
    {
      "inputs": [
        {
          "internalType": "uint256",
          "name": "tokenId",
          "type": "uint256"
        },
        {
          "internalType": "string",
          "name": "proofOfServiceHash",
          "type": "string"
        }
      ],
      "name": "redeemToken",
      "outputs": [],
      "stateMutability": "nonpayable",
      "type": "function"
    },
    {
      "inputs": [
        {
          "internalType": "bytes32",
          "name": "role",
          "type": "bytes32"
        },
        {
          "internalType": "address",
          "name": "callerConfirmation",
          "type": "address"
        }
      ],
      "name": "renounceRole",
      "outputs": [],
      "stateMutability": "nonpayable",
      "type": "function"
    },
    {
      "inputs": [
        {
          "internalType": "bytes32",
          "name": "role",
          "type": "bytes32"
        },
        {
          "internalType": "address",
          "name": "account",
          "type": "address"
        }
      ],
      "name": "revokeRole",
      "outputs": [],
      "stateMutability": "nonpayable",
      "type": "function"
    },
    {
      "inputs": [
        {
          "internalType": "uint256",
          "name": "tokenId",
          "type": "uint256"
        },
        {
          "internalType": "string",
          "name": "reason",
          "type": "string"
        }
      ],
      "name": "revokeToken",
      "outputs": [],
      "stateMutability": "nonpayable",
      "type": "function"
    },
    {
      "inputs": [
        {
          "internalType": "address",
          "name": "from",
          "type": "address"
        },
        {
          "internalType": "address",
          "name": "to",
          "type": "address"
        },
        {
          "internalType": "uint256",
          "name": "tokenId",
          "type": "uint256"
        }
      ],
      "name": "safeTransferFrom",
      "outputs": [],
      "stateMutability": "nonpayable",
      "type": "function"
    },
    {
      "inputs": [
        {
          "internalType": "address",
          "name": "",
          "type": "address"
        },
        {
          "internalType": "address",
          "name": "",
          "type": "address"
        },
        {
          "internalType": "uint256",
          "name": "",
          "type": "uint256"
        },
        {
          "internalType": "bytes",
          "name": "",
          "type": "bytes"
        }
      ],
      "name": "safeTransferFrom",
      "outputs": [],
      "stateMutability": "pure",
      "type": "function"
    },
    {
      "inputs": [
        {
          "internalType": "address",
          "name": "",
          "type": "address"
        },
        {
          "internalType": "bool",
          "name": "",
          "type": "bool"
        }
      ],
      "name": "setApprovalForAll",
      "outputs": [],
      "stateMutability": "pure",
      "type": "function"
    },
    {
      "inputs": [
        {
          "internalType": "bytes4",
          "name": "interfaceId",
          "type": "bytes4"
        }
      ],
      "name": "supportsInterface",
      "outputs": [
        {
          "internalType": "bool",
          "name": "",
          "type": "bool"
        }
      ],
      "stateMutability": "view",
      "type": "function"
    },
    {
      "inputs": [],
      "name": "symbol",
      "outputs": [
        {
          "internalType": "string",
          "name": "",
          "type": "string"
        }
      ],
      "stateMutability": "view",
      "type": "function"
    },
    {
      "inputs": [
        {
          "internalType": "uint256",
          "name": "index",
          "type": "uint256"
        }
      ],
      "name": "tokenByIndex",
      "outputs": [
        {
          "internalType": "uint256",
          "name": "",
          "type": "uint256"
        }
      ],
      "stateMutability": "view",
      "type": "function"
    },
    {
      "inputs": [
        {
          "internalType": "uint256",
          "name": "",
          "type": "uint256"
        }
      ],
      "name": "tokenMetadata",
      "outputs": [
        {
          "internalType": "uint256",
          "name": "tokenId",
          "type": "uint256"
        },
        {
          "internalType": "address",
          "name": "beneficiary",
          "type": "address"
        },
        {
          "internalType": "uint256",
          "name": "campaignId",
          "type": "uint256"
        },
        {
          "internalType": "uint256",
          "name": "entitledAmount",
          "type": "uint256"
        },
        {
          "internalType": "string",
          "name": "serviceType",
          "type": "string"
        },
        {
          "internalType": "uint256",
          "name": "issuedAt",
          "type": "uint256"
        },
        {
          "internalType": "uint256",
          "name": "expiryDate",
          "type": "uint256"
        },
        {
          "internalType": "bool",
          "name": "isRedeemed",
          "type": "bool"
        },
        {
          "internalType": "address",
          "name": "redeemedBy",
          "type": "address"
        },
        {
          "internalType": "uint256",
          "name": "redeemedAt",
          "type": "uint256"
        },
        {
          "internalType": "string",
          "name": "proofOfServiceHash",
          "type": "string"
        },
        {
          "internalType": "enum SoulboundToken.TokenStatus",
          "name": "status",
          "type": "uint8"
        }
      ],
      "stateMutability": "view",
      "type": "function"
    },
    {
      "inputs": [
        {
          "internalType": "address",
          "name": "owner",
          "type": "address"
        },
        {
          "internalType": "uint256",
          "name": "index",
          "type": "uint256"
        }
      ],
      "name": "tokenOfOwnerByIndex",
      "outputs": [
        {
          "internalType": "uint256",
          "name": "",
          "type": "uint256"
        }
      ],
      "stateMutability": "view",
      "type": "function"
    },
    {
      "inputs": [
        {
          "internalType": "uint256",
          "name": "tokenId",
          "type": "uint256"
        }
      ],
      "name": "tokenURI",
      "outputs": [
        {
          "internalType": "string",
          "name": "",
          "type": "string"
        }
      ],
      "stateMutability": "view",
      "type": "function"
    },
    {
      "inputs": [],
      "name": "totalSupply",
      "outputs": [
        {
          "internalType": "uint256",
          "name": "",
          "type": "uint256"
        }
      ],
      "stateMutability": "view",
      "type": "function"
    },
    {
      "inputs": [
        {
          "internalType": "address",
          "name": "",
          "type": "address"
        },
        {
          "internalType": "address",
          "name": "",
          "type": "address"
        },
        {
          "internalType": "uint256",
          "name": "",
          "type": "uint256"
        }
      ],
      "name": "transferFrom",
      "outputs": [],
      "stateMutability": "pure",
      "type": "function"
    },
    {
      "inputs": [],
      "name": "unpause",
      "outputs": [],
      "stateMutability": "nonpayable",
      "type": "function"
    }
  ],
  "bytecode": "0x60803462000347576001600160401b03906040908082018381118282101762000331578252601781526020927f43686172697479456e7469746c656d656e74546f6b656e0000000000000000008483015282518381018181108382111762000331578452600381526210d15560ea1b85820152825190828211620003315760008054926001958685811c9516801562000326575b8986101462000312578190601f95868111620002bf575b5089908683116001146200025b5784926200024f575b5050600019600383901b1c191690861b1781555b81519384116200023b5784548581811c9116801562000230575b888210146200021c57838111620001d4575b50869284116001146200016e5783949596509262000162575b5050600019600383901b1c191690821b1781555b600c556200013b336200034c565b506200014733620003cd565b50620001533362000470565b505161259090816200050f8239f35b01519050388062000119565b9190601f1984169685845280842093905b888210620001bc5750508385969710620001a2575b505050811b0181556200012d565b015160001960f88460031b161c1916905538808062000194565b8087859682949686015181550195019301906200017f565b8582528782208480870160051c8201928a881062000212575b0160051c019086905b8281106200020657505062000100565b838155018690620001f6565b92508192620001ed565b634e487b7160e01b82526022600452602482fd5b90607f1690620000ee565b634e487b7160e01b81526041600452602490fd5b015190503880620000c0565b8480528a85208994509190601f198416865b8d828210620002a857505084116200028e575b505050811b018155620000d4565b015160001960f88460031b161c1916905538808062000280565b8385015186558c979095019493840193016200026d565b9091508380528984208680850160051c8201928c861062000308575b918a91869594930160051c01915b828110620002f9575050620000aa565b8681558594508a9101620002e9565b92508192620002db565b634e487b7160e01b83526022600452602483fd5b94607f169462000093565b634e487b7160e01b600052604160045260246000fd5b600080fd5b6001600160a01b031660008181527f13da86008ba1c6922daee3e07db95305ef49ebced9f5467a0b8613fcc6b343e3602052604081205490919060ff16620003c957818052600a6020526040822081835260205260408220600160ff19825416179055339160008051602062002a9f8339815191528180a4600190565b5090565b6001600160a01b031660008181527f4f5f35b2b01f07f9be0651f033d30422e26500d4938fa8e284ae4c3c59221e5760205260408120549091907fa49807205ce4d355092ef5a8a18f56e8913cf4a201fbe287825b095693c217759060ff166200046b57808352600a6020526040832082845260205260408320600160ff1982541617905560008051602062002a9f833981519152339380a4600190565b505090565b6001600160a01b031660008181527faa1d7351356c4ddc11907b1ee0660f579cfdf507235af2ae01ecd22a4b7ceaae60205260408120549091907f9f2df0fed2c77648de5860a4cc508cd0818c85b8b8a1ab4ceeef8d981c8956a69060ff166200046b57808352600a6020526040832082845260205260408320600160ff1982541617905560008051602062002a9f833981519152339380a460019056fe608080604052600436101561001357600080fd5b60003560e01c90816301ffc9a714611eb95750806306fdde0314611e16578063081812fc14611dd8578063095ea7b314611d6d57806318160ddd14611d4f57806323b872dd14611d39578063248a9ca314611d0a5780632f2ff15d14611ccb5780632f745c5914611c485780633147ffd214611bde57806336568abe14611b975780633cd0b75f14611af05780633d23e6b91461176a5780633f4ba83a1461170057806342842e0e146116db57806347a9d145146116915780634c4c80c614610cb95780634f6ccce714610c495780635c975abb14610c265780636031680114610a1f5780636352211e146109ef5780636914db601461090357806370a08231146108d857806375b238fc1461089d57806377fd00c5146107be5780637fa46ab4146107835780638003f48c146106375780638456cb59146105dd57806391d148541461059057806395d89b41146104b1578063a20fbdf41461046a578063a217fddf1461044e578063a22cb465146103d8578063b88d4fde1461037e578063c87b56dd1461032b578063d5391393146102f0578063d547741f146102af578063e985e9c5146102595763f297bb93146101cc57600080fd5b3461025457602080600319360112610254576001600160a01b036101ee611f98565b16600052600f8152604060002090604051908181845491828152019360005281600020916000905b82821061023d576102398561022d8189038261206d565b60405191829182611ff9565b0390f35b835486529485019460019384019390910190610216565b600080fd5b3461025457604036600319011261025457610272611f98565b61027a611fae565b9060018060a01b03809116600052600560205260406000209116600052602052602060ff604060002054166040519015158152f35b34610254576040366003190112610254576102ee6004356102ce611fae565b9080600052600a6020526102e9600160406000200154612291565b612337565b005b346102545760003660031901126102545760206040517f9f2df0fed2c77648de5860a4cc508cd0818c85b8b8a1ab4ceeef8d981c8956a68152f35b34610254576020366003190112610254576103476004356123e7565b50600060405161035681612051565b5261023960405161036681612051565b60008152604051918291602083526020830190611f58565b3461025457608036600319011261025457610397611f98565b506103a0611fae565b5060643567ffffffffffffffff81116102545736602382011215610254576103d29036906024816004013591016120ab565b50612506565b34610254576040366003190112610254576103f1611f98565b50602435801515036102545760405162461bcd60e51b815260206004820152602360248201527f536f756c626f756e6420746f6b656e732063616e6e6f7420626520617070726f6044820152621d995960ea1b6064820152608490fd5b3461025457600036600319011261025457602060405160008152f35b3461025457604036600319011261025457602435600435600052601060205260406000208054821015610254576020916104a391612130565b90546040519160031b1c8152f35b3461025457600036600319011261025457604051600060018054906104d582612155565b808552918181169081156105695750600114610510575b610239846104fc8186038261206d565b604051918291602083526020830190611f58565b600081815292507fb10e2d527612073b26eecdfd717e6a320cf44b4afac2b0732d9fcbe2b7fa0cf65b8284106105515750505081016020016104fc826104ec565b80546020858701810191909152909301928101610539565b60ff191660208087019190915292151560051b850190920192506104fc91508390506104ec565b34610254576040366003190112610254576105a9611fae565b600435600052600a60205260406000209060018060a01b0316600052602052602060ff604060002054166040519015158152f35b34610254576000366003190112610254576105f6612235565b6105fe612463565b600160ff19600b541617600b557f62e78cea01bee320cd4e420270b5ea74000d11b0c9f74754ebdbfc544b05a2586020604051338152a1005b346102545760203660031901126102545760043580600052600e60205260406000206040519161066683612034565b8154835260018201546001600160a01b039081166020850152600283015460408501526003830154606085015261069f6004840161218f565b6080850152600583015460a085015260068301549160c0850192835261070b61016060ff600a6007880154978660e08b019984811615158b5260081c166101008b015260088101546101208b01526106f96009820161218f565b6101408b015201541696019586612422565b60005260026020526040600020541615159182610755575b602093508261074b575b508161073f575b506040519015158152f35b90505142111582610734565b511591508361072d565b9150915191600483101561076d576020921591610723565b634e487b7160e01b600052602160045260246000fd5b346102545760003660031901126102545760206040517f44ac9762eec3a11893fefb11d028bb3102560094137c3ed4518712475b2577cc8152f35b346102545760203660031901126102545760043580600052600e602052604060002060026020526107fd60018060a01b03604060002054161515612481565b600a81019081549060ff821690600482101561076d5761081f600692156124c4565b01544211156108585760ff191660021790557f492531370c4d9936ebe217e769581e72fb2a02b10df161cd9ccd358f1aa45f9a600080a2005b60405162461bcd60e51b815260206004820152601960248201527f546f6b656e20686173206e6f74206578706972656420796574000000000000006044820152606490fd5b346102545760003660031901126102545760206040517fa49807205ce4d355092ef5a8a18f56e8913cf4a201fbe287825b095693c217758152f35b346102545760203660031901126102545760206108fb6108f6611f98565b6123ae565b604051908152f35b3461025457602036600319011261025457600435600052600e60205260406000208054600160a01b60019003806001840154169260028101549160038201546004830161094f9061218f565b916005840154926006850154600786015491600887015494600988016109749061218f565b97600a015460ff16986040519b8c9b8c5260208c015260408b015260608a01526101808060808b015289016109a891611f58565b9460a089015260c088015260ff8116151560e088015260081c166101008601526101208501528381036101408501526109e091611f58565b90610160830161023991612148565b34610254576020366003190112610254576020610a0d6004356123e7565b6040516001600160a01b039091168152f35b34610254576020366003190112610254576004356000610160604051610a4481612034565b828152826020820152826040820152826060820152606060808201528260a08201528260c08201528260e0820152826101008201528261012082015260606101408201520152806000526002602052610aab60018060a01b03604060002054161515612481565b600052600e6020526040600020610b6760ff600a60405193610acc85612034565b8054855260018101546001600160a01b031660208601526002810154604086015260038101546060860152610b036004820161218f565b6080860152600581015460a0860152600681015460c08601526007810154838116151560e0870152600890811c6001600160a01b0316610100870152810154610120860152610b546009820161218f565b6101408601520154166101608301612422565b6040518091602082528051602083015260018060a01b03602082015116604083015260408101516060830152606081015160808301526102396080820151610160610c1a610bc3610180938460a08901526101a0880190611f58565b60a086015160c088015260c086015160e088015260e0860151151561010088015260018060a01b0361010087015116610120880152610120860151610140880152610140860151601f198883030184890152611f58565b93015190840190612148565b3461025457600036600319011261025457602060ff600b54166040519015158152f35b3461025457602036600319011261025457600435600854811015610c9a5760209060086000527ff3f7a9fe364faab93b216da50a3214154f22a0a2b415b23a84c8169e8b636ee30154604051908152f35b6044906040519063295f44f760e21b8252600060048301526024820152fd5b346102545760a036600319011261025457610cd2611f98565b60643567ffffffffffffffff811161025457610cf29036906004016120e2565b3360009081527faa1d7351356c4ddc11907b1ee0660f579cfdf507235af2ae01ecd22a4b7ceaae60205260409020549091907f9f2df0fed2c77648de5860a4cc508cd0818c85b8b8a1ab4ceeef8d981c8956a69060ff16156116735750610d57612463565b6001600160a01b0381161561162e57604435156115da5760843590811561158657600d549160001983146114905760018301600d55804201421161149057604051610da181612051565b6000808252848152600260205260409020546001600160a01b03168061154c575b6001600160a01b0384166000818152600360209081526040808320805460010190558883526002909152812080546001600160a01b0319168317905586919083907fddf252ad1be2c89b69c2b068fc378daa952ba7f163c4a11628f55a4df523b3ef9080a4806114bc5760085485600052600960205280604060002055600160401b8110156111ff5760018101806008558110156114a657859060086000527ff3f7a9fe364faab93b216da50a3214154f22a0a2b415b23a84c8169e8b636ee301555b6001600160a01b038416810361143c575b61142357823b6112e5575b50604051610eae81612034565b83815260018060a01b0383166020820152602435604082015260443560608201528460808201524260a082015281420160c0820152600060e082015260006101008201526000610120820152604051610f0681612051565b60008152610140820152600061016082015283600052600e6020526040600020815181556001810160018060a01b036020840151166bffffffffffffffffffffffff60a01b8254161790556040820151600282015560608201516003820155608082015180519067ffffffffffffffff82116111ff578190610f8b6004850154612155565b601f8111611292575b50602090601f831160011461122057600092611215575b50508160011b916000199060031b1c19161760048201555b60a0820151600582015560c0820151600682015560e0820151600782018054610100850151610100600160a81b0360089190911b1692151560ff166001600160a81b031990911617919091179055610120820151600882015561014082015180519067ffffffffffffffff82116111ff576110416009840154612155565b601f81116111b8575b50602090601f83116001146111445791806101609492600a94600092611139575b50508160011b916000199060031b1c19161760098201555b01910151600481101561076d5760209585927fb2b661b9ac05c47243d2328f53c7687d31fac39bd6ac5c1f1f312dec0b2070b69260ff8019835416911617905560018060a01b038516600052600f87526110e183604060002061242e565b602435600052601087526110f983604060002061242e565b6111156040519160443583526060898401526060830190611f58565b429094016040820152602435946001600160a01b03169381900390a4604051908152f35b015190508a8061106b565b90601f198316916009850160005260206000209260005b8181106111a05750926001928592600a96610160989610611187575b505050811b016009820155611083565b015160001960f88460031b161c191690558a8080611177565b9293602060018192878601518155019501930161115b565b600984016000526020600020601f840160051c8101602085106111f8575b601f830160051c820181106111ec57505061104a565b600081556001016111d6565b50806111d6565b634e487b7160e01b600052604160045260246000fd5b015190508880610fab565b9250600484016000526020600020906000935b601f1984168510611277576001945083601f1981161061125e575b505050811b016004820155610fc3565b015160001960f88460031b161c1916905588808061124e565b81810151835560209485019460019093019290910190611233565b909150600484016000526020600020601f840160051c8101602085106112de575b90849392915b601f830160051c820181106112cf575050610f94565b600081558594506001016112b9565b50806112b3565b6040949392945160208180611323630a85bd0160e11b9586835233600484015260006024840152886044840152608060648401526084830190611f58565b038160006001600160a01b038b165af1600091816113de575b506113a457853d1561139c573d906113538261208f565b91611361604051938461206d565b82523d6000602084013e5b8151918261139557604051633250574960e11b81526001600160a01b0383166004820152602490fd5b6020915001fd5b60609061136c565b939492936001600160e01b031916036113bd5784610ea1565b604051633250574960e11b81526001600160a01b0383166004820152602490fd5b9091506020813d60201161141b575b816113fa6020938361206d565b8101031261025457516001600160e01b03198116810361025457908761133c565b3d91506113ed565b6040516339e3563760e11b815260006004820152602490fd5b611445846123ae565b806000198101116114905760018060a01b0385166000526006602052604060002060001982016000526020528560406000205585600052600760205260001901604060002055610e96565b634e487b7160e01b600052601160045260246000fd5b634e487b7160e01b600052603260045260246000fd5b6001600160a01b0384168114610e85576114d5816123ae565b8560005260076020526040600020549082600052600660205260406000209181810361151f575b508660005260076020526000604081205560005260205260006040812055610e85565b816000528260205260406000205481600052806040600020556000526007602052604060002055886114fc565b600460205260406000206bffffffffffffffffffffffff60a01b815416905580600052600360205260406000206000198154019055610dc2565b60405162461bcd60e51b815260206004820152602660248201527f56616c696469747920706572696f64206d75737420626520677265617465722060448201526507468616e20360d41b6064820152608490fd5b60405162461bcd60e51b815260206004820152602660248201527f456e7469746c656420616d6f756e74206d75737420626520677265617465722060448201526507468616e20360d41b6064820152608490fd5b60405162461bcd60e51b815260206004820152601b60248201527f496e76616c69642062656e6566696369617279206164647265737300000000006044820152606490fd5b6044906040519063e2517d3f60e01b82523360048301526024820152fd5b34610254576040366003190112610254576116aa611f98565b6001600160a01b03166000908152600f6020526040902080546024359190821015610254576020916104a391612130565b34610254576116e936611fc4565b50505060006040516116fa81612051565b52612506565b3461025457600036600319011261025457611719612235565b600b5460ff8116156117585760ff1916600b557f5db9ee0a495bf2e6ff9c91a7834c1ba4fdd244a5e8aa4e537bd38aeae4b073aa6020604051338152a1005b604051638dfc202b60e01b8152600490fd5b346102545761177836612100565b3360009081527f11cd48209d2a3fba0724b84d5a6be0d3a9ed67d123f6c5e8cc0a904f6ae4db1b60209081526040909120547f44ac9762eec3a11893fefb11d028bb3102560094137c3ed4518712475b2577cc9060ff161561167357506002600c5414611ade576002600c556117ec612463565b82600052600e81526040600020926002825260018060a01b0361181781604060002054161515612481565b600a85019060ff825416600481101561076d5761183490156124c4565b600786019586549060ff8216611aa05760068101544211611a6757865115611a22576001600160a81b03199091163360081b610100600160a81b031617600190811790975560ff1990426008820155600981019387519267ffffffffffffffff84116111ff5789936118a68754612155565b601f81116119d9575b5088601f82116001146119395796818693927f966e68f95f73ca97353f6a2f3ca437a3acbdf0350bd4cb3924a150ce3181aa799960009161192e575b50600019600383901b1c191690841b1790555b8254161790550154169361191d60405191604083526040830190611f58565b9342908201528033940390a4600c55005b90508c01518e6118eb565b908a9791601f19821690836000528b6000209160005b8d8282106119b05750509183917f966e68f95f73ca97353f6a2f3ca437a3acbdf0350bd4cb3924a150ce3181aa799b8a979695889510611997575b505050811b0190556118fe565b015160001960f88460031b161c191690558e808e61198a565b92959799909496989a9b9386849395015181550194019201918d979593918d9a9997959361194f565b8760005289600020601f830160051c8101918b8410611a18575b601f0160051c019086905b828110611a0c5750506118af565b600081550186906119fe565b90915081906119f3565b60405162461bcd60e51b815260048101879052601960248201527f50726f6f66206f662073657276696365207265717569726564000000000000006044820152606490fd5b60405162461bcd60e51b8152600481018790526011602482015270151bdad95b881a185cc8195e1c1a5c9959607a1b6044820152606490fd5b60405162461bcd60e51b8152600481018790526016602482015275151bdad95b88185b1c9958591e481c995919595b595960521b6044820152606490fd5b604051633ee5aeb560e01b8152600490fd5b3461025457611afe36612100565b611b06612235565b81600052600e602052600a60406000206002602052611b3360018060a01b03604060002054161515612481565b019081549060ff821692600484101561076d576003611b9293611b777f7d69cc4e433c904f7c6581d0caf6930b1ddacd7aabba07b43aceb33f7688509e96156124c4565b60ff1916179055604051918291602083526020830190611f58565b0390a2005b3461025457604036600319011261025457611bb0611fae565b336001600160a01b03821603611bcc576102ee90600435612337565b60405163334bd91960e11b8152600490fd5b34610254576020806003193601126102545760043560005260108152604060002090604051908181845491828152019360005281600020916000905b828210611c31576102398561022d8189038261206d565b835486529485019460019384019390910190611c1a565b3461025457604036600319011261025457611c61611f98565b60243590611c6e816123ae565b821015611ca15760018060a01b031660005260066020526040600020906000526020526020604060002054604051908152f35b60405163295f44f760e21b81526001600160a01b0390911660048201526024810191909152604490fd5b34610254576040366003190112610254576102ee600435611cea611fae565b9080600052600a602052611d05600160406000200154612291565b6122b7565b3461025457602036600319011261025457600435600052600a6020526020600160406000200154604051908152f35b3461025457611d4736611fc4565b505050612506565b34610254576000366003190112610254576020600854604051908152f35b3461025457604036600319011261025457611d86611f98565b5060405162461bcd60e51b815260206004820152602360248201527f536f756c626f756e6420746f6b656e732063616e6e6f7420626520617070726f6044820152621d995960ea1b6064820152608490fd5b3461025457602036600319011261025457600435611df5816123e7565b506000526004602052602060018060a01b0360406000205416604051908152f35b346102545760003660031901126102545760405160008054611e3781612155565b808452906001908181169081156105695750600114611e6057610239846104fc8186038261206d565b600080805292507f290decd9548b62a8d60345a988386fc84ba6bc95484008f6362f93160ef3e5635b828410611ea15750505081016020016104fc826104ec565b80546020858701810191909152909301928101611e89565b34610254576020366003190112610254576004359063ffffffff60e01b821680920361025457602091637965db0b60e01b8114908115611efb575b5015158152f35b63780e9d6360e01b811491508115611f15575b5083611ef4565b6380ac58cd60e01b811491508115611f47575b8115611f36575b5083611f0e565b6301ffc9a760e01b14905083611f2f565b635b5e139f60e01b81149150611f28565b919082519283825260005b848110611f84575050826000602080949584010152601f8019910116010190565b602081830181015184830182015201611f63565b600435906001600160a01b038216820361025457565b602435906001600160a01b038216820361025457565b6060906003190112610254576001600160a01b0390600435828116810361025457916024359081168103610254579060443590565b6020908160408183019282815285518094520193019160005b828110612020575050505090565b835185529381019392810192600101612012565b610180810190811067ffffffffffffffff8211176111ff57604052565b6020810190811067ffffffffffffffff8211176111ff57604052565b90601f8019910116810190811067ffffffffffffffff8211176111ff57604052565b67ffffffffffffffff81116111ff57601f01601f191660200190565b9291926120b78261208f565b916120c5604051938461206d565b829481845281830111610254578281602093846000960137010152565b9080601f83011215610254578160206120fd933591016120ab565b90565b90604060031983011261025457600435916024359067ffffffffffffffff8211610254576120fd916004016120e2565b80548210156114a65760005260206000200190600090565b90600482101561076d5752565b90600182811c92168015612185575b602083101461216f57565b634e487b7160e01b600052602260045260246000fd5b91607f1691612164565b90604051918260008254926121a384612155565b90818452600194858116908160001461221257506001146121cf575b50506121cd9250038361206d565b565b9093915060005260209081600020936000915b8183106121fa5750506121cd935082010138806121bf565b855488840185015294850194879450918301916121e2565b9150506121cd94506020925060ff191682840152151560051b82010138806121bf565b3360009081527f4f5f35b2b01f07f9be0651f033d30422e26500d4938fa8e284ae4c3c59221e5760205260409020547fa49807205ce4d355092ef5a8a18f56e8913cf4a201fbe287825b095693c217759060ff16156116735750565b80600052600a60205260406000203360005260205260ff60406000205416156116735750565b90600091808352600a602052604083209160018060a01b03169182845260205260ff6040842054161560001461233257808352600a6020526040832082845260205260408320600160ff198254161790557f2f8788117e7eff1d82e926ec794901d17c78024a50270940304540a733656f0d339380a4600190565b505090565b90600091808352600a602052604083209160018060a01b03169182845260205260ff60408420541660001461233257808352600a602052604083208284526020526040832060ff1981541690557ff6391f5c32d9c69d2a47ea670b442974b53935d1edc7fd64eb21e047a839171b339380a4600190565b6001600160a01b031680156123ce57600052600360205260406000205490565b6040516322718ad960e21b815260006004820152602490fd5b6000818152600260205260409020546001600160a01b031690811561240a575090565b60249060405190637e27328960e01b82526004820152fd5b600482101561076d5752565b8054600160401b8110156111ff5761244b91600182018155612130565b819291549060031b91821b91600019901b1916179055565b60ff600b541661246f57565b60405163d93c066560e01b8152600490fd5b1561248857565b60405162461bcd60e51b8152602060048201526014602482015273151bdad95b88191bd95cc81b9bdd08195e1a5cdd60621b6044820152606490fd5b156124cb57565b60405162461bcd60e51b8152602060048201526013602482015272546f6b656e206973206e6f742061637469766560681b6044820152606490fd5b60405162461bcd60e51b815260206004820152602660248201527f536f756c626f756e6420746f6b656e732063616e6e6f74206265207472616e7360448201526519995c9c995960d21b6064820152608490fdfea2646970667358221220d129dcb8a2cfb6ac5490773bc1f93ec2abed73f9736b7924f943dcb90a53669c64736f6c634300081400332f8788117e7eff1d82e926ec794901d17c78024a50270940304540a733656f0d",
  "linkReferences": {},
  "deployedLinkReferences": {}
}