{"contracts/NGORegistry.sol":{"NGORegistry":{"abi":[{"inputs":[{"internalType":"address","name":"governanceAddress","type":"address"}],"stateMutability":"nonpayable","type":"constructor"},{"inputs":[],"name":"AccessControlBadConfirmation","type":"error"},{"inputs":[{"internalType":"address","name":"account","type":"address"},{"internalType":"bytes32","name":"neededRole","type":"bytes32"}],"name":"AccessControlUnauthorizedAccount","type":"error"},{"inputs":[],"name":"EnforcedPause","type":"error"},{"inputs":[],"name":"ExpectedPause","type":"error"},{"anonymous":false,"inputs":[{"indexed":true,"internalType":"address","name":"triggeredBy","type":"address"},{"indexed":false,"internalType":"uint256","name":"timestamp","type":"uint256"}],"name":"AdminVerificationFrozen","type":"event"},{"anonymous":false,"inputs":[{"indexed":true,"internalType":"uint256","name":"ngoId","type":"uint256"},{"indexed":false,"internalType":"string","name":"activity","type":"string"}],"name":"NGOActivityLogged","type":"event"},{"anonymous":false,"inputs":[{"indexed":true,"internalType":"address","name":"oldGovernance","type":"address"},{"indexed":true,"internalType":"address","name":"newGovernance","type":"address"}],"name":"NGOGovernanceUpdated","type":"event"},{"anonymous":false,"inputs":[{"indexed":true,"internalType":"uint256","name":"ngoId","type":"uint256"},{"indexed":true,"internalType":"address","name":"ngoAddress","type":"address"},{"indexed":false,"internalType":"string","name":"name","type":"string"}],"name":"NGORegistered","type":"event"},{"anonymous":false,"inputs":[{"indexed":true,"internalType":"uint256","name":"ngoId","type":"uint256"},{"indexed":false,"internalType":"uint256","name":"oldScore","type":"uint256"},{"indexed":false,"internalType":"uint256","name":"newScore","type":"uint256"}],"name":"NGOReputationUpdated","type":"event"},{"anonymous":false,"inputs":[{"indexed":true,"internalType":"uint256","name":"ngoId","type":"uint256"},{"indexed":false,"internalType":"enum NGORegistry.NGOStatus","name":"oldStatus","type":"uint8"},{"indexed":false,"internalType":"enum NGORegistry.NGOStatus","name":"newStatus","type":"uint8"}],"name":"NGOStatusChanged","type":"event"},{"anonymous":false,"inputs":[{"indexed":true,"internalType":"uint256","name":"ngoId","type":"uint256"},{"indexed":true,"internalType":"address","name":"verifier","type":"address"}],"name":"NGOVerified","type":"event"},{"anonymous":false,"inputs":[{"indexed":false,"internalType":"address","name":"account","type":"address"}],"name":"Paused","type":"event"},{"anonymous":false,"inputs":[{"indexed":true,"internalType":"bytes32","name":"role","type":"bytes32"},{"indexed":true,"internalType":"bytes32","name":"previousAdminRole","type":"bytes32"},{"indexed":true,"internalType":"bytes32","name":"newAdminRole","type":"bytes32"}],"name":"RoleAdminChanged","type":"event"},{"anonymous":false,"inputs":[{"indexed":true,"internalType":"bytes32","name":"role","type":"bytes32"},{"indexed":true,"internalType":"address","name":"account","type":"address"},{"indexed":true,"internalType":"address","name":"sender","type":"address"}],"name":"RoleGranted","type":"event"},{"anonymous":false,"inputs":[{"indexed":true,"internalType":"bytes32","name":"role","type":"bytes32"},{"indexed":true,"internalType":"address","name":"account","type":"address"},{"indexed":true,"internalType":"address","name":"sender","type":"address"}],"name":"RoleRevoked","type":"event"},{"anonymous":false,"inputs":[{"indexed":false,"internalType":"address","name":"account","type":"address"}],"name":"Unpaused","type":"event"},{"inputs":[],"name":"ADMIN_ROLE","outputs":[{"internalType":"bytes32","name":"","type":"bytes32"}],"stateMutability":"view","type":"function"},{"inputs":[],"name":"DEFAULT_ADMIN_ROLE","outputs":[{"internalType":"bytes32","name":"","type":"bytes32"}],"stateMutability":"view","type":"function"},{"inputs":[],"name":"VERIFIER_ROLE","outputs":[{"internalType":"bytes32","name":"","type":"bytes32"}],"stateMutability":"view","type":"function"},{"inputs":[{"internalType":"address","name":"","type":"address"}],"name":"addressToNgoId","outputs":[{"internalType":"uint256","name":"","type":"uint256"}],"stateMutability":"view","type":"function"},{"inputs":[],"name":"adminVerificationFrozen","outputs":[{"internalType":"bool","name":"","type":"bool"}],"stateMutability":"view","type":"function"},{"inputs":[{"internalType":"uint256","name":"ngoId","type":"uint256"},{"internalType":"string","name":"reason","type":"string"}],"name":"blacklistNGO","outputs":[],"stateMutability":"nonpayable","type":"function"},{"inputs":[],"name":"freezeAdminVerification","outputs":[],"stateMutability":"nonpayable","type":"function"},{"inputs":[{"internalType":"uint256","name":"ngoId","type":"uint256"}],"name":"getActivityLogs","outputs":[{"internalType":"string[]","name":"","type":"string[]"}],"stateMutability":"view","type":"function"},{"inputs":[{"internalType":"address","name":"ngoAddress","type":"address"}],"name":"getNGOByAddress","outputs":[{"components":[{"internalType":"uint256","name":"ngoId","type":"uint256"},{"internalType":"address","name":"ngoAddress","type":"address"},{"internalType":"string","name":"name","type":"string"},{"internalType":"string","name":"registrationNumber","type":"string"},{"internalType":"string","name":"country","type":"string"},{"internalType":"string","name":"category","type":"string"},{"internalType":"string","name":"kycDocumentHash","type":"string"},{"internalType":"uint256","name":"registeredAt","type":"uint256"},{"internalType":"uint256","name":"verifiedAt","type":"uint256"},{"internalType":"enum NGORegistry.NGOStatus","name":"status","type":"uint8"},{"internalType":"uint256","name":"reputationScore","type":"uint256"},{"internalType":"uint256","name":"totalCampaigns","type":"uint256"},{"internalType":"uint256","name":"totalFundsRaised","type":"uint256"},{"internalType":"uint256","name":"totalBeneficiaries","type":"uint256"},{"internalType":"bool","name":"isActive","type":"bool"}],"internalType":"struct NGORegistry.NGO","name":"","type":"tuple"}],"stateMutability":"view","type":"function"},{"inputs":[{"internalType":"uint256","name":"ngoId","type":"uint256"}],"name":"getNGOById","outputs":[{"components":[{"internalType":"uint256","name":"ngoId","type":"uint256"},{"internalType":"address","name":"ngoAddress","type":"address"},{"internalType":"string","name":"name","type":"string"},{"internalType":"string","name":"registrationNumber","type":"string"},{"internalType":"string","name":"country","type":"string"},{"internalType":"string","name":"category","type":"string"},{"internalType":"string","name":"kycDocumentHash","type":"string"},{"internalType":"uint256","name":"registeredAt","type":"uint256"},{"internalType":"uint256","name":"verifiedAt","type":"uint256"},{"internalType":"enum NGORegistry.NGOStatus","name":"status","type":"uint8"},{"internalType":"uint256","name":"reputationScore","type":"uint256"},{"internalType":"uint256","name":"totalCampaigns","type":"uint256"},{"internalType":"uint256","name":"totalFundsRaised","type":"uint256"},{"internalType":"uint256","name":"totalBeneficiaries","type":"uint256"},{"internalType":"bool","name":"isActive","type":"bool"}],"internalType":"struct NGORegistry.NGO","name":"","type":"tuple"}],"stateMutability":"view","type":"function"},{"inputs":[{"internalType":"bytes32","name":"role","type":"bytes32"}],"name":"getRoleAdmin","outputs":[{"internalType":"bytes32","name":"","type":"bytes32"}],"stateMutability":"view","type":"function"},{"inputs":[],"name":"getTotalNGOs","outputs":[{"internalType":"uint256","name":"","type":"uint256"}],"stateMutability":"view","type":"function"},{"inputs":[],"name":"governance","outputs":[{"internalType":"contract NGOGovernance","name":"","type":"address"}],"stateMutability":"view","type":"function"},{"inputs":[{"internalType":"bytes32","name":"role","type":"bytes32"},{"internalType":"address","name":"account","type":"address"}],"name":"grantRole","outputs":[],"stateMutability":"nonpayable","type":"function"},{"inputs":[{"internalType":"bytes32","name":"role","type":"bytes32"},{"internalType":"address","name":"account","type":"address"}],"name":"hasRole","outputs":[{"internalType":"bool","name":"","type":"bool"}],"stateMutability":"view","type":"function"},{"inputs":[{"internalType":"address","name":"ngoAddress","type":"address"}],"name":"isNGOVerified","outputs":[{"internalType":"bool","name":"","type":"bool"}],"stateMutability":"view","type":"function"},{"inputs":[{"internalType":"uint256","name":"ngoId","type":"uint256"},{"internalType":"string","name":"activity","type":"string"}],"name":"logActivity","outputs":[],"stateMutability":"nonpayable","type":"function"},{"inputs":[{"internalType":"uint256","name":"","type":"uint256"},{"internalType":"uint256","name":"","type":"uint256"}],"name":"ngoActivityLogs","outputs":[{"internalType":"string","name":"","type":"string"}],"stateMutability":"view","type":"function"},{"inputs":[{"internalType":"uint256","name":"","type":"uint256"}],"name":"ngos","outputs":[{"internalType":"uint256","name":"ngoId","type":"uint256"},{"internalType":"address","name":"ngoAddress","type":"address"},{"internalType":"string","name":"name","type":"string"},{"internalType":"string","name":"registrationNumber","type":"string"},{"internalType":"string","name":"country","type":"string"},{"internalType":"string","name":"category","type":"string"},{"internalType":"string","name":"kycDocumentHash","type":"string"},{"internalType":"uint256","name":"registeredAt","type":"uint256"},{"internalType":"uint256","name":"verifiedAt","type":"uint256"},{"internalType":"enum NGORegistry.NGOStatus","name":"status","type":"uint8"},{"internalType":"uint256","name":"reputationScore","type":"uint256"},{"internalType":"uint256","name":"totalCampaigns","type":"uint256"},{"internalType":"uint256","name":"totalFundsRaised","type":"uint256"},{"internalType":"uint256","name":"totalBeneficiaries","type":"uint256"},{"internalType":"bool","name":"isActive","type":"bool"}],"stateMutability":"view","type":"function"},{"inputs":[],"name":"pause","outputs":[],"stateMutability":"nonpayable","type":"function"},{"inputs":[],"name":"paused","outputs":[{"internalType":"bool","name":"","type":"bool"}],"stateMutability":"view","type":"function"},{"inputs":[{"internalType":"address","name":"ngoAddress","type":"address"},{"internalType":"string","name":"name","type":"string"},{"internalType":"string","name":"registrationNumber","type":"string"},{"internalType":"string","name":"country","type":"string"},{"internalType":"string","name":"category","type":"string"},{"internalType":"string","name":"kycDocumentHash","type":"string"}],"name":"registerNGO","outputs":[{"internalType":"uint256","name":"","type":"uint256"}],"stateMutability":"nonpayable","type":"function"},{"inputs":[{"internalType":"uint256","name":"ngoId","type":"uint256"},{"internalType":"string","name":"reason","type":"string"}],"name":"rejectNGO","outputs":[],"stateMutability":"nonpayable","type":"function"},{"inputs":[{"internalType":"bytes32","name":"role","type":"bytes32"},{"internalType":"address","name":"callerConfirmation","type":"address"}],"name":"renounceRole","outputs":[],"stateMutability":"nonpayable","type":"function"},{"inputs":[{"internalType":"bytes32","name":"role","type":"bytes32"},{"internalType":"address","name":"account","type":"address"}],"name":"revokeRole","outputs":[],"stateMutability":"nonpayable","type":"function"},{"inputs":[{"internalType":"bytes4","name":"interfaceId","type":"bytes4"}],"name":"supportsInterface","outputs":[{"internalType":"bool","name":"","type":"bool"}],"stateMutability":"view","type":"function"},{"inputs":[{"internalType":"uint256","name":"ngoId","type":"uint256"},{"internalType":"string","name":"reason","type":"string"}],"name":"suspendNGO","outputs":[],"stateMutability":"nonpayable","type":"function"},{"inputs":[{"internalType":"uint256","name":"ngoId","type":"uint256"},{"internalType":"string","name":"reason","type":"string"}],"name":"suspendNGOThroughGovernance","outputs":[],"stateMutability":"nonpayable","type":"function"},{"inputs":[],"name":"unpause","outputs":[],"stateMutability":"nonpayable","type":"function"},{"inputs":[{"internalType":"address","name":"newGovernanceAddress","type":"address"}],"name":"updateGovernance","outputs":[],"stateMutability":"nonpayable","type":"function"},{"inputs":[{"internalType":"uint256","name":"ngoId","type":"uint256"},{"internalType":"uint256","name":"newScore","type":"uint256"}],"name":"updateReputation","outputs":[],"stateMutability":"nonpayable","type":"function"},{"inputs":[{"internalType":"uint256","name":"ngoId","type":"uint256"},{"internalType":"uint256","name":"campaignCount","type":"uint256"},{"internalType":"uint256","name":"fundsRaised","type":"uint256"},{"internalType":"uint256","name":"beneficiaries","type":"uint256"}],"name":"updateStatistics","outputs":[],"stateMutability":"nonpayable","type":"function"},{"inputs":[],"name":"verifiedCount","outputs":[{"internalType":"uint256","name":"","type":"uint256"}],"stateMutability":"view","type":"function"},{"inputs":[{"internalType":"uint256","name":"ngoId","type":"uint256"}],"name":"verifyNGO","outputs":[],"stateMutability":"nonpayable","type":"function"},{"inputs":[{"internalType":"uint256","name":"ngoId","type":"uint256"}],"name":"verifyNGOThroughGovernance","outputs":[],"stateMutability":"nonpayable","type":"function"}],"evm":{"bytecode":{"linkReferences":{},"object":"6080346200012257601f6200271238819003918201601f19168301916001600160401b0383118484101762000127578084926020946040528339810103126200012257516001600160a01b0381169081810362000122578115620000dd5762000068336200013d565b506200007433620001bd565b5062000080336200025f565b5060078054610100600160a81b03191660089290921b610100600160a81b03169190911790556040519060007fb6713074269cb05740f6c79b4353344487f5bd8c661853fa559a1fc6b2032f868180a36123f59081620002fd8239f35b60405162461bcd60e51b815260206004820152601a60248201527f496e76616c696420676f7665726e616e636520616464726573730000000000006044820152606490fd5b600080fd5b634e487b7160e01b600052604160045260246000fd5b6001600160a01b031660008181527fad3228b676f7d3cd4284a5443f17f1962b36e491b30a40b2405849e597ba5fb5602052604081205490919060ff16620001b957818052816020526040822081835260205260408220600160ff198254161790553391600080516020620026f28339815191528180a4600190565b5090565b6001600160a01b031660008181527f7d7ffb7a348e1c6a02869081a26547b49160dd3df72d1d75a570eb9b698292ec60205260408120549091907fa49807205ce4d355092ef5a8a18f56e8913cf4a201fbe287825b095693c217759060ff166200025a57808352826020526040832082845260205260408320600160ff19825416179055600080516020620026f2833981519152339380a4600190565b505090565b6001600160a01b031660008181527f1da0b5176dfe03406af5a6eed66ca01dda9b45ac4da671c3fa379cb93717ef8160205260408120549091907f0ce23c3e399818cfee81a7ab0880f714e53d7672b08df0fa62f2843416e1ea099060ff166200025a57808352826020526040832082845260205260408320600160ff19825416179055600080516020620026f2833981519152339380a460019056fe608080604052600436101561001357600080fd5b60003560e01c90816301ffc9a714611841575080630675f7631461178b5780630e6e369c146116795780631bc3812d1461165b5780631dcf05fa146114455780631fee316d14611292578063248a9ca3146112635780632826a190146112295780632f2ff15d146111ea57806336568abe146111a35780633a1744a0146111535780633a752d9614610ffe5780633f4ba83a14610f945780634ca0901c14610edf5780634caf78a114610e175780635848a1bf14610df45780635a7f701514610dc75780635aa6e67514610d9a5780635c975abb14610d775780636bfe4ec214610d5957806375b238fc14610d1e5780637f77095b14610d075780637fa7a67c146108de5780638456cb59146108855780638f4397ff146107d9578063914cb9a1146106eb57806391d148541461069e578063a217fddf14610682578063b2561263146105bd578063b925130b146104f9578063d009f0d5146103ca578063d547741f14610389578063e7705db614610360578063fa8266f2146102125763fdc27ae6146101a057600080fd5b3461020d576101ae36611894565b906000526005602052604060002090815481101561020d576101cf91611bef565b6101f7576101df6101f391611b49565b6040519182916020835260208301906118cd565b0390f35b634e487b7160e01b600052600060045260246000fd5b600080fd5b3461020d57602036600319011261020d5760048035600090815260209190915260409020805460018201546001600160a01b03169161025360028201611b49565b61025f60038301611b49565b9161026c60048201611b49565b9261027960058301611b49565b9361028660068401611b49565b946007840154956008850154600986015460ff1691600a87015493600b88015495600c89015497600d8a015499600e015460ff169a6040519e8f9e8f908152602001528d6101e090816040820152016102de916118cd565b8d810360608f01526102ef916118cd565b8c810360808e0152610300916118cd565b8b810360a08d0152610311916118cd565b8a810360c08c0152610322916118cd565b9760e08a0152610100890152610120880161033c91611a03565b6101408701526101608601526101808501526101a084015215156101c08301520390f35b3461020d57600036600319011261020d5760206040516000805160206123a08339815191528152f35b3461020d57604036600319011261020d576103c86004356103a86119ed565b908060005260006020526103c3600160406000200154611ce1565b611d85565b005b3461020d57602036600319011261020d576004356103e6612310565b508060005260046020526104006040600020541515611f34565b60005260046020526101f3604060002060ff600e60405192610421846118f2565b8054845260018101546001600160a01b0316602085015261044460028201611b49565b604085015261045560038201611b49565b606085015261046660048201611b49565b608085015261047760058201611b49565b60a085015261048860068201611b49565b60c0850152600781015460e085015260088101546101008501526104b6836009830154166101208601611dfa565b600a810154610140850152600b810154610160850152600c810154610180850152600d8101546101a085015201541615156101c082015260405191829182611a10565b3461020d576103c861050a366119a4565b90610513611c1d565b80600052600460205280600080516020612380833981519152604060ff6105698260002061054381541515611f34565b60098101600e815492851992600484861617905501908154169055835192839116611a03565b60046020820152a26105b8603160405180947002723a790313630b1b5b634b9ba32b21d1607d1b60208301526105a881518092602086860191016118aa565b810103601181018552018361192b565b61207d565b3461020d57602036600319011261020d576105d66119d7565b6105de611c1d565b6001600160a01b0381811691821561063d5760078054610100600160a81b03198116600893841b610100600160a81b031617909155901c167fb6713074269cb05740f6c79b4353344487f5bd8c661853fa559a1fc6b2032f86600080a3005b60405162461bcd60e51b815260206004820152601a60248201527f496e76616c696420676f7665726e616e636520616464726573730000000000006044820152606490fd5b3461020d57600036600319011261020d57602060405160008152f35b3461020d57604036600319011261020d576106b76119ed565b600435600052600060205260406000209060018060a01b0316600052602052602060ff604060002054166040519015158152f35b3461020d576106f9366119a4565b610701611c1d565b81600052600460205260406000209161071c83541515611f34565b6009830180549060ff82169460058610156107c357858493600e6040936000805160206123808339815191529561075860016103c89c14612025565b600360ff198095161790550190815416905561077682518092611a03565b60036020820152a26105b8602f60405180946e02723a79039bab9b832b73232b21d1608d1b60208301526107b381518092602086860191016118aa565b810103600f81018552018361192b565b634e487b7160e01b600052602160045260246000fd5b3461020d57600036600319011261020d576107f2611c1d565b60075460ff81166108365760019060ff1916176007556040514281527f3daf1053c2e1e9e9b14d063c79438aad8fb90bd0dbad96882b48e0967c283cc960203392a2005b60405162461bcd60e51b815260206004820152602160248201527f41646d696e20766572696669636174696f6e20616c72656164792066726f7a656044820152603760f91b6064820152608490fd5b3461020d57600036600319011261020d5761089e611c1d565b6108a6611f16565b600160ff19815416176001557f62e78cea01bee320cd4e420270b5ea74000d11b0c9f74754ebdbfc544b05a2586020604051338152a1005b3461020d5760c036600319011261020d576108f76119d7565b67ffffffffffffffff60243581811161020d5761091890369060040161194d565b9160443582811161020d5761093190369060040161194d565b9260643583811161020d5761094a90369060040161194d565b9260843581811161020d5761096390369060040161194d565b9060a43590811161020d5761097c90369060040161194d565b90610985611f16565b6001600160a01b03841615610ccc576001600160a01b038416600090815260036020526040902054610c8e57825115610c5257855115610c0d57600254946000198614610bf75760018601600255604051966109e0886118f2565b60018701885260018060a01b03861660208901528460408901526060880152608087015260a086015260c08501524260e0850152600061010085015260006101208501526101f46101408501526000610160850152600061018085015260006101a085015260016101c0850152600183016000526004602052604060002093805185556001850160018060a01b036020830151166bffffffffffffffffffffffff60a01b825416179055610a9b604082015160028701611e06565b610aac606082015160038701611e06565b610abd608082015160048701611e06565b610ace60a082015160058701611e06565b610adf60c082015160068701611e06565b60e0810151600786015561010081015160088601556101208101516009860160058210156107c3576101c0600e60209860ff9384199585878354169116179055610140860151600a820155610160860151600b820155610180860151600c8201556101a0860151600d82015501930151151591835416911617905560018060a01b03821660005260038452600183016040600020557f517ecbc38f2ce54ee90641db05550423f179600eded66ddfc9a75fc47dade4f26040519285845260018060a01b03169280610bb76001870194888301906118cd565b0390a3610bec604051610bc98161190f565b600e81526d1391d3c81c9959da5cdd195c995960921b848201526001830161207d565b600160405191018152f35b634e487b7160e01b600052601160045260246000fd5b60405162461bcd60e51b815260206004820152601c60248201527f526567697374726174696f6e206e756d626572207265717569726564000000006044820152606490fd5b60405162461bcd60e51b81526020600482015260146024820152734e616d652063616e6e6f7420626520656d70747960601b6044820152606490fd5b60405162461bcd60e51b81526020600482015260166024820152751391d3c8185b1c9958591e481c9959da5cdd195c995960521b6044820152606490fd5b60405162461bcd60e51b8152602060048201526013602482015272496e76616c6964204e474f206164647265737360681b6044820152606490fd5b3461020d576103c8610d18366119a4565b9061207d565b3461020d57600036600319011261020d5760206040517fa49807205ce4d355092ef5a8a18f56e8913cf4a201fbe287825b095693c217758152f35b3461020d57600036600319011261020d576020600654604051908152f35b3461020d57600036600319011261020d57602060ff600154166040519015158152f35b3461020d57600036600319011261020d5760075460405160089190911c6001600160a01b03168152602090f35b3461020d57602036600319011261020d576020610dea610de56119d7565b6121d0565b6040519015158152f35b3461020d57600036600319011261020d57602060ff600754166040519015158152f35b3461020d57610e25366119a4565b610e2d611c97565b81600052600460205260096040600020610e4981541515611f34565b019182549260ff84169060058210156107c3576040826000805160206123808339815191529260026103c898610e80889715611f75565b60ff1916179055610e9382518092611a03565b60026020820152a26105b8602e60405180946d02723a7903932b532b1ba32b21d160951b6020830152610ecf81518092602086860191016118aa565b810103600e81018552018361192b565b3461020d57602036600319011261020d57610ef86119d7565b610f00612310565b506001600160a01b03908116600090815260036020526040902054908115610f5f576101f391600052600460205260ff600e604060002060405193610f44856118f2565b81548552600182015416602085015261044460028201611b49565b60405162461bcd60e51b815260206004820152600d60248201526c1391d3c81b9bdd08199bdd5b99609a1b6044820152606490fd5b3461020d57600036600319011261020d57610fad611c1d565b60015460ff811615610fec5760ff19166001557f5db9ee0a495bf2e6ff9c91a7834c1ba4fdd244a5e8aa4e537bd38aeae4b073aa6020604051338152a1005b604051638dfc202b60e01b8152600490fd5b3461020d57602036600319011261020d5760043561101a611c97565b80600052600460205260406000209061103582541515611f34565b600982019182549260ff84169360058510156107c3576110558515611f75565b60ff6007541661110e5760019060ff191617905560084291015560065460018101809111610bf75760008051602061238083398151915260406103c89484936006556110ca8251809233877fb5dcec940860f7557a861d42a67b0cd295a08815a1d7ec3b6f570b50581d160e600080a3611a03565b60016020820152a2604051906110df8261190f565b601882527f4e474f2076657269666965642062792076657269666965720000000000000000602083015261207d565b60405162461bcd60e51b815260206004820152601c60248201527f41646d696e20766572696669636174696f6e2069732066726f7a656e000000006044820152606490fd5b3461020d57608036600319011261020d5761116c611c1d565b6004356000526004602052604060002061118881541515611f34565b602435600b820155604435600c820155606435600d90910155005b3461020d57604036600319011261020d576111bc6119ed565b336001600160a01b038216036111d8576103c890600435611d85565b60405163334bd91960e11b8152600490fd5b3461020d57604036600319011261020d576103c86004356112096119ed565b90806000526000602052611224600160406000200154611ce1565b611d07565b3461020d57602036600319011261020d576001600160a01b0361124a6119d7565b1660005260036020526020604060002054604051908152f35b3461020d57602036600319011261020d5760043560005260006020526020600160406000200154604051908152f35b3461020d576112a0366119a4565b8160005260046020526040600020916112bb83541515611f34565b6009830180549060ff82169460058610156107c3576112dc60018714612025565b60075460405163f8b1169160e01b81523360048201529060a0908290602490829060081c6001600160a01b03165afa80156114395760c891600091611406575b50106113c1576103c8958493600e60409360008051602061238083398151915295600360ff198095161790550190815416905561135b82518092611a03565b60036020820152a26105b8604260405180947f4e474f2073757370656e646564207468726f75676820676f7665726e616e636560208301526101d160f51b60408301526113b181518092602086860191016118aa565b810103602281018552018361192b565b60405162461bcd60e51b815260206004820152601760248201527f496e73756666696369656e742072657075746174696f6e0000000000000000006044820152606490fd5b611427915060a03d8111611432575b61141f818361192b565b810190611fc1565b50505090508861131c565b503d611415565b6040513d6000823e3d90fd5b3461020d5760208060031936011261020d5760043590816000526004815260406000209161147583541515611f34565b600983019283549360ff85169460058610156107c3576114958615611f75565b60075460405163f8b1169160e01b81523360048201529060a082602481600885901c6001600160a01b03165afa91821561143957600092611634575b5060ff16156115e45760641161158e576001905b60ff191617905560084291015560065460018101809111610bf75760008051602061238083398151915260406103c895849360065561154d8251809233877fb5dcec940860f7557a861d42a67b0cd295a08815a1d7ec3b6f570b50581d160e600080a3611a03565b600186820152a27f4e474f207665726966696564207468726f75676820676f7665726e616e636500604051926115828461190f565b601f845283015261207d565b60405162461bcd60e51b815260048101869052602860248201527f476f7665726e616e63652d6f6e6c793a20696e73756666696369656e74207265604482015267383aba30ba34b7b760c11b6064820152608490fd5b906116236001926000805160206123a083398151915260005260008852604060002033600052885260ff60406000205416908115611628575b50611fe8565b6114e5565b6064915010158961161d565b60ff9192506116509060a03d81116114325761141f818361192b565b5050505091906114d1565b3461020d57600036600319011261020d576020600254604051908152f35b3461020d5760208060031936011261020d5760043580600052600482526116a66040600020541515611f34565b60005260058152604060002080549067ffffffffffffffff8211611775578290604051926116d9838260051b018561192b565b8084528284018092600052836000206000915b8383106117535750505050604051918083019381845251809452604083019360408160051b85010192916000955b8287106117275785850386f35b909192938280611743600193603f198a820301865288516118cd565b960192019601959291909261171a565b6001868192611764859a999a611b49565b8152019201920191909594956116ec565b634e487b7160e01b600052604160045260246000fd5b3461020d5761179936611894565b6117a1611c1d565b6103e881116117fd5760407f4354179fdf9899800b566a08d7963c50313ff8397ff7cdb5e87f2c1b2ce847cd91836000526004602052600a826000206117e981541515611f34565b0190808254925582519182526020820152a2005b606460405162461bcd60e51b815260206004820152602060248201527f53636f7265206d757374206265206265747765656e203020616e6420313030306044820152fd5b3461020d57602036600319011261020d576004359063ffffffff60e01b821680920361020d57602091637965db0b60e01b8114908115611883575b5015158152f35b6301ffc9a760e01b1490508361187c565b604090600319011261020d576004359060243590565b60005b8381106118bd5750506000910152565b81810151838201526020016118ad565b906020916118e6815180928185528580860191016118aa565b601f01601f1916010190565b6101e0810190811067ffffffffffffffff82111761177557604052565b6040810190811067ffffffffffffffff82111761177557604052565b90601f8019910116810190811067ffffffffffffffff82111761177557604052565b81601f8201121561020d5780359067ffffffffffffffff82116117755760405192611982601f8401601f19166020018561192b565b8284526020838301011161020d57816000926020809301838601378301015290565b90604060031983011261020d57600435916024359067ffffffffffffffff821161020d576119d49160040161194d565b90565b600435906001600160a01b038216820361020d57565b602435906001600160a01b038216820361020d57565b9060058210156107c35752565b602081528151602082015260018060a01b0360208301511660408201526040820151611aac611a4d6101e0928360608601526102008501906118cd565b611a97611a83611a6f606088015193601f1994858983030160808a01526118cd565b6080880151848883030160a08901526118cd565b60a0870151838783030160c08801526118cd565b9060c0860151908583030160e08601526118cd565b9260e081015161010090818501528101516101209081850152810151611ad86101409182860190611a03565b810151610160908185015281015161018090818501528101516101a09081850152810151906101c091828501520151151591015290565b90600182811c92168015611b3f575b6020831014611b2957565b634e487b7160e01b600052602260045260246000fd5b91607f1691611b1e565b9060405191826000825492611b5d84611b0f565b908184526001948581169081600014611bcc5750600114611b89575b5050611b879250038361192b565b565b9093915060005260209081600020936000915b818310611bb4575050611b8793508201013880611b79565b85548884018501529485019487945091830191611b9c565b915050611b8794506020925060ff191682840152151560051b8201013880611b79565b8054821015611c075760005260206000200190600090565b634e487b7160e01b600052603260045260246000fd5b3360009081527f7d7ffb7a348e1c6a02869081a26547b49160dd3df72d1d75a570eb9b698292ec60205260409020547fa49807205ce4d355092ef5a8a18f56e8913cf4a201fbe287825b095693c217759060ff1615611c795750565b6044906040519063e2517d3f60e01b82523360048301526024820152fd5b3360009081527f1da0b5176dfe03406af5a6eed66ca01dda9b45ac4da671c3fa379cb93717ef8160205260409020546000805160206123a08339815191529060ff1615611c795750565b80600052600060205260406000203360005260205260ff6040600020541615611c795750565b9060009180835282602052604083209160018060a01b03169182845260205260ff60408420541615600014611d8057808352826020526040832082845260205260408320600160ff198254161790557f2f8788117e7eff1d82e926ec794901d17c78024a50270940304540a733656f0d339380a4600190565b505090565b9060009180835282602052604083209160018060a01b03169182845260205260ff604084205416600014611d805780835282602052604083208284526020526040832060ff1981541690557ff6391f5c32d9c69d2a47ea670b442974b53935d1edc7fd64eb21e047a839171b339380a4600190565b60058210156107c35752565b919091825167ffffffffffffffff811161177557611e248254611b0f565b601f8111611ece575b50602080601f8311600114611e6a575081929394600092611e5f575b50508160011b916000199060031b1c1916179055565b015190503880611e49565b90601f198316958460005282600020926000905b888210611eb657505083600195969710611e9d575b505050811b019055565b015160001960f88460031b161c19169055388080611e93565b80600185968294968601518155019501930190611e7e565b600083815260208120601f840160051c81019260208510611f0c575b601f0160051c01915b828110611f01575050611e2d565b818155600101611ef3565b9092508290611eea565b60ff60015416611f2257565b60405163d93c066560e01b8152600490fd5b15611f3b57565b60405162461bcd60e51b81526020600482015260126024820152711391d3c8191bd95cc81b9bdd08195e1a5cdd60721b6044820152606490fd5b15611f7c57565b60405162461bcd60e51b815260206004820152601f60248201527f4e474f206973206e6f742070656e64696e6720766572696669636174696f6e006044820152606490fd5b908160a091031261020d578051916020820151916040810151916080606083015192015190565b15611fef57565b60405162461bcd60e51b815260206004820152600e60248201526d139bdd08185d5d1a1bdc9a5e995960921b6044820152606490fd5b1561202c57565b60405162461bcd60e51b815260206004820152602360248201527f4f6e6c79207665726966696564204e474f732063616e2062652073757370656e60448201526219195960ea1b6064820152608490fd5b3360009081527f7d7ffb7a348e1c6a02869081a26547b49160dd3df72d1d75a570eb9b698292ec60209081526040808320549394939192909160ff1680156121a7575b8015612188575b6120d090611fe8565b848152600483526120e5828220541515611f34565b8481526005835281812080549068010000000000000000821015612174579061211391600182018155611bef565b919091612160575083929161214c7fcb6aad3c303603614e5b103967be47573e7bf2069d6d1255e5bdad9adbf9cee19561215b93611e06565b519282849384528301906118cd565b0390a2565b634e487b7160e01b81526004819052602490fd5b634e487b7160e01b83526041600452602483fd5b5084815260048352818120600101546001600160a01b031633146120c7565b506000805160206123a08339815191528152808352818120338252835260ff82822054166120c0565b6001600160a01b03908116600090815260036020526040812054801561230a57815260046020526040812060405192612208846118f2565b81548452600182015416602084015261222360028201611b49565b604084015261223460038201611b49565b606084015261224560048201611b49565b608084015261225660058201611b49565b60a084015261226760068201611b49565b60c0840152600781015460e084015260088101546101008401526101c060ff600e816009850154169361229f61012088019586611dfa565b600a810154610140880152600b810154610160880152600c810154610180880152600d8101546101a088015201541693019215158352519060058210156122f6575060011490816122ee575090565b905051151590565b634e487b7160e01b81526021600452602490fd5b50905090565b6040519061231d826118f2565b816101c0600091828152826020820152606080604083015280808301528060808301528060a083015260c08201528260e08201528261010082015282610120820152826101408201528261016082015282610180820152826101a0820152015256fed99e1a78ee533b031a2899e363975c1b753b79485c37aa8a0c70dfd20f1478e30ce23c3e399818cfee81a7ab0880f714e53d7672b08df0fa62f2843416e1ea09a264697066735822122021f820235e4109bc26f481dd88c8b9e349938db6fed15d0f1a9121c5916209c564736f6c634300081400332f8788117e7eff1d82e926ec794901d17c78024a50270940304540a733656f0d","opcodes":"PUSH1 0x80 CALLVALUE PUSH3 0x122 JUMPI PUSH1 0x1F PUSH3 0x2712 CODESIZE DUP2 SWAP1 SUB SWAP2 DUP3 ADD PUSH1 0x1F NOT AND DUP4 ADD SWAP2 PUSH1 0x1 PUSH1 0x1 PUSH1 0x40 SHL SUB DUP4 GT DUP5 DUP5 LT OR PUSH3 0x127 JUMPI DUP1 DUP5 SWAP3 PUSH1 0x20 SWAP5 PUSH1 0x40 MSTORE DUP4 CODECOPY DUP2 ADD SUB SLT PUSH3 0x122 JUMPI MLOAD PUSH1 0x1 PUSH1 0x1 PUSH1 0xA0 SHL SUB DUP2 AND SWAP1 DUP2 DUP2 SUB PUSH3 0x122 JUMPI DUP2 ISZERO PUSH3 0xDD JUMPI PUSH3 0x68 CALLER PUSH3 0x13D JUMP JUMPDEST POP PUSH3 0x74 CALLER PUSH3 0x1BD JUMP JUMPDEST POP PUSH3 0x80 CALLER PUSH3 0x25F JUMP JUMPDEST POP PUSH1 0x7 DUP1 SLOAD PUSH2 0x100 PUSH1 0x1 PUSH1 0xA8 SHL SUB NOT AND PUSH1 0x8 SWAP3 SWAP1 SWAP3 SHL PUSH2 0x100 PUSH1 0x1 PUSH1 0xA8 SHL SUB AND SWAP2 SWAP1 SWAP2 OR SWAP1 SSTORE PUSH1 0x40 MLOAD SWAP1 PUSH1 0x0 PUSH32 0xB6713074269CB05740F6C79B4353344487F5BD8C661853FA559A1FC6B2032F86 DUP2 DUP1 LOG3 PUSH2 0x23F5 SWAP1 DUP2 PUSH3 0x2FD DUP3 CODECOPY RETURN JUMPDEST PUSH1 0x40 MLOAD PUSH3 0x461BCD PUSH1 0xE5 SHL DUP2 MSTORE PUSH1 0x20 PUSH1 0x4 DUP3 ADD MSTORE PUSH1 0x1A PUSH1 0x24 DUP3 ADD MSTORE PUSH32 0x496E76616C696420676F7665726E616E63652061646472657373000000000000 PUSH1 0x44 DUP3 ADD MSTORE PUSH1 0x64 SWAP1 REVERT JUMPDEST PUSH1 0x0 DUP1 REVERT JUMPDEST PUSH4 0x4E487B71 PUSH1 0xE0 SHL PUSH1 0x0 MSTORE PUSH1 0x41 PUSH1 0x4 MSTORE PUSH1 0x24 PUSH1 0x0 REVERT JUMPDEST PUSH1 0x1 PUSH1 0x1 PUSH1 0xA0 SHL SUB AND PUSH1 0x0 DUP2 DUP2 MSTORE PUSH32 0xAD3228B676F7D3CD4284A5443F17F1962B36E491B30A40B2405849E597BA5FB5 PUSH1 0x20 MSTORE PUSH1 0x40 DUP2 KECCAK256 SLOAD SWAP1 SWAP2 SWAP1 PUSH1 0xFF AND PUSH3 0x1B9 JUMPI DUP2 DUP1 MSTORE DUP2 PUSH1 0x20 MSTORE PUSH1 0x40 DUP3 KECCAK256 DUP2 DUP4 MSTORE PUSH1 0x20 MSTORE PUSH1 0x40 DUP3 KECCAK256 PUSH1 0x1 PUSH1 0xFF NOT DUP3 SLOAD AND OR SWAP1 SSTORE CALLER SWAP2 PUSH1 0x0 DUP1 MLOAD PUSH1 0x20 PUSH3 0x26F2 DUP4 CODECOPY DUP2 MLOAD SWAP2 MSTORE DUP2 DUP1 LOG4 PUSH1 0x1 SWAP1 JUMP JUMPDEST POP SWAP1 JUMP JUMPDEST PUSH1 0x1 PUSH1 0x1 PUSH1 0xA0 SHL SUB AND PUSH1 0x0 DUP2 DUP2 MSTORE PUSH32 0x7D7FFB7A348E1C6A02869081A26547B49160DD3DF72D1D75A570EB9B698292EC PUSH1 0x20 MSTORE PUSH1 0x40 DUP2 KECCAK256 SLOAD SWAP1 SWAP2 SWAP1 PUSH32 0xA49807205CE4D355092EF5A8A18F56E8913CF4A201FBE287825B095693C21775 SWAP1 PUSH1 0xFF AND PUSH3 0x25A JUMPI DUP1 DUP4 MSTORE DUP3 PUSH1 0x20 MSTORE PUSH1 0x40 DUP4 KECCAK256 DUP3 DUP5 MSTORE PUSH1 0x20 MSTORE PUSH1 0x40 DUP4 KECCAK256 PUSH1 0x1 PUSH1 0xFF NOT DUP3 SLOAD AND OR SWAP1 SSTORE PUSH1 0x0 DUP1 MLOAD PUSH1 0x20 PUSH3 0x26F2 DUP4 CODECOPY DUP2 MLOAD SWAP2 MSTORE CALLER SWAP4 DUP1 LOG4 PUSH1 0x1 SWAP1 JUMP JUMPDEST POP POP SWAP1 JUMP JUMPDEST PUSH1 0x1 PUSH1 0x1 PUSH1 0xA0 SHL SUB AND PUSH1 0x0 DUP2 DUP2 MSTORE PUSH32 0x1DA0B5176DFE03406AF5A6EED66CA01DDA9B45AC4DA671C3FA379CB93717EF81 PUSH1 0x20 MSTORE PUSH1 0x40 DUP2 KECCAK256 SLOAD SWAP1 SWAP2 SWAP1 PUSH32 0xCE23C3E399818CFEE81A7AB0880F714E53D7672B08DF0FA62F2843416E1EA09 SWAP1 PUSH1 0xFF AND PUSH3 0x25A JUMPI DUP1 DUP4 MSTORE DUP3 PUSH1 0x20 MSTORE PUSH1 0x40 DUP4 KECCAK256 DUP3 DUP5 MSTORE PUSH1 0x20 MSTORE PUSH1 0x40 DUP4 KECCAK256 PUSH1 0x1 PUSH1 0xFF NOT DUP3 SLOAD AND OR SWAP1 SSTORE PUSH1 0x0 DUP1 MLOAD PUSH1 0x20 PUSH3 0x26F2 DUP4 CODECOPY DUP2 MLOAD SWAP2 MSTORE CALLER SWAP4 DUP1 LOG4 PUSH1 0x1 SWAP1 JUMP INVALID PUSH1 0x80 DUP1 PUSH1 0x40 MSTORE PUSH1 0x4 CALLDATASIZE LT ISZERO PUSH2 0x13 JUMPI PUSH1 0x0 DUP1 REVERT JUMPDEST PUSH1 0x0 CALLDATALOAD PUSH1 0xE0 SHR SWAP1 DUP2 PUSH4 0x1FFC9A7 EQ PUSH2 0x1841 JUMPI POP DUP1 PUSH4 0x675F763 EQ PUSH2 0x178B JUMPI DUP1 PUSH4 0xE6E369C EQ PUSH2 0x1679 JUMPI DUP1 PUSH4 0x1BC3812D EQ PUSH2 0x165B JUMPI DUP1 PUSH4 0x1DCF05FA EQ PUSH2 0x1445 JUMPI DUP1 PUSH4 0x1FEE316D EQ PUSH2 0x1292 JUMPI DUP1 PUSH4 0x248A9CA3 EQ PUSH2 0x1263 JUMPI DUP1 PUSH4 0x2826A190 EQ PUSH2 0x1229 JUMPI DUP1 PUSH4 0x2F2FF15D EQ PUSH2 0x11EA JUMPI DUP1 PUSH4 0x36568ABE EQ PUSH2 0x11A3 JUMPI DUP1 PUSH4 0x3A1744A0 EQ PUSH2 0x1153 JUMPI DUP1 PUSH4 0x3A752D96 EQ PUSH2 0xFFE JUMPI DUP1 PUSH4 0x3F4BA83A EQ PUSH2 0xF94 JUMPI DUP1 PUSH4 0x4CA0901C EQ PUSH2 0xEDF JUMPI DUP1 PUSH4 0x4CAF78A1 EQ PUSH2 0xE17 JUMPI DUP1 PUSH4 0x5848A1BF EQ PUSH2 0xDF4 JUMPI DUP1 PUSH4 0x5A7F7015 EQ PUSH2 0xDC7 JUMPI DUP1 PUSH4 0x5AA6E675 EQ PUSH2 0xD9A JUMPI DUP1 PUSH4 0x5C975ABB EQ PUSH2 0xD77 JUMPI DUP1 PUSH4 0x6BFE4EC2 EQ PUSH2 0xD59 JUMPI DUP1 PUSH4 0x75B238FC EQ PUSH2 0xD1E JUMPI DUP1 PUSH4 0x7F77095B EQ PUSH2 0xD07 JUMPI DUP1 PUSH4 0x7FA7A67C EQ PUSH2 0x8DE JUMPI DUP1 PUSH4 0x8456CB59 EQ PUSH2 0x885 JUMPI DUP1 PUSH4 0x8F4397FF EQ PUSH2 0x7D9 JUMPI DUP1 PUSH4 0x914CB9A1 EQ PUSH2 0x6EB JUMPI DUP1 PUSH4 0x91D14854 EQ PUSH2 0x69E JUMPI DUP1 PUSH4 0xA217FDDF EQ PUSH2 0x682 JUMPI DUP1 PUSH4 0xB2561263 EQ PUSH2 0x5BD JUMPI DUP1 PUSH4 0xB925130B EQ PUSH2 0x4F9 JUMPI DUP1 PUSH4 0xD009F0D5 EQ PUSH2 0x3CA JUMPI DUP1 PUSH4 0xD547741F EQ PUSH2 0x389 JUMPI DUP1 PUSH4 0xE7705DB6 EQ PUSH2 0x360 JUMPI DUP1 PUSH4 0xFA8266F2 EQ PUSH2 0x212 JUMPI PUSH4 0xFDC27AE6 EQ PUSH2 0x1A0 JUMPI PUSH1 0x0 DUP1 REVERT JUMPDEST CALLVALUE PUSH2 0x20D JUMPI PUSH2 0x1AE CALLDATASIZE PUSH2 0x1894 JUMP JUMPDEST SWAP1 PUSH1 0x0 MSTORE PUSH1 0x5 PUSH1 0x20 MSTORE PUSH1 0x40 PUSH1 0x0 KECCAK256 SWAP1 DUP2 SLOAD DUP2 LT ISZERO PUSH2 0x20D JUMPI PUSH2 0x1CF SWAP2 PUSH2 0x1BEF JUMP JUMPDEST PUSH2 0x1F7 JUMPI PUSH2 0x1DF PUSH2 0x1F3 SWAP2 PUSH2 0x1B49 JUMP JUMPDEST PUSH1 0x40 MLOAD SWAP2 DUP3 SWAP2 PUSH1 0x20 DUP4 MSTORE PUSH1 0x20 DUP4 ADD SWAP1 PUSH2 0x18CD JUMP JUMPDEST SUB SWAP1 RETURN JUMPDEST PUSH4 0x4E487B71 PUSH1 0xE0 SHL PUSH1 0x0 MSTORE PUSH1 0x0 PUSH1 0x4 MSTORE PUSH1 0x24 PUSH1 0x0 REVERT JUMPDEST PUSH1 0x0 DUP1 REVERT JUMPDEST CALLVALUE PUSH2 0x20D JUMPI PUSH1 0x20 CALLDATASIZE PUSH1 0x3 NOT ADD SLT PUSH2 0x20D JUMPI PUSH1 0x4 DUP1 CALLDATALOAD PUSH1 0x0 SWAP1 DUP2 MSTORE PUSH1 0x20 SWAP2 SWAP1 SWAP2 MSTORE PUSH1 0x40 SWAP1 KECCAK256 DUP1 SLOAD PUSH1 0x1 DUP3 ADD SLOAD PUSH1 0x1 PUSH1 0x1 PUSH1 0xA0 SHL SUB AND SWAP2 PUSH2 0x253 PUSH1 0x2 DUP3 ADD PUSH2 0x1B49 JUMP JUMPDEST PUSH2 0x25F PUSH1 0x3 DUP4 ADD PUSH2 0x1B49 JUMP JUMPDEST SWAP2 PUSH2 0x26C PUSH1 0x4 DUP3 ADD PUSH2 0x1B49 JUMP JUMPDEST SWAP3 PUSH2 0x279 PUSH1 0x5 DUP4 ADD PUSH2 0x1B49 JUMP JUMPDEST SWAP4 PUSH2 0x286 PUSH1 0x6 DUP5 ADD PUSH2 0x1B49 JUMP JUMPDEST SWAP5 PUSH1 0x7 DUP5 ADD SLOAD SWAP6 PUSH1 0x8 DUP6 ADD SLOAD PUSH1 0x9 DUP7 ADD SLOAD PUSH1 0xFF AND SWAP2 PUSH1 0xA DUP8 ADD SLOAD SWAP4 PUSH1 0xB DUP9 ADD SLOAD SWAP6 PUSH1 0xC DUP10 ADD SLOAD SWAP8 PUSH1 0xD DUP11 ADD SLOAD SWAP10 PUSH1 0xE ADD SLOAD PUSH1 0xFF AND SWAP11 PUSH1 0x40 MLOAD SWAP15 DUP16 SWAP15 DUP16 SWAP1 DUP2 MSTORE PUSH1 0x20 ADD MSTORE DUP14 PUSH2 0x1E0 SWAP1 DUP2 PUSH1 0x40 DUP3 ADD MSTORE ADD PUSH2 0x2DE SWAP2 PUSH2 0x18CD JUMP JUMPDEST DUP14 DUP2 SUB PUSH1 0x60 DUP16 ADD MSTORE PUSH2 0x2EF SWAP2 PUSH2 0x18CD JUMP JUMPDEST DUP13 DUP2 SUB PUSH1 0x80 DUP15 ADD MSTORE PUSH2 0x300 SWAP2 PUSH2 0x18CD JUMP JUMPDEST DUP12 DUP2 SUB PUSH1 0xA0 DUP14 ADD MSTORE PUSH2 0x311 SWAP2 PUSH2 0x18CD JUMP JUMPDEST DUP11 DUP2 SUB PUSH1 0xC0 DUP13 ADD MSTORE PUSH2 0x322 SWAP2 PUSH2 0x18CD JUMP JUMPDEST SWAP8 PUSH1 0xE0 DUP11 ADD MSTORE PUSH2 0x100 DUP10 ADD MSTORE PUSH2 0x120 DUP9 ADD PUSH2 0x33C SWAP2 PUSH2 0x1A03 JUMP JUMPDEST PUSH2 0x140 DUP8 ADD MSTORE PUSH2 0x160 DUP7 ADD MSTORE PUSH2 0x180 DUP6 ADD MSTORE PUSH2 0x1A0 DUP5 ADD MSTORE ISZERO ISZERO PUSH2 0x1C0 DUP4 ADD MSTORE SUB SWAP1 RETURN JUMPDEST CALLVALUE PUSH2 0x20D JUMPI PUSH1 0x0 CALLDATASIZE PUSH1 0x3 NOT ADD SLT PUSH2 0x20D JUMPI PUSH1 0x20 PUSH1 0x40 MLOAD PUSH1 0x0 DUP1 MLOAD PUSH1 0x20 PUSH2 0x23A0 DUP4 CODECOPY DUP2 MLOAD SWAP2 MSTORE DUP2 MSTORE RETURN JUMPDEST CALLVALUE PUSH2 0x20D JUMPI PUSH1 0x40 CALLDATASIZE PUSH1 0x3 NOT ADD SLT PUSH2 0x20D JUMPI PUSH2 0x3C8 PUSH1 0x4 CALLDATALOAD PUSH2 0x3A8 PUSH2 0x19ED JUMP JUMPDEST SWAP1 DUP1 PUSH1 0x0 MSTORE PUSH1 0x0 PUSH1 0x20 MSTORE PUSH2 0x3C3 PUSH1 0x1 PUSH1 0x40 PUSH1 0x0 KECCAK256 ADD SLOAD PUSH2 0x1CE1 JUMP JUMPDEST PUSH2 0x1D85 JUMP JUMPDEST STOP JUMPDEST CALLVALUE PUSH2 0x20D JUMPI PUSH1 0x20 CALLDATASIZE PUSH1 0x3 NOT ADD SLT PUSH2 0x20D JUMPI PUSH1 0x4 CALLDATALOAD PUSH2 0x3E6 PUSH2 0x2310 JUMP JUMPDEST POP DUP1 PUSH1 0x0 MSTORE PUSH1 0x4 PUSH1 0x20 MSTORE PUSH2 0x400 PUSH1 0x40 PUSH1 0x0 KECCAK256 SLOAD ISZERO ISZERO PUSH2 0x1F34 JUMP JUMPDEST PUSH1 0x0 MSTORE PUSH1 0x4 PUSH1 0x20 MSTORE PUSH2 0x1F3 PUSH1 0x40 PUSH1 0x0 KECCAK256 PUSH1 0xFF PUSH1 0xE PUSH1 0x40 MLOAD SWAP3 PUSH2 0x421 DUP5 PUSH2 0x18F2 JUMP JUMPDEST DUP1 SLOAD DUP5 MSTORE PUSH1 0x1 DUP2 ADD SLOAD PUSH1 0x1 PUSH1 0x1 PUSH1 0xA0 SHL SUB AND PUSH1 0x20 DUP6 ADD MSTORE PUSH2 0x444 PUSH1 0x2 DUP3 ADD PUSH2 0x1B49 JUMP JUMPDEST PUSH1 0x40 DUP6 ADD MSTORE PUSH2 0x455 PUSH1 0x3 DUP3 ADD PUSH2 0x1B49 JUMP JUMPDEST PUSH1 0x60 DUP6 ADD MSTORE PUSH2 0x466 PUSH1 0x4 DUP3 ADD PUSH2 0x1B49 JUMP JUMPDEST PUSH1 0x80 DUP6 ADD MSTORE PUSH2 0x477 PUSH1 0x5 DUP3 ADD PUSH2 0x1B49 JUMP JUMPDEST PUSH1 0xA0 DUP6 ADD MSTORE PUSH2 0x488 PUSH1 0x6 DUP3 ADD PUSH2 0x1B49 JUMP JUMPDEST PUSH1 0xC0 DUP6 ADD MSTORE PUSH1 0x7 DUP2 ADD SLOAD PUSH1 0xE0 DUP6 ADD MSTORE PUSH1 0x8 DUP2 ADD SLOAD PUSH2 0x100 DUP6 ADD MSTORE PUSH2 0x4B6 DUP4 PUSH1 0x9 DUP4 ADD SLOAD AND PUSH2 0x120 DUP7 ADD PUSH2 0x1DFA JUMP JUMPDEST PUSH1 0xA DUP2 ADD SLOAD PUSH2 0x140 DUP6 ADD MSTORE PUSH1 0xB DUP2 ADD SLOAD PUSH2 0x160 DUP6 ADD MSTORE PUSH1 0xC DUP2 ADD SLOAD PUSH2 0x180 DUP6 ADD MSTORE PUSH1 0xD DUP2 ADD SLOAD PUSH2 0x1A0 DUP6 ADD MSTORE ADD SLOAD AND ISZERO ISZERO PUSH2 0x1C0 DUP3 ADD MSTORE PUSH1 0x40 MLOAD SWAP2 DUP3 SWAP2 DUP3 PUSH2 0x1A10 JUMP JUMPDEST CALLVALUE PUSH2 0x20D JUMPI PUSH2 0x3C8 PUSH2 0x50A CALLDATASIZE PUSH2 0x19A4 JUMP JUMPDEST SWAP1 PUSH2 0x513 PUSH2 0x1C1D JUMP JUMPDEST DUP1 PUSH1 0x0 MSTORE PUSH1 0x4 PUSH1 0x20 MSTORE DUP1 PUSH1 0x0 DUP1 MLOAD PUSH1 0x20 PUSH2 0x2380 DUP4 CODECOPY DUP2 MLOAD SWAP2 MSTORE PUSH1 0x40 PUSH1 0xFF PUSH2 0x569 DUP3 PUSH1 0x0 KECCAK256 PUSH2 0x543 DUP2 SLOAD ISZERO ISZERO PUSH2 0x1F34 JUMP JUMPDEST PUSH1 0x9 DUP2 ADD PUSH1 0xE DUP2 SLOAD SWAP3 DUP6 NOT SWAP3 PUSH1 0x4 DUP5 DUP7 AND OR SWAP1 SSTORE ADD SWAP1 DUP2 SLOAD AND SWAP1 SSTORE DUP4 MLOAD SWAP3 DUP4 SWAP2 AND PUSH2 0x1A03 JUMP JUMPDEST PUSH1 0x4 PUSH1 0x20 DUP3 ADD MSTORE LOG2 PUSH2 0x5B8 PUSH1 0x31 PUSH1 0x40 MLOAD DUP1 SWAP5 PUSH17 0x2723A790313630B1B5B634B9BA32B21D1 PUSH1 0x7D SHL PUSH1 0x20 DUP4 ADD MSTORE PUSH2 0x5A8 DUP2 MLOAD DUP1 SWAP3 PUSH1 0x20 DUP7 DUP7 ADD SWAP2 ADD PUSH2 0x18AA JUMP JUMPDEST DUP2 ADD SUB PUSH1 0x11 DUP2 ADD DUP6 MSTORE ADD DUP4 PUSH2 0x192B JUMP JUMPDEST PUSH2 0x207D JUMP JUMPDEST CALLVALUE PUSH2 0x20D JUMPI PUSH1 0x20 CALLDATASIZE PUSH1 0x3 NOT ADD SLT PUSH2 0x20D JUMPI PUSH2 0x5D6 PUSH2 0x19D7 JUMP JUMPDEST PUSH2 0x5DE PUSH2 0x1C1D JUMP JUMPDEST PUSH1 0x1 PUSH1 0x1 PUSH1 0xA0 SHL SUB DUP2 DUP2 AND SWAP2 DUP3 ISZERO PUSH2 0x63D JUMPI PUSH1 0x7 DUP1 SLOAD PUSH2 0x100 PUSH1 0x1 PUSH1 0xA8 SHL SUB NOT DUP2 AND PUSH1 0x8 SWAP4 DUP5 SHL PUSH2 0x100 PUSH1 0x1 PUSH1 0xA8 SHL SUB AND OR SWAP1 SWAP2 SSTORE SWAP1 SHR AND PUSH32 0xB6713074269CB05740F6C79B4353344487F5BD8C661853FA559A1FC6B2032F86 PUSH1 0x0 DUP1 LOG3 STOP JUMPDEST PUSH1 0x40 MLOAD PUSH3 0x461BCD PUSH1 0xE5 SHL DUP2 MSTORE PUSH1 0x20 PUSH1 0x4 DUP3 ADD MSTORE PUSH1 0x1A PUSH1 0x24 DUP3 ADD MSTORE PUSH32 0x496E76616C696420676F7665726E616E63652061646472657373000000000000 PUSH1 0x44 DUP3 ADD MSTORE PUSH1 0x64 SWAP1 REVERT JUMPDEST CALLVALUE PUSH2 0x20D JUMPI PUSH1 0x0 CALLDATASIZE PUSH1 0x3 NOT ADD SLT PUSH2 0x20D JUMPI PUSH1 0x20 PUSH1 0x40 MLOAD PUSH1 0x0 DUP2 MSTORE RETURN JUMPDEST CALLVALUE PUSH2 0x20D JUMPI PUSH1 0x40 CALLDATASIZE PUSH1 0x3 NOT ADD SLT PUSH2 0x20D JUMPI PUSH2 0x6B7 PUSH2 0x19ED JUMP JUMPDEST PUSH1 0x4 CALLDATALOAD PUSH1 0x0 MSTORE PUSH1 0x0 PUSH1 0x20 MSTORE PUSH1 0x40 PUSH1 0x0 KECCAK256 SWAP1 PUSH1 0x1 DUP1 PUSH1 0xA0 SHL SUB AND PUSH1 0x0 MSTORE PUSH1 0x20 MSTORE PUSH1 0x20 PUSH1 0xFF PUSH1 0x40 PUSH1 0x0 KECCAK256 SLOAD AND PUSH1 0x40 MLOAD SWAP1 ISZERO ISZERO DUP2 MSTORE RETURN JUMPDEST CALLVALUE PUSH2 0x20D JUMPI PUSH2 0x6F9 CALLDATASIZE PUSH2 0x19A4 JUMP JUMPDEST PUSH2 0x701 PUSH2 0x1C1D JUMP JUMPDEST DUP2 PUSH1 0x0 MSTORE PUSH1 0x4 PUSH1 0x20 MSTORE PUSH1 0x40 PUSH1 0x0 KECCAK256 SWAP2 PUSH2 0x71C DUP4 SLOAD ISZERO ISZERO PUSH2 0x1F34 JUMP JUMPDEST PUSH1 0x9 DUP4 ADD DUP1 SLOAD SWAP1 PUSH1 0xFF DUP3 AND SWAP5 PUSH1 0x5 DUP7 LT ISZERO PUSH2 0x7C3 JUMPI DUP6 DUP5 SWAP4 PUSH1 0xE PUSH1 0x40 SWAP4 PUSH1 0x0 DUP1 MLOAD PUSH1 0x20 PUSH2 0x2380 DUP4 CODECOPY DUP2 MLOAD SWAP2 MSTORE SWAP6 PUSH2 0x758 PUSH1 0x1 PUSH2 0x3C8 SWAP13 EQ PUSH2 0x2025 JUMP JUMPDEST PUSH1 0x3 PUSH1 0xFF NOT DUP1 SWAP6 AND OR SWAP1 SSTORE ADD SWAP1 DUP2 SLOAD AND SWAP1 SSTORE PUSH2 0x776 DUP3 MLOAD DUP1 SWAP3 PUSH2 0x1A03 JUMP JUMPDEST PUSH1 0x3 PUSH1 0x20 DUP3 ADD MSTORE LOG2 PUSH2 0x5B8 PUSH1 0x2F PUSH1 0x40 MLOAD DUP1 SWAP5 PUSH15 0x2723A79039BAB9B832B73232B21D1 PUSH1 0x8D SHL PUSH1 0x20 DUP4 ADD MSTORE PUSH2 0x7B3 DUP2 MLOAD DUP1 SWAP3 PUSH1 0x20 DUP7 DUP7 ADD SWAP2 ADD PUSH2 0x18AA JUMP JUMPDEST DUP2 ADD SUB PUSH1 0xF DUP2 ADD DUP6 MSTORE ADD DUP4 PUSH2 0x192B JUMP JUMPDEST PUSH4 0x4E487B71 PUSH1 0xE0 SHL PUSH1 0x0 MSTORE PUSH1 0x21 PUSH1 0x4 MSTORE PUSH1 0x24 PUSH1 0x0 REVERT JUMPDEST CALLVALUE PUSH2 0x20D JUMPI PUSH1 0x0 CALLDATASIZE PUSH1 0x3 NOT ADD SLT PUSH2 0x20D JUMPI PUSH2 0x7F2 PUSH2 0x1C1D JUMP JUMPDEST PUSH1 0x7 SLOAD PUSH1 0xFF DUP2 AND PUSH2 0x836 JUMPI PUSH1 0x1 SWAP1 PUSH1 0xFF NOT AND OR PUSH1 0x7 SSTORE PUSH1 0x40 MLOAD TIMESTAMP DUP2 MSTORE PUSH32 0x3DAF1053C2E1E9E9B14D063C79438AAD8FB90BD0DBAD96882B48E0967C283CC9 PUSH1 0x20 CALLER SWAP3 LOG2 STOP JUMPDEST PUSH1 0x40 MLOAD PUSH3 0x461BCD PUSH1 0xE5 SHL DUP2 MSTORE PUSH1 0x20 PUSH1 0x4 DUP3 ADD MSTORE PUSH1 0x21 PUSH1 0x24 DUP3 ADD MSTORE PUSH32 0x41646D696E20766572696669636174696F6E20616C72656164792066726F7A65 PUSH1 0x44 DUP3 ADD MSTORE PUSH1 0x37 PUSH1 0xF9 SHL PUSH1 0x64 DUP3 ADD MSTORE PUSH1 0x84 SWAP1 REVERT JUMPDEST CALLVALUE PUSH2 0x20D JUMPI PUSH1 0x0 CALLDATASIZE PUSH1 0x3 NOT ADD SLT PUSH2 0x20D JUMPI PUSH2 0x89E PUSH2 0x1C1D JUMP JUMPDEST PUSH2 0x8A6 PUSH2 0x1F16 JUMP JUMPDEST PUSH1 0x1 PUSH1 0xFF NOT DUP2 SLOAD AND OR PUSH1 0x1 SSTORE PUSH32 0x62E78CEA01BEE320CD4E420270B5EA74000D11B0C9F74754EBDBFC544B05A258 PUSH1 0x20 PUSH1 0x40 MLOAD CALLER DUP2 MSTORE LOG1 STOP JUMPDEST CALLVALUE PUSH2 0x20D JUMPI PUSH1 0xC0 CALLDATASIZE PUSH1 0x3 NOT ADD SLT PUSH2 0x20D JUMPI PUSH2 0x8F7 PUSH2 0x19D7 JUMP JUMPDEST PUSH8 0xFFFFFFFFFFFFFFFF PUSH1 0x24 CALLDATALOAD DUP2 DUP2 GT PUSH2 0x20D JUMPI PUSH2 0x918 SWAP1 CALLDATASIZE SWAP1 PUSH1 0x4 ADD PUSH2 0x194D JUMP JUMPDEST SWAP2 PUSH1 0x44 CALLDATALOAD DUP3 DUP2 GT PUSH2 0x20D JUMPI PUSH2 0x931 SWAP1 CALLDATASIZE SWAP1 PUSH1 0x4 ADD PUSH2 0x194D JUMP JUMPDEST SWAP3 PUSH1 0x64 CALLDATALOAD DUP4 DUP2 GT PUSH2 0x20D JUMPI PUSH2 0x94A SWAP1 CALLDATASIZE SWAP1 PUSH1 0x4 ADD PUSH2 0x194D JUMP JUMPDEST SWAP3 PUSH1 0x84 CALLDATALOAD DUP2 DUP2 GT PUSH2 0x20D JUMPI PUSH2 0x963 SWAP1 CALLDATASIZE SWAP1 PUSH1 0x4 ADD PUSH2 0x194D JUMP JUMPDEST SWAP1 PUSH1 0xA4 CALLDATALOAD SWAP1 DUP2 GT PUSH2 0x20D JUMPI PUSH2 0x97C SWAP1 CALLDATASIZE SWAP1 PUSH1 0x4 ADD PUSH2 0x194D JUMP JUMPDEST SWAP1 PUSH2 0x985 PUSH2 0x1F16 JUMP JUMPDEST PUSH1 0x1 PUSH1 0x1 PUSH1 0xA0 SHL SUB DUP5 AND ISZERO PUSH2 0xCCC JUMPI PUSH1 0x1 PUSH1 0x1 PUSH1 0xA0 SHL SUB DUP5 AND PUSH1 0x0 SWAP1 DUP2 MSTORE PUSH1 0x3 PUSH1 0x20 MSTORE PUSH1 0x40 SWAP1 KECCAK256 SLOAD PUSH2 0xC8E JUMPI DUP3 MLOAD ISZERO PUSH2 0xC52 JUMPI DUP6 MLOAD ISZERO PUSH2 0xC0D JUMPI PUSH1 0x2 SLOAD SWAP5 PUSH1 0x0 NOT DUP7 EQ PUSH2 0xBF7 JUMPI PUSH1 0x1 DUP7 ADD PUSH1 0x2 SSTORE PUSH1 0x40 MLOAD SWAP7 PUSH2 0x9E0 DUP9 PUSH2 0x18F2 JUMP JUMPDEST PUSH1 0x1 DUP8 ADD DUP9 MSTORE PUSH1 0x1 DUP1 PUSH1 0xA0 SHL SUB DUP7 AND PUSH1 0x20 DUP10 ADD MSTORE DUP5 PUSH1 0x40 DUP10 ADD MSTORE PUSH1 0x60 DUP9 ADD MSTORE PUSH1 0x80 DUP8 ADD MSTORE PUSH1 0xA0 DUP7 ADD MSTORE PUSH1 0xC0 DUP6 ADD MSTORE TIMESTAMP PUSH1 0xE0 DUP6 ADD MSTORE PUSH1 0x0 PUSH2 0x100 DUP6 ADD MSTORE PUSH1 0x0 PUSH2 0x120 DUP6 ADD MSTORE PUSH2 0x1F4 PUSH2 0x140 DUP6 ADD MSTORE PUSH1 0x0 PUSH2 0x160 DUP6 ADD MSTORE PUSH1 0x0 PUSH2 0x180 DUP6 ADD MSTORE PUSH1 0x0 PUSH2 0x1A0 DUP6 ADD MSTORE PUSH1 0x1 PUSH2 0x1C0 DUP6 ADD MSTORE PUSH1 0x1 DUP4 ADD PUSH1 0x0 MSTORE PUSH1 0x4 PUSH1 0x20 MSTORE PUSH1 0x40 PUSH1 0x0 KECCAK256 SWAP4 DUP1 MLOAD DUP6 SSTORE PUSH1 0x1 DUP6 ADD PUSH1 0x1 DUP1 PUSH1 0xA0 SHL SUB PUSH1 0x20 DUP4 ADD MLOAD AND PUSH12 0xFFFFFFFFFFFFFFFFFFFFFFFF PUSH1 0xA0 SHL DUP3 SLOAD AND OR SWAP1 SSTORE PUSH2 0xA9B PUSH1 0x40 DUP3 ADD MLOAD PUSH1 0x2 DUP8 ADD PUSH2 0x1E06 JUMP JUMPDEST PUSH2 0xAAC PUSH1 0x60 DUP3 ADD MLOAD PUSH1 0x3 DUP8 ADD PUSH2 0x1E06 JUMP JUMPDEST PUSH2 0xABD PUSH1 0x80 DUP3 ADD MLOAD PUSH1 0x4 DUP8 ADD PUSH2 0x1E06 JUMP JUMPDEST PUSH2 0xACE PUSH1 0xA0 DUP3 ADD MLOAD PUSH1 0x5 DUP8 ADD PUSH2 0x1E06 JUMP JUMPDEST PUSH2 0xADF PUSH1 0xC0 DUP3 ADD MLOAD PUSH1 0x6 DUP8 ADD PUSH2 0x1E06 JUMP JUMPDEST PUSH1 0xE0 DUP2 ADD MLOAD PUSH1 0x7 DUP7 ADD SSTORE PUSH2 0x100 DUP2 ADD MLOAD PUSH1 0x8 DUP7 ADD SSTORE PUSH2 0x120 DUP2 ADD MLOAD PUSH1 0x9 DUP7 ADD PUSH1 0x5 DUP3 LT ISZERO PUSH2 0x7C3 JUMPI PUSH2 0x1C0 PUSH1 0xE PUSH1 0x20 SWAP9 PUSH1 0xFF SWAP4 DUP5 NOT SWAP6 DUP6 DUP8 DUP4 SLOAD AND SWAP2 AND OR SWAP1 SSTORE PUSH2 0x140 DUP7 ADD MLOAD PUSH1 0xA DUP3 ADD SSTORE PUSH2 0x160 DUP7 ADD MLOAD PUSH1 0xB DUP3 ADD SSTORE PUSH2 0x180 DUP7 ADD MLOAD PUSH1 0xC DUP3 ADD SSTORE PUSH2 0x1A0 DUP7 ADD MLOAD PUSH1 0xD DUP3 ADD SSTORE ADD SWAP4 ADD MLOAD ISZERO ISZERO SWAP2 DUP4 SLOAD AND SWAP2 AND OR SWAP1 SSTORE PUSH1 0x1 DUP1 PUSH1 0xA0 SHL SUB DUP3 AND PUSH1 0x0 MSTORE PUSH1 0x3 DUP5 MSTORE PUSH1 0x1 DUP4 ADD PUSH1 0x40 PUSH1 0x0 KECCAK256 SSTORE PUSH32 0x517ECBC38F2CE54EE90641DB05550423F179600EDED66DDFC9A75FC47DADE4F2 PUSH1 0x40 MLOAD SWAP3 DUP6 DUP5 MSTORE PUSH1 0x1 DUP1 PUSH1 0xA0 SHL SUB AND SWAP3 DUP1 PUSH2 0xBB7 PUSH1 0x1 DUP8 ADD SWAP5 DUP9 DUP4 ADD SWAP1 PUSH2 0x18CD JUMP JUMPDEST SUB SWAP1 LOG3 PUSH2 0xBEC PUSH1 0x40 MLOAD PUSH2 0xBC9 DUP2 PUSH2 0x190F JUMP JUMPDEST PUSH1 0xE DUP2 MSTORE PUSH14 0x1391D3C81C9959DA5CDD195C9959 PUSH1 0x92 SHL DUP5 DUP3 ADD MSTORE PUSH1 0x1 DUP4 ADD PUSH2 0x207D JUMP JUMPDEST PUSH1 0x1 PUSH1 0x40 MLOAD SWAP2 ADD DUP2 MSTORE RETURN JUMPDEST PUSH4 0x4E487B71 PUSH1 0xE0 SHL PUSH1 0x0 MSTORE PUSH1 0x11 PUSH1 0x4 MSTORE PUSH1 0x24 PUSH1 0x0 REVERT JUMPDEST PUSH1 0x40 MLOAD PUSH3 0x461BCD PUSH1 0xE5 SHL DUP2 MSTORE PUSH1 0x20 PUSH1 0x4 DUP3 ADD MSTORE PUSH1 0x1C PUSH1 0x24 DUP3 ADD MSTORE PUSH32 0x526567697374726174696F6E206E756D62657220726571756972656400000000 PUSH1 0x44 DUP3 ADD MSTORE PUSH1 0x64 SWAP1 REVERT JUMPDEST PUSH1 0x40 MLOAD PUSH3 0x461BCD PUSH1 0xE5 SHL DUP2 MSTORE PUSH1 0x20 PUSH1 0x4 DUP3 ADD MSTORE PUSH1 0x14 PUSH1 0x24 DUP3 ADD MSTORE PUSH20 0x4E616D652063616E6E6F7420626520656D707479 PUSH1 0x60 SHL PUSH1 0x44 DUP3 ADD MSTORE PUSH1 0x64 SWAP1 REVERT JUMPDEST PUSH1 0x40 MLOAD PUSH3 0x461BCD PUSH1 0xE5 SHL DUP2 MSTORE PUSH1 0x20 PUSH1 0x4 DUP3 ADD MSTORE PUSH1 0x16 PUSH1 0x24 DUP3 ADD MSTORE PUSH22 0x1391D3C8185B1C9958591E481C9959DA5CDD195C9959 PUSH1 0x52 SHL PUSH1 0x44 DUP3 ADD MSTORE PUSH1 0x64 SWAP1 REVERT JUMPDEST PUSH1 0x40 MLOAD PUSH3 0x461BCD PUSH1 0xE5 SHL DUP2 MSTORE PUSH1 0x20 PUSH1 0x4 DUP3 ADD MSTORE PUSH1 0x13 PUSH1 0x24 DUP3 ADD MSTORE PUSH19 0x496E76616C6964204E474F2061646472657373 PUSH1 0x68 SHL PUSH1 0x44 DUP3 ADD MSTORE PUSH1 0x64 SWAP1 REVERT JUMPDEST CALLVALUE PUSH2 0x20D JUMPI PUSH2 0x3C8 PUSH2 0xD18 CALLDATASIZE PUSH2 0x19A4 JUMP JUMPDEST SWAP1 PUSH2 0x207D JUMP JUMPDEST CALLVALUE PUSH2 0x20D JUMPI PUSH1 0x0 CALLDATASIZE PUSH1 0x3 NOT ADD SLT PUSH2 0x20D JUMPI PUSH1 0x20 PUSH1 0x40 MLOAD PUSH32 0xA49807205CE4D355092EF5A8A18F56E8913CF4A201FBE287825B095693C21775 DUP2 MSTORE RETURN JUMPDEST CALLVALUE PUSH2 0x20D JUMPI PUSH1 0x0 CALLDATASIZE PUSH1 0x3 NOT ADD SLT PUSH2 0x20D JUMPI PUSH1 0x20 PUSH1 0x6 SLOAD PUSH1 0x40 MLOAD SWAP1 DUP2 MSTORE RETURN JUMPDEST CALLVALUE PUSH2 0x20D JUMPI PUSH1 0x0 CALLDATASIZE PUSH1 0x3 NOT ADD SLT PUSH2 0x20D JUMPI PUSH1 0x20 PUSH1 0xFF PUSH1 0x1 SLOAD AND PUSH1 0x40 MLOAD SWAP1 ISZERO ISZERO DUP2 MSTORE RETURN JUMPDEST CALLVALUE PUSH2 0x20D JUMPI PUSH1 0x0 CALLDATASIZE PUSH1 0x3 NOT ADD SLT PUSH2 0x20D JUMPI PUSH1 0x7 SLOAD PUSH1 0x40 MLOAD PUSH1 0x8 SWAP2 SWAP1 SWAP2 SHR PUSH1 0x1 PUSH1 0x1 PUSH1 0xA0 SHL SUB AND DUP2 MSTORE PUSH1 0x20 SWAP1 RETURN JUMPDEST CALLVALUE PUSH2 0x20D JUMPI PUSH1 0x20 CALLDATASIZE PUSH1 0x3 NOT ADD SLT PUSH2 0x20D JUMPI PUSH1 0x20 PUSH2 0xDEA PUSH2 0xDE5 PUSH2 0x19D7 JUMP JUMPDEST PUSH2 0x21D0 JUMP JUMPDEST PUSH1 0x40 MLOAD SWAP1 ISZERO ISZERO DUP2 MSTORE RETURN JUMPDEST CALLVALUE PUSH2 0x20D JUMPI PUSH1 0x0 CALLDATASIZE PUSH1 0x3 NOT ADD SLT PUSH2 0x20D JUMPI PUSH1 0x20 PUSH1 0xFF PUSH1 0x7 SLOAD AND PUSH1 0x40 MLOAD SWAP1 ISZERO ISZERO DUP2 MSTORE RETURN JUMPDEST CALLVALUE PUSH2 0x20D JUMPI PUSH2 0xE25 CALLDATASIZE PUSH2 0x19A4 JUMP JUMPDEST PUSH2 0xE2D PUSH2 0x1C97 JUMP JUMPDEST DUP2 PUSH1 0x0 MSTORE PUSH1 0x4 PUSH1 0x20 MSTORE PUSH1 0x9 PUSH1 0x40 PUSH1 0x0 KECCAK256 PUSH2 0xE49 DUP2 SLOAD ISZERO ISZERO PUSH2 0x1F34 JUMP JUMPDEST ADD SWAP2 DUP3 SLOAD SWAP3 PUSH1 0xFF DUP5 AND SWAP1 PUSH1 0x5 DUP3 LT ISZERO PUSH2 0x7C3 JUMPI PUSH1 0x40 DUP3 PUSH1 0x0 DUP1 MLOAD PUSH1 0x20 PUSH2 0x2380 DUP4 CODECOPY DUP2 MLOAD SWAP2 MSTORE SWAP3 PUSH1 0x2 PUSH2 0x3C8 SWAP9 PUSH2 0xE80 DUP9 SWAP8 ISZERO PUSH2 0x1F75 JUMP JUMPDEST PUSH1 0xFF NOT AND OR SWAP1 SSTORE PUSH2 0xE93 DUP3 MLOAD DUP1 SWAP3 PUSH2 0x1A03 JUMP JUMPDEST PUSH1 0x2 PUSH1 0x20 DUP3 ADD MSTORE LOG2 PUSH2 0x5B8 PUSH1 0x2E PUSH1 0x40 MLOAD DUP1 SWAP5 PUSH14 0x2723A7903932B532B1BA32B21D1 PUSH1 0x95 SHL PUSH1 0x20 DUP4 ADD MSTORE PUSH2 0xECF DUP2 MLOAD DUP1 SWAP3 PUSH1 0x20 DUP7 DUP7 ADD SWAP2 ADD PUSH2 0x18AA JUMP JUMPDEST DUP2 ADD SUB PUSH1 0xE DUP2 ADD DUP6 MSTORE ADD DUP4 PUSH2 0x192B JUMP JUMPDEST CALLVALUE PUSH2 0x20D JUMPI PUSH1 0x20 CALLDATASIZE PUSH1 0x3 NOT ADD SLT PUSH2 0x20D JUMPI PUSH2 0xEF8 PUSH2 0x19D7 JUMP JUMPDEST PUSH2 0xF00 PUSH2 0x2310 JUMP JUMPDEST POP PUSH1 0x1 PUSH1 0x1 PUSH1 0xA0 SHL SUB SWAP1 DUP2 AND PUSH1 0x0 SWAP1 DUP2 MSTORE PUSH1 0x3 PUSH1 0x20 MSTORE PUSH1 0x40 SWAP1 KECCAK256 SLOAD SWAP1 DUP2 ISZERO PUSH2 0xF5F JUMPI PUSH2 0x1F3 SWAP2 PUSH1 0x0 MSTORE PUSH1 0x4 PUSH1 0x20 MSTORE PUSH1 0xFF PUSH1 0xE PUSH1 0x40 PUSH1 0x0 KECCAK256 PUSH1 0x40 MLOAD SWAP4 PUSH2 0xF44 DUP6 PUSH2 0x18F2 JUMP JUMPDEST DUP2 SLOAD DUP6 MSTORE PUSH1 0x1 DUP3 ADD SLOAD AND PUSH1 0x20 DUP6 ADD MSTORE PUSH2 0x444 PUSH1 0x2 DUP3 ADD PUSH2 0x1B49 JUMP JUMPDEST PUSH1 0x40 MLOAD PUSH3 0x461BCD PUSH1 0xE5 SHL DUP2 MSTORE PUSH1 0x20 PUSH1 0x4 DUP3 ADD MSTORE PUSH1 0xD PUSH1 0x24 DUP3 ADD MSTORE PUSH13 0x1391D3C81B9BDD08199BDD5B99 PUSH1 0x9A SHL PUSH1 0x44 DUP3 ADD MSTORE PUSH1 0x64 SWAP1 REVERT JUMPDEST CALLVALUE PUSH2 0x20D JUMPI PUSH1 0x0 CALLDATASIZE PUSH1 0x3 NOT ADD SLT PUSH2 0x20D JUMPI PUSH2 0xFAD PUSH2 0x1C1D JUMP JUMPDEST PUSH1 0x1 SLOAD PUSH1 0xFF DUP2 AND ISZERO PUSH2 0xFEC JUMPI PUSH1 0xFF NOT AND PUSH1 0x1 SSTORE PUSH32 0x5DB9EE0A495BF2E6FF9C91A7834C1BA4FDD244A5E8AA4E537BD38AEAE4B073AA PUSH1 0x20 PUSH1 0x40 MLOAD CALLER DUP2 MSTORE LOG1 STOP JUMPDEST PUSH1 0x40 MLOAD PUSH4 0x8DFC202B PUSH1 0xE0 SHL DUP2 MSTORE PUSH1 0x4 SWAP1 REVERT JUMPDEST CALLVALUE PUSH2 0x20D JUMPI PUSH1 0x20 CALLDATASIZE PUSH1 0x3 NOT ADD SLT PUSH2 0x20D JUMPI PUSH1 0x4 CALLDATALOAD PUSH2 0x101A PUSH2 0x1C97 JUMP JUMPDEST DUP1 PUSH1 0x0 MSTORE PUSH1 0x4 PUSH1 0x20 MSTORE PUSH1 0x40 PUSH1 0x0 KECCAK256 SWAP1 PUSH2 0x1035 DUP3 SLOAD ISZERO ISZERO PUSH2 0x1F34 JUMP JUMPDEST PUSH1 0x9 DUP3 ADD SWAP2 DUP3 SLOAD SWAP3 PUSH1 0xFF DUP5 AND SWAP4 PUSH1 0x5 DUP6 LT ISZERO PUSH2 0x7C3 JUMPI PUSH2 0x1055 DUP6 ISZERO PUSH2 0x1F75 JUMP JUMPDEST PUSH1 0xFF PUSH1 0x7 SLOAD AND PUSH2 0x110E JUMPI PUSH1 0x1 SWAP1 PUSH1 0xFF NOT AND OR SWAP1 SSTORE PUSH1 0x8 TIMESTAMP SWAP2 ADD SSTORE PUSH1 0x6 SLOAD PUSH1 0x1 DUP2 ADD DUP1 SWAP2 GT PUSH2 0xBF7 JUMPI PUSH1 0x0 DUP1 MLOAD PUSH1 0x20 PUSH2 0x2380 DUP4 CODECOPY DUP2 MLOAD SWAP2 MSTORE PUSH1 0x40 PUSH2 0x3C8 SWAP5 DUP5 SWAP4 PUSH1 0x6 SSTORE PUSH2 0x10CA DUP3 MLOAD DUP1 SWAP3 CALLER DUP8 PUSH32 0xB5DCEC940860F7557A861D42A67B0CD295A08815A1D7EC3B6F570B50581D160E PUSH1 0x0 DUP1 LOG3 PUSH2 0x1A03 JUMP JUMPDEST PUSH1 0x1 PUSH1 0x20 DUP3 ADD MSTORE LOG2 PUSH1 0x40 MLOAD SWAP1 PUSH2 0x10DF DUP3 PUSH2 0x190F JUMP JUMPDEST PUSH1 0x18 DUP3 MSTORE PUSH32 0x4E474F2076657269666965642062792076657269666965720000000000000000 PUSH1 0x20 DUP4 ADD MSTORE PUSH2 0x207D JUMP JUMPDEST PUSH1 0x40 MLOAD PUSH3 0x461BCD PUSH1 0xE5 SHL DUP2 MSTORE PUSH1 0x20 PUSH1 0x4 DUP3 ADD MSTORE PUSH1 0x1C PUSH1 0x24 DUP3 ADD MSTORE PUSH32 0x41646D696E20766572696669636174696F6E2069732066726F7A656E00000000 PUSH1 0x44 DUP3 ADD MSTORE PUSH1 0x64 SWAP1 REVERT JUMPDEST CALLVALUE PUSH2 0x20D JUMPI PUSH1 0x80 CALLDATASIZE PUSH1 0x3 NOT ADD SLT PUSH2 0x20D JUMPI PUSH2 0x116C PUSH2 0x1C1D JUMP JUMPDEST PUSH1 0x4 CALLDATALOAD PUSH1 0x0 MSTORE PUSH1 0x4 PUSH1 0x20 MSTORE PUSH1 0x40 PUSH1 0x0 KECCAK256 PUSH2 0x1188 DUP2 SLOAD ISZERO ISZERO PUSH2 0x1F34 JUMP JUMPDEST PUSH1 0x24 CALLDATALOAD PUSH1 0xB DUP3 ADD SSTORE PUSH1 0x44 CALLDATALOAD PUSH1 0xC DUP3 ADD SSTORE PUSH1 0x64 CALLDATALOAD PUSH1 0xD SWAP1 SWAP2 ADD SSTORE STOP JUMPDEST CALLVALUE PUSH2 0x20D JUMPI PUSH1 0x40 CALLDATASIZE PUSH1 0x3 NOT ADD SLT PUSH2 0x20D JUMPI PUSH2 0x11BC PUSH2 0x19ED JUMP JUMPDEST CALLER PUSH1 0x1 PUSH1 0x1 PUSH1 0xA0 SHL SUB DUP3 AND SUB PUSH2 0x11D8 JUMPI PUSH2 0x3C8 SWAP1 PUSH1 0x4 CALLDATALOAD PUSH2 0x1D85 JUMP JUMPDEST PUSH1 0x40 MLOAD PUSH4 0x334BD919 PUSH1 0xE1 SHL DUP2 MSTORE PUSH1 0x4 SWAP1 REVERT JUMPDEST CALLVALUE PUSH2 0x20D JUMPI PUSH1 0x40 CALLDATASIZE PUSH1 0x3 NOT ADD SLT PUSH2 0x20D JUMPI PUSH2 0x3C8 PUSH1 0x4 CALLDATALOAD PUSH2 0x1209 PUSH2 0x19ED JUMP JUMPDEST SWAP1 DUP1 PUSH1 0x0 MSTORE PUSH1 0x0 PUSH1 0x20 MSTORE PUSH2 0x1224 PUSH1 0x1 PUSH1 0x40 PUSH1 0x0 KECCAK256 ADD SLOAD PUSH2 0x1CE1 JUMP JUMPDEST PUSH2 0x1D07 JUMP JUMPDEST CALLVALUE PUSH2 0x20D JUMPI PUSH1 0x20 CALLDATASIZE PUSH1 0x3 NOT ADD SLT PUSH2 0x20D JUMPI PUSH1 0x1 PUSH1 0x1 PUSH1 0xA0 SHL SUB PUSH2 0x124A PUSH2 0x19D7 JUMP JUMPDEST AND PUSH1 0x0 MSTORE PUSH1 0x3 PUSH1 0x20 MSTORE PUSH1 0x20 PUSH1 0x40 PUSH1 0x0 KECCAK256 SLOAD PUSH1 0x40 MLOAD SWAP1 DUP2 MSTORE RETURN JUMPDEST CALLVALUE PUSH2 0x20D JUMPI PUSH1 0x20 CALLDATASIZE PUSH1 0x3 NOT ADD SLT PUSH2 0x20D JUMPI PUSH1 0x4 CALLDATALOAD PUSH1 0x0 MSTORE PUSH1 0x0 PUSH1 0x20 MSTORE PUSH1 0x20 PUSH1 0x1 PUSH1 0x40 PUSH1 0x0 KECCAK256 ADD SLOAD PUSH1 0x40 MLOAD SWAP1 DUP2 MSTORE RETURN JUMPDEST CALLVALUE PUSH2 0x20D JUMPI PUSH2 0x12A0 CALLDATASIZE PUSH2 0x19A4 JUMP JUMPDEST DUP2 PUSH1 0x0 MSTORE PUSH1 0x4 PUSH1 0x20 MSTORE PUSH1 0x40 PUSH1 0x0 KECCAK256 SWAP2 PUSH2 0x12BB DUP4 SLOAD ISZERO ISZERO PUSH2 0x1F34 JUMP JUMPDEST PUSH1 0x9 DUP4 ADD DUP1 SLOAD SWAP1 PUSH1 0xFF DUP3 AND SWAP5 PUSH1 0x5 DUP7 LT ISZERO PUSH2 0x7C3 JUMPI PUSH2 0x12DC PUSH1 0x1 DUP8 EQ PUSH2 0x2025 JUMP JUMPDEST PUSH1 0x7 SLOAD PUSH1 0x40 MLOAD PUSH4 0xF8B11691 PUSH1 0xE0 SHL DUP2 MSTORE CALLER PUSH1 0x4 DUP3 ADD MSTORE SWAP1 PUSH1 0xA0 SWAP1 DUP3 SWAP1 PUSH1 0x24 SWAP1 DUP3 SWAP1 PUSH1 0x8 SHR PUSH1 0x1 PUSH1 0x1 PUSH1 0xA0 SHL SUB AND GAS STATICCALL DUP1 ISZERO PUSH2 0x1439 JUMPI PUSH1 0xC8 SWAP2 PUSH1 0x0 SWAP2 PUSH2 0x1406 JUMPI JUMPDEST POP LT PUSH2 0x13C1 JUMPI PUSH2 0x3C8 SWAP6 DUP5 SWAP4 PUSH1 0xE PUSH1 0x40 SWAP4 PUSH1 0x0 DUP1 MLOAD PUSH1 0x20 PUSH2 0x2380 DUP4 CODECOPY DUP2 MLOAD SWAP2 MSTORE SWAP6 PUSH1 0x3 PUSH1 0xFF NOT DUP1 SWAP6 AND OR SWAP1 SSTORE ADD SWAP1 DUP2 SLOAD AND SWAP1 SSTORE PUSH2 0x135B DUP3 MLOAD DUP1 SWAP3 PUSH2 0x1A03 JUMP JUMPDEST PUSH1 0x3 PUSH1 0x20 DUP3 ADD MSTORE LOG2 PUSH2 0x5B8 PUSH1 0x42 PUSH1 0x40 MLOAD DUP1 SWAP5 PUSH32 0x4E474F2073757370656E646564207468726F75676820676F7665726E616E6365 PUSH1 0x20 DUP4 ADD MSTORE PUSH2 0x1D1 PUSH1 0xF5 SHL PUSH1 0x40 DUP4 ADD MSTORE PUSH2 0x13B1 DUP2 MLOAD DUP1 SWAP3 PUSH1 0x20 DUP7 DUP7 ADD SWAP2 ADD PUSH2 0x18AA JUMP JUMPDEST DUP2 ADD SUB PUSH1 0x22 DUP2 ADD DUP6 MSTORE ADD DUP4 PUSH2 0x192B JUMP JUMPDEST PUSH1 0x40 MLOAD PUSH3 0x461BCD PUSH1 0xE5 SHL DUP2 MSTORE PUSH1 0x20 PUSH1 0x4 DUP3 ADD MSTORE PUSH1 0x17 PUSH1 0x24 DUP3 ADD MSTORE PUSH32 0x496E73756666696369656E742072657075746174696F6E000000000000000000 PUSH1 0x44 DUP3 ADD MSTORE PUSH1 0x64 SWAP1 REVERT JUMPDEST PUSH2 0x1427 SWAP2 POP PUSH1 0xA0 RETURNDATASIZE DUP2 GT PUSH2 0x1432 JUMPI JUMPDEST PUSH2 0x141F DUP2 DUP4 PUSH2 0x192B JUMP JUMPDEST DUP2 ADD SWAP1 PUSH2 0x1FC1 JUMP JUMPDEST POP POP POP SWAP1 POP DUP9 PUSH2 0x131C JUMP JUMPDEST POP RETURNDATASIZE PUSH2 0x1415 JUMP JUMPDEST PUSH1 0x40 MLOAD RETURNDATASIZE PUSH1 0x0 DUP3 RETURNDATACOPY RETURNDATASIZE SWAP1 REVERT JUMPDEST CALLVALUE PUSH2 0x20D JUMPI PUSH1 0x20 DUP1 PUSH1 0x3 NOT CALLDATASIZE ADD SLT PUSH2 0x20D JUMPI PUSH1 0x4 CALLDATALOAD SWAP1 DUP2 PUSH1 0x0 MSTORE PUSH1 0x4 DUP2 MSTORE PUSH1 0x40 PUSH1 0x0 KECCAK256 SWAP2 PUSH2 0x1475 DUP4 SLOAD ISZERO ISZERO PUSH2 0x1F34 JUMP JUMPDEST PUSH1 0x9 DUP4 ADD SWAP3 DUP4 SLOAD SWAP4 PUSH1 0xFF DUP6 AND SWAP5 PUSH1 0x5 DUP7 LT ISZERO PUSH2 0x7C3 JUMPI PUSH2 0x1495 DUP7 ISZERO PUSH2 0x1F75 JUMP JUMPDEST PUSH1 0x7 SLOAD PUSH1 0x40 MLOAD PUSH4 0xF8B11691 PUSH1 0xE0 SHL DUP2 MSTORE CALLER PUSH1 0x4 DUP3 ADD MSTORE SWAP1 PUSH1 0xA0 DUP3 PUSH1 0x24 DUP2 PUSH1 0x8 DUP6 SWAP1 SHR PUSH1 0x1 PUSH1 0x1 PUSH1 0xA0 SHL SUB AND GAS STATICCALL SWAP2 DUP3 ISZERO PUSH2 0x1439 JUMPI PUSH1 0x0 SWAP3 PUSH2 0x1634 JUMPI JUMPDEST POP PUSH1 0xFF AND ISZERO PUSH2 0x15E4 JUMPI PUSH1 0x64 GT PUSH2 0x158E JUMPI PUSH1 0x1 SWAP1 JUMPDEST PUSH1 0xFF NOT AND OR SWAP1 SSTORE PUSH1 0x8 TIMESTAMP SWAP2 ADD SSTORE PUSH1 0x6 SLOAD PUSH1 0x1 DUP2 ADD DUP1 SWAP2 GT PUSH2 0xBF7 JUMPI PUSH1 0x0 DUP1 MLOAD PUSH1 0x20 PUSH2 0x2380 DUP4 CODECOPY DUP2 MLOAD SWAP2 MSTORE PUSH1 0x40 PUSH2 0x3C8 SWAP6 DUP5 SWAP4 PUSH1 0x6 SSTORE PUSH2 0x154D DUP3 MLOAD DUP1 SWAP3 CALLER DUP8 PUSH32 0xB5DCEC940860F7557A861D42A67B0CD295A08815A1D7EC3B6F570B50581D160E PUSH1 0x0 DUP1 LOG3 PUSH2 0x1A03 JUMP JUMPDEST PUSH1 0x1 DUP7 DUP3 ADD MSTORE LOG2 PUSH32 0x4E474F207665726966696564207468726F75676820676F7665726E616E636500 PUSH1 0x40 MLOAD SWAP3 PUSH2 0x1582 DUP5 PUSH2 0x190F JUMP JUMPDEST PUSH1 0x1F DUP5 MSTORE DUP4 ADD MSTORE PUSH2 0x207D JUMP JUMPDEST PUSH1 0x40 MLOAD PUSH3 0x461BCD PUSH1 0xE5 SHL DUP2 MSTORE PUSH1 0x4 DUP2 ADD DUP7 SWAP1 MSTORE PUSH1 0x28 PUSH1 0x24 DUP3 ADD MSTORE PUSH32 0x476F7665726E616E63652D6F6E6C793A20696E73756666696369656E74207265 PUSH1 0x44 DUP3 ADD MSTORE PUSH8 0x383ABA30BA34B7B7 PUSH1 0xC1 SHL PUSH1 0x64 DUP3 ADD MSTORE PUSH1 0x84 SWAP1 REVERT JUMPDEST SWAP1 PUSH2 0x1623 PUSH1 0x1 SWAP3 PUSH1 0x0 DUP1 MLOAD PUSH1 0x20 PUSH2 0x23A0 DUP4 CODECOPY DUP2 MLOAD SWAP2 MSTORE PUSH1 0x0 MSTORE PUSH1 0x0 DUP9 MSTORE PUSH1 0x40 PUSH1 0x0 KECCAK256 CALLER PUSH1 0x0 MSTORE DUP9 MSTORE PUSH1 0xFF PUSH1 0x40 PUSH1 0x0 KECCAK256 SLOAD AND SWAP1 DUP2 ISZERO PUSH2 0x1628 JUMPI JUMPDEST POP PUSH2 0x1FE8 JUMP JUMPDEST PUSH2 0x14E5 JUMP JUMPDEST PUSH1 0x64 SWAP2 POP LT ISZERO DUP10 PUSH2 0x161D JUMP JUMPDEST PUSH1 0xFF SWAP2 SWAP3 POP PUSH2 0x1650 SWAP1 PUSH1 0xA0 RETURNDATASIZE DUP2 GT PUSH2 0x1432 JUMPI PUSH2 0x141F DUP2 DUP4 PUSH2 0x192B JUMP JUMPDEST POP POP POP POP SWAP2 SWAP1 PUSH2 0x14D1 JUMP JUMPDEST CALLVALUE PUSH2 0x20D JUMPI PUSH1 0x0 CALLDATASIZE PUSH1 0x3 NOT ADD SLT PUSH2 0x20D JUMPI PUSH1 0x20 PUSH1 0x2 SLOAD PUSH1 0x40 MLOAD SWAP1 DUP2 MSTORE RETURN JUMPDEST CALLVALUE PUSH2 0x20D JUMPI PUSH1 0x20 DUP1 PUSH1 0x3 NOT CALLDATASIZE ADD SLT PUSH2 0x20D JUMPI PUSH1 0x4 CALLDATALOAD DUP1 PUSH1 0x0 MSTORE PUSH1 0x4 DUP3 MSTORE PUSH2 0x16A6 PUSH1 0x40 PUSH1 0x0 KECCAK256 SLOAD ISZERO ISZERO PUSH2 0x1F34 JUMP JUMPDEST PUSH1 0x0 MSTORE PUSH1 0x5 DUP2 MSTORE PUSH1 0x40 PUSH1 0x0 KECCAK256 DUP1 SLOAD SWAP1 PUSH8 0xFFFFFFFFFFFFFFFF DUP3 GT PUSH2 0x1775 JUMPI DUP3 SWAP1 PUSH1 0x40 MLOAD SWAP3 PUSH2 0x16D9 DUP4 DUP3 PUSH1 0x5 SHL ADD DUP6 PUSH2 0x192B JUMP JUMPDEST DUP1 DUP5 MSTORE DUP3 DUP5 ADD DUP1 SWAP3 PUSH1 0x0 MSTORE DUP4 PUSH1 0x0 KECCAK256 PUSH1 0x0 SWAP2 JUMPDEST DUP4 DUP4 LT PUSH2 0x1753 JUMPI POP POP POP POP PUSH1 0x40 MLOAD SWAP2 DUP1 DUP4 ADD SWAP4 DUP2 DUP5 MSTORE MLOAD DUP1 SWAP5 MSTORE PUSH1 0x40 DUP4 ADD SWAP4 PUSH1 0x40 DUP2 PUSH1 0x5 SHL DUP6 ADD ADD SWAP3 SWAP2 PUSH1 0x0 SWAP6 JUMPDEST DUP3 DUP8 LT PUSH2 0x1727 JUMPI DUP6 DUP6 SUB DUP7 RETURN JUMPDEST SWAP1 SWAP2 SWAP3 SWAP4 DUP3 DUP1 PUSH2 0x1743 PUSH1 0x1 SWAP4 PUSH1 0x3F NOT DUP11 DUP3 SUB ADD DUP7 MSTORE DUP9 MLOAD PUSH2 0x18CD JUMP JUMPDEST SWAP7 ADD SWAP3 ADD SWAP7 ADD SWAP6 SWAP3 SWAP2 SWAP1 SWAP3 PUSH2 0x171A JUMP JUMPDEST PUSH1 0x1 DUP7 DUP2 SWAP3 PUSH2 0x1764 DUP6 SWAP11 SWAP10 SWAP11 PUSH2 0x1B49 JUMP JUMPDEST DUP2 MSTORE ADD SWAP3 ADD SWAP3 ADD SWAP2 SWAP1 SWAP6 SWAP5 SWAP6 PUSH2 0x16EC JUMP JUMPDEST PUSH4 0x4E487B71 PUSH1 0xE0 SHL PUSH1 0x0 MSTORE PUSH1 0x41 PUSH1 0x4 MSTORE PUSH1 0x24 PUSH1 0x0 REVERT JUMPDEST CALLVALUE PUSH2 0x20D JUMPI PUSH2 0x1799 CALLDATASIZE PUSH2 0x1894 JUMP JUMPDEST PUSH2 0x17A1 PUSH2 0x1C1D JUMP JUMPDEST PUSH2 0x3E8 DUP2 GT PUSH2 0x17FD JUMPI PUSH1 0x40 PUSH32 0x4354179FDF9899800B566A08D7963C50313FF8397FF7CDB5E87F2C1B2CE847CD SWAP2 DUP4 PUSH1 0x0 MSTORE PUSH1 0x4 PUSH1 0x20 MSTORE PUSH1 0xA DUP3 PUSH1 0x0 KECCAK256 PUSH2 0x17E9 DUP2 SLOAD ISZERO ISZERO PUSH2 0x1F34 JUMP JUMPDEST ADD SWAP1 DUP1 DUP3 SLOAD SWAP3 SSTORE DUP3 MLOAD SWAP2 DUP3 MSTORE PUSH1 0x20 DUP3 ADD MSTORE LOG2 STOP JUMPDEST PUSH1 0x64 PUSH1 0x40 MLOAD PUSH3 0x461BCD PUSH1 0xE5 SHL DUP2 MSTORE PUSH1 0x20 PUSH1 0x4 DUP3 ADD MSTORE PUSH1 0x20 PUSH1 0x24 DUP3 ADD MSTORE PUSH32 0x53636F7265206D757374206265206265747765656E203020616E642031303030 PUSH1 0x44 DUP3 ADD MSTORE REVERT JUMPDEST CALLVALUE PUSH2 0x20D JUMPI PUSH1 0x20 CALLDATASIZE PUSH1 0x3 NOT ADD SLT PUSH2 0x20D JUMPI PUSH1 0x4 CALLDATALOAD SWAP1 PUSH4 0xFFFFFFFF PUSH1 0xE0 SHL DUP3 AND DUP1 SWAP3 SUB PUSH2 0x20D JUMPI PUSH1 0x20 SWAP2 PUSH4 0x7965DB0B PUSH1 0xE0 SHL DUP2 EQ SWAP1 DUP2 ISZERO PUSH2 0x1883 JUMPI JUMPDEST POP ISZERO ISZERO DUP2 MSTORE RETURN JUMPDEST PUSH4 0x1FFC9A7 PUSH1 0xE0 SHL EQ SWAP1 POP DUP4 PUSH2 0x187C JUMP JUMPDEST PUSH1 0x40 SWAP1 PUSH1 0x3 NOT ADD SLT PUSH2 0x20D JUMPI PUSH1 0x4 CALLDATALOAD SWAP1 PUSH1 0x24 CALLDATALOAD SWAP1 JUMP JUMPDEST PUSH1 0x0 JUMPDEST DUP4 DUP2 LT PUSH2 0x18BD JUMPI POP POP PUSH1 0x0 SWAP2 ADD MSTORE JUMP JUMPDEST DUP2 DUP2 ADD MLOAD DUP4 DUP3 ADD MSTORE PUSH1 0x20 ADD PUSH2 0x18AD JUMP JUMPDEST SWAP1 PUSH1 0x20 SWAP2 PUSH2 0x18E6 DUP2 MLOAD DUP1 SWAP3 DUP2 DUP6 MSTORE DUP6 DUP1 DUP7 ADD SWAP2 ADD PUSH2 0x18AA JUMP JUMPDEST PUSH1 0x1F ADD PUSH1 0x1F NOT AND ADD ADD SWAP1 JUMP JUMPDEST PUSH2 0x1E0 DUP2 ADD SWAP1 DUP2 LT PUSH8 0xFFFFFFFFFFFFFFFF DUP3 GT OR PUSH2 0x1775 JUMPI PUSH1 0x40 MSTORE JUMP JUMPDEST PUSH1 0x40 DUP2 ADD SWAP1 DUP2 LT PUSH8 0xFFFFFFFFFFFFFFFF DUP3 GT OR PUSH2 0x1775 JUMPI PUSH1 0x40 MSTORE JUMP JUMPDEST SWAP1 PUSH1 0x1F DUP1 NOT SWAP2 ADD AND DUP2 ADD SWAP1 DUP2 LT PUSH8 0xFFFFFFFFFFFFFFFF DUP3 GT OR PUSH2 0x1775 JUMPI PUSH1 0x40 MSTORE JUMP JUMPDEST DUP2 PUSH1 0x1F DUP3 ADD SLT ISZERO PUSH2 0x20D JUMPI DUP1 CALLDATALOAD SWAP1 PUSH8 0xFFFFFFFFFFFFFFFF DUP3 GT PUSH2 0x1775 JUMPI PUSH1 0x40 MLOAD SWAP3 PUSH2 0x1982 PUSH1 0x1F DUP5 ADD PUSH1 0x1F NOT AND PUSH1 0x20 ADD DUP6 PUSH2 0x192B JUMP JUMPDEST DUP3 DUP5 MSTORE PUSH1 0x20 DUP4 DUP4 ADD ADD GT PUSH2 0x20D JUMPI DUP2 PUSH1 0x0 SWAP3 PUSH1 0x20 DUP1 SWAP4 ADD DUP4 DUP7 ADD CALLDATACOPY DUP4 ADD ADD MSTORE SWAP1 JUMP JUMPDEST SWAP1 PUSH1 0x40 PUSH1 0x3 NOT DUP4 ADD SLT PUSH2 0x20D JUMPI PUSH1 0x4 CALLDATALOAD SWAP2 PUSH1 0x24 CALLDATALOAD SWAP1 PUSH8 0xFFFFFFFFFFFFFFFF DUP3 GT PUSH2 0x20D JUMPI PUSH2 0x19D4 SWAP2 PUSH1 0x4 ADD PUSH2 0x194D JUMP JUMPDEST SWAP1 JUMP JUMPDEST PUSH1 0x4 CALLDATALOAD SWAP1 PUSH1 0x1 PUSH1 0x1 PUSH1 0xA0 SHL SUB DUP3 AND DUP3 SUB PUSH2 0x20D JUMPI JUMP JUMPDEST PUSH1 0x24 CALLDATALOAD SWAP1 PUSH1 0x1 PUSH1 0x1 PUSH1 0xA0 SHL SUB DUP3 AND DUP3 SUB PUSH2 0x20D JUMPI JUMP JUMPDEST SWAP1 PUSH1 0x5 DUP3 LT ISZERO PUSH2 0x7C3 JUMPI MSTORE JUMP JUMPDEST PUSH1 0x20 DUP2 MSTORE DUP2 MLOAD PUSH1 0x20 DUP3 ADD MSTORE PUSH1 0x1 DUP1 PUSH1 0xA0 SHL SUB PUSH1 0x20 DUP4 ADD MLOAD AND PUSH1 0x40 DUP3 ADD MSTORE PUSH1 0x40 DUP3 ADD MLOAD PUSH2 0x1AAC PUSH2 0x1A4D PUSH2 0x1E0 SWAP3 DUP4 PUSH1 0x60 DUP7 ADD MSTORE PUSH2 0x200 DUP6 ADD SWAP1 PUSH2 0x18CD JUMP JUMPDEST PUSH2 0x1A97 PUSH2 0x1A83 PUSH2 0x1A6F PUSH1 0x60 DUP9 ADD MLOAD SWAP4 PUSH1 0x1F NOT SWAP5 DUP6 DUP10 DUP4 SUB ADD PUSH1 0x80 DUP11 ADD MSTORE PUSH2 0x18CD JUMP JUMPDEST PUSH1 0x80 DUP9 ADD MLOAD DUP5 DUP9 DUP4 SUB ADD PUSH1 0xA0 DUP10 ADD MSTORE PUSH2 0x18CD JUMP JUMPDEST PUSH1 0xA0 DUP8 ADD MLOAD DUP4 DUP8 DUP4 SUB ADD PUSH1 0xC0 DUP9 ADD MSTORE PUSH2 0x18CD JUMP JUMPDEST SWAP1 PUSH1 0xC0 DUP7 ADD MLOAD SWAP1 DUP6 DUP4 SUB ADD PUSH1 0xE0 DUP7 ADD MSTORE PUSH2 0x18CD JUMP JUMPDEST SWAP3 PUSH1 0xE0 DUP2 ADD MLOAD PUSH2 0x100 SWAP1 DUP2 DUP6 ADD MSTORE DUP2 ADD MLOAD PUSH2 0x120 SWAP1 DUP2 DUP6 ADD MSTORE DUP2 ADD MLOAD PUSH2 0x1AD8 PUSH2 0x140 SWAP2 DUP3 DUP7 ADD SWAP1 PUSH2 0x1A03 JUMP JUMPDEST DUP2 ADD MLOAD PUSH2 0x160 SWAP1 DUP2 DUP6 ADD MSTORE DUP2 ADD MLOAD PUSH2 0x180 SWAP1 DUP2 DUP6 ADD MSTORE DUP2 ADD MLOAD PUSH2 0x1A0 SWAP1 DUP2 DUP6 ADD MSTORE DUP2 ADD MLOAD SWAP1 PUSH2 0x1C0 SWAP2 DUP3 DUP6 ADD MSTORE ADD MLOAD ISZERO ISZERO SWAP2 ADD MSTORE SWAP1 JUMP JUMPDEST SWAP1 PUSH1 0x1 DUP3 DUP2 SHR SWAP3 AND DUP1 ISZERO PUSH2 0x1B3F JUMPI JUMPDEST PUSH1 0x20 DUP4 LT EQ PUSH2 0x1B29 JUMPI JUMP JUMPDEST PUSH4 0x4E487B71 PUSH1 0xE0 SHL PUSH1 0x0 MSTORE PUSH1 0x22 PUSH1 0x4 MSTORE PUSH1 0x24 PUSH1 0x0 REVERT JUMPDEST SWAP2 PUSH1 0x7F AND SWAP2 PUSH2 0x1B1E JUMP JUMPDEST SWAP1 PUSH1 0x40 MLOAD SWAP2 DUP3 PUSH1 0x0 DUP3 SLOAD SWAP3 PUSH2 0x1B5D DUP5 PUSH2 0x1B0F JUMP JUMPDEST SWAP1 DUP2 DUP5 MSTORE PUSH1 0x1 SWAP5 DUP6 DUP2 AND SWAP1 DUP2 PUSH1 0x0 EQ PUSH2 0x1BCC JUMPI POP PUSH1 0x1 EQ PUSH2 0x1B89 JUMPI JUMPDEST POP POP PUSH2 0x1B87 SWAP3 POP SUB DUP4 PUSH2 0x192B JUMP JUMPDEST JUMP JUMPDEST SWAP1 SWAP4 SWAP2 POP PUSH1 0x0 MSTORE PUSH1 0x20 SWAP1 DUP2 PUSH1 0x0 KECCAK256 SWAP4 PUSH1 0x0 SWAP2 JUMPDEST DUP2 DUP4 LT PUSH2 0x1BB4 JUMPI POP POP PUSH2 0x1B87 SWAP4 POP DUP3 ADD ADD CODESIZE DUP1 PUSH2 0x1B79 JUMP JUMPDEST DUP6 SLOAD DUP9 DUP5 ADD DUP6 ADD MSTORE SWAP5 DUP6 ADD SWAP5 DUP8 SWAP5 POP SWAP2 DUP4 ADD SWAP2 PUSH2 0x1B9C JUMP JUMPDEST SWAP2 POP POP PUSH2 0x1B87 SWAP5 POP PUSH1 0x20 SWAP3 POP PUSH1 0xFF NOT AND DUP3 DUP5 ADD MSTORE ISZERO ISZERO PUSH1 0x5 SHL DUP3 ADD ADD CODESIZE DUP1 PUSH2 0x1B79 JUMP JUMPDEST DUP1 SLOAD DUP3 LT ISZERO PUSH2 0x1C07 JUMPI PUSH1 0x0 MSTORE PUSH1 0x20 PUSH1 0x0 KECCAK256 ADD SWAP1 PUSH1 0x0 SWAP1 JUMP JUMPDEST PUSH4 0x4E487B71 PUSH1 0xE0 SHL PUSH1 0x0 MSTORE PUSH1 0x32 PUSH1 0x4 MSTORE PUSH1 0x24 PUSH1 0x0 REVERT JUMPDEST CALLER PUSH1 0x0 SWAP1 DUP2 MSTORE PUSH32 0x7D7FFB7A348E1C6A02869081A26547B49160DD3DF72D1D75A570EB9B698292EC PUSH1 0x20 MSTORE PUSH1 0x40 SWAP1 KECCAK256 SLOAD PUSH32 0xA49807205CE4D355092EF5A8A18F56E8913CF4A201FBE287825B095693C21775 SWAP1 PUSH1 0xFF AND ISZERO PUSH2 0x1C79 JUMPI POP JUMP JUMPDEST PUSH1 0x44 SWAP1 PUSH1 0x40 MLOAD SWAP1 PUSH4 0xE2517D3F PUSH1 0xE0 SHL DUP3 MSTORE CALLER PUSH1 0x4 DUP4 ADD MSTORE PUSH1 0x24 DUP3 ADD MSTORE REVERT JUMPDEST CALLER PUSH1 0x0 SWAP1 DUP2 MSTORE PUSH32 0x1DA0B5176DFE03406AF5A6EED66CA01DDA9B45AC4DA671C3FA379CB93717EF81 PUSH1 0x20 MSTORE PUSH1 0x40 SWAP1 KECCAK256 SLOAD PUSH1 0x0 DUP1 MLOAD PUSH1 0x20 PUSH2 0x23A0 DUP4 CODECOPY DUP2 MLOAD SWAP2 MSTORE SWAP1 PUSH1 0xFF AND ISZERO PUSH2 0x1C79 JUMPI POP JUMP JUMPDEST DUP1 PUSH1 0x0 MSTORE PUSH1 0x0 PUSH1 0x20 MSTORE PUSH1 0x40 PUSH1 0x0 KECCAK256 CALLER PUSH1 0x0 MSTORE PUSH1 0x20 MSTORE PUSH1 0xFF PUSH1 0x40 PUSH1 0x0 KECCAK256 SLOAD AND ISZERO PUSH2 0x1C79 JUMPI POP JUMP JUMPDEST SWAP1 PUSH1 0x0 SWAP2 DUP1 DUP4 MSTORE DUP3 PUSH1 0x20 MSTORE PUSH1 0x40 DUP4 KECCAK256 SWAP2 PUSH1 0x1 DUP1 PUSH1 0xA0 SHL SUB AND SWAP2 DUP3 DUP5 MSTORE PUSH1 0x20 MSTORE PUSH1 0xFF PUSH1 0x40 DUP5 KECCAK256 SLOAD AND ISZERO PUSH1 0x0 EQ PUSH2 0x1D80 JUMPI DUP1 DUP4 MSTORE DUP3 PUSH1 0x20 MSTORE PUSH1 0x40 DUP4 KECCAK256 DUP3 DUP5 MSTORE PUSH1 0x20 MSTORE PUSH1 0x40 DUP4 KECCAK256 PUSH1 0x1 PUSH1 0xFF NOT DUP3 SLOAD AND OR SWAP1 SSTORE PUSH32 0x2F8788117E7EFF1D82E926EC794901D17C78024A50270940304540A733656F0D CALLER SWAP4 DUP1 LOG4 PUSH1 0x1 SWAP1 JUMP JUMPDEST POP POP SWAP1 JUMP JUMPDEST SWAP1 PUSH1 0x0 SWAP2 DUP1 DUP4 MSTORE DUP3 PUSH1 0x20 MSTORE PUSH1 0x40 DUP4 KECCAK256 SWAP2 PUSH1 0x1 DUP1 PUSH1 0xA0 SHL SUB AND SWAP2 DUP3 DUP5 MSTORE PUSH1 0x20 MSTORE PUSH1 0xFF PUSH1 0x40 DUP5 KECCAK256 SLOAD AND PUSH1 0x0 EQ PUSH2 0x1D80 JUMPI DUP1 DUP4 MSTORE DUP3 PUSH1 0x20 MSTORE PUSH1 0x40 DUP4 KECCAK256 DUP3 DUP5 MSTORE PUSH1 0x20 MSTORE PUSH1 0x40 DUP4 KECCAK256 PUSH1 0xFF NOT DUP2 SLOAD AND SWAP1 SSTORE PUSH32 0xF6391F5C32D9C69D2A47EA670B442974B53935D1EDC7FD64EB21E047A839171B CALLER SWAP4 DUP1 LOG4 PUSH1 0x1 SWAP1 JUMP JUMPDEST PUSH1 0x5 DUP3 LT ISZERO PUSH2 0x7C3 JUMPI MSTORE JUMP JUMPDEST SWAP2 SWAP1 SWAP2 DUP3 MLOAD PUSH8 0xFFFFFFFFFFFFFFFF DUP2 GT PUSH2 0x1775 JUMPI PUSH2 0x1E24 DUP3 SLOAD PUSH2 0x1B0F JUMP JUMPDEST PUSH1 0x1F DUP2 GT PUSH2 0x1ECE JUMPI JUMPDEST POP PUSH1 0x20 DUP1 PUSH1 0x1F DUP4 GT PUSH1 0x1 EQ PUSH2 0x1E6A JUMPI POP DUP2 SWAP3 SWAP4 SWAP5 PUSH1 0x0 SWAP3 PUSH2 0x1E5F JUMPI JUMPDEST POP POP DUP2 PUSH1 0x1 SHL SWAP2 PUSH1 0x0 NOT SWAP1 PUSH1 0x3 SHL SHR NOT AND OR SWAP1 SSTORE JUMP JUMPDEST ADD MLOAD SWAP1 POP CODESIZE DUP1 PUSH2 0x1E49 JUMP JUMPDEST SWAP1 PUSH1 0x1F NOT DUP4 AND SWAP6 DUP5 PUSH1 0x0 MSTORE DUP3 PUSH1 0x0 KECCAK256 SWAP3 PUSH1 0x0 SWAP1 JUMPDEST DUP9 DUP3 LT PUSH2 0x1EB6 JUMPI POP POP DUP4 PUSH1 0x1 SWAP6 SWAP7 SWAP8 LT PUSH2 0x1E9D JUMPI JUMPDEST POP POP POP DUP2 SHL ADD SWAP1 SSTORE JUMP JUMPDEST ADD MLOAD PUSH1 0x0 NOT PUSH1 0xF8 DUP5 PUSH1 0x3 SHL AND SHR NOT AND SWAP1 SSTORE CODESIZE DUP1 DUP1 PUSH2 0x1E93 JUMP JUMPDEST DUP1 PUSH1 0x1 DUP6 SWAP7 DUP3 SWAP5 SWAP7 DUP7 ADD MLOAD DUP2 SSTORE ADD SWAP6 ADD SWAP4 ADD SWAP1 PUSH2 0x1E7E JUMP JUMPDEST PUSH1 0x0 DUP4 DUP2 MSTORE PUSH1 0x20 DUP2 KECCAK256 PUSH1 0x1F DUP5 ADD PUSH1 0x5 SHR DUP2 ADD SWAP3 PUSH1 0x20 DUP6 LT PUSH2 0x1F0C JUMPI JUMPDEST PUSH1 0x1F ADD PUSH1 0x5 SHR ADD SWAP2 JUMPDEST DUP3 DUP2 LT PUSH2 0x1F01 JUMPI POP POP PUSH2 0x1E2D JUMP JUMPDEST DUP2 DUP2 SSTORE PUSH1 0x1 ADD PUSH2 0x1EF3 JUMP JUMPDEST SWAP1 SWAP3 POP DUP3 SWAP1 PUSH2 0x1EEA JUMP JUMPDEST PUSH1 0xFF PUSH1 0x1 SLOAD AND PUSH2 0x1F22 JUMPI JUMP JUMPDEST PUSH1 0x40 MLOAD PUSH4 0xD93C0665 PUSH1 0xE0 SHL DUP2 MSTORE PUSH1 0x4 SWAP1 REVERT JUMPDEST ISZERO PUSH2 0x1F3B JUMPI JUMP JUMPDEST PUSH1 0x40 MLOAD PUSH3 0x461BCD PUSH1 0xE5 SHL DUP2 MSTORE PUSH1 0x20 PUSH1 0x4 DUP3 ADD MSTORE PUSH1 0x12 PUSH1 0x24 DUP3 ADD MSTORE PUSH18 0x1391D3C8191BD95CC81B9BDD08195E1A5CDD PUSH1 0x72 SHL PUSH1 0x44 DUP3 ADD MSTORE PUSH1 0x64 SWAP1 REVERT JUMPDEST ISZERO PUSH2 0x1F7C JUMPI JUMP JUMPDEST PUSH1 0x40 MLOAD PUSH3 0x461BCD PUSH1 0xE5 SHL DUP2 MSTORE PUSH1 0x20 PUSH1 0x4 DUP3 ADD MSTORE PUSH1 0x1F PUSH1 0x24 DUP3 ADD MSTORE PUSH32 0x4E474F206973206E6F742070656E64696E6720766572696669636174696F6E00 PUSH1 0x44 DUP3 ADD MSTORE PUSH1 0x64 SWAP1 REVERT JUMPDEST SWAP1 DUP2 PUSH1 0xA0 SWAP2 SUB SLT PUSH2 0x20D JUMPI DUP1 MLOAD SWAP2 PUSH1 0x20 DUP3 ADD MLOAD SWAP2 PUSH1 0x40 DUP2 ADD MLOAD SWAP2 PUSH1 0x80 PUSH1 0x60 DUP4 ADD MLOAD SWAP3 ADD MLOAD SWAP1 JUMP JUMPDEST ISZERO PUSH2 0x1FEF JUMPI JUMP JUMPDEST PUSH1 0x40 MLOAD PUSH3 0x461BCD PUSH1 0xE5 SHL DUP2 MSTORE PUSH1 0x20 PUSH1 0x4 DUP3 ADD MSTORE PUSH1 0xE PUSH1 0x24 DUP3 ADD MSTORE PUSH14 0x139BDD08185D5D1A1BDC9A5E9959 PUSH1 0x92 SHL PUSH1 0x44 DUP3 ADD MSTORE PUSH1 0x64 SWAP1 REVERT JUMPDEST ISZERO PUSH2 0x202C JUMPI JUMP JUMPDEST PUSH1 0x40 MLOAD PUSH3 0x461BCD PUSH1 0xE5 SHL DUP2 MSTORE PUSH1 0x20 PUSH1 0x4 DUP3 ADD MSTORE PUSH1 0x23 PUSH1 0x24 DUP3 ADD MSTORE PUSH32 0x4F6E6C79207665726966696564204E474F732063616E2062652073757370656E PUSH1 0x44 DUP3 ADD MSTORE PUSH3 0x191959 PUSH1 0xEA SHL PUSH1 0x64 DUP3 ADD MSTORE PUSH1 0x84 SWAP1 REVERT JUMPDEST CALLER PUSH1 0x0 SWAP1 DUP2 MSTORE PUSH32 0x7D7FFB7A348E1C6A02869081A26547B49160DD3DF72D1D75A570EB9B698292EC PUSH1 0x20 SWAP1 DUP2 MSTORE PUSH1 0x40 DUP1 DUP4 KECCAK256 SLOAD SWAP4 SWAP5 SWAP4 SWAP2 SWAP3 SWAP1 SWAP2 PUSH1 0xFF AND DUP1 ISZERO PUSH2 0x21A7 JUMPI JUMPDEST DUP1 ISZERO PUSH2 0x2188 JUMPI JUMPDEST PUSH2 0x20D0 SWAP1 PUSH2 0x1FE8 JUMP JUMPDEST DUP5 DUP2 MSTORE PUSH1 0x4 DUP4 MSTORE PUSH2 0x20E5 DUP3 DUP3 KECCAK256 SLOAD ISZERO ISZERO PUSH2 0x1F34 JUMP JUMPDEST DUP5 DUP2 MSTORE PUSH1 0x5 DUP4 MSTORE DUP2 DUP2 KECCAK256 DUP1 SLOAD SWAP1 PUSH9 0x10000000000000000 DUP3 LT ISZERO PUSH2 0x2174 JUMPI SWAP1 PUSH2 0x2113 SWAP2 PUSH1 0x1 DUP3 ADD DUP2 SSTORE PUSH2 0x1BEF JUMP JUMPDEST SWAP2 SWAP1 SWAP2 PUSH2 0x2160 JUMPI POP DUP4 SWAP3 SWAP2 PUSH2 0x214C PUSH32 0xCB6AAD3C303603614E5B103967BE47573E7BF2069D6D1255E5BDAD9ADBF9CEE1 SWAP6 PUSH2 0x215B SWAP4 PUSH2 0x1E06 JUMP JUMPDEST MLOAD SWAP3 DUP3 DUP5 SWAP4 DUP5 MSTORE DUP4 ADD SWAP1 PUSH2 0x18CD JUMP JUMPDEST SUB SWAP1 LOG2 JUMP JUMPDEST PUSH4 0x4E487B71 PUSH1 0xE0 SHL DUP2 MSTORE PUSH1 0x4 DUP2 SWAP1 MSTORE PUSH1 0x24 SWAP1 REVERT JUMPDEST PUSH4 0x4E487B71 PUSH1 0xE0 SHL DUP4 MSTORE PUSH1 0x41 PUSH1 0x4 MSTORE PUSH1 0x24 DUP4 REVERT JUMPDEST POP DUP5 DUP2 MSTORE PUSH1 0x4 DUP4 MSTORE DUP2 DUP2 KECCAK256 PUSH1 0x1 ADD SLOAD PUSH1 0x1 PUSH1 0x1 PUSH1 0xA0 SHL SUB AND CALLER EQ PUSH2 0x20C7 JUMP JUMPDEST POP PUSH1 0x0 DUP1 MLOAD PUSH1 0x20 PUSH2 0x23A0 DUP4 CODECOPY DUP2 MLOAD SWAP2 MSTORE DUP2 MSTORE DUP1 DUP4 MSTORE DUP2 DUP2 KECCAK256 CALLER DUP3 MSTORE DUP4 MSTORE PUSH1 0xFF DUP3 DUP3 KECCAK256 SLOAD AND PUSH2 0x20C0 JUMP JUMPDEST PUSH1 0x1 PUSH1 0x1 PUSH1 0xA0 SHL SUB SWAP1 DUP2 AND PUSH1 0x0 SWAP1 DUP2 MSTORE PUSH1 0x3 PUSH1 0x20 MSTORE PUSH1 0x40 DUP2 KECCAK256 SLOAD DUP1 ISZERO PUSH2 0x230A JUMPI DUP2 MSTORE PUSH1 0x4 PUSH1 0x20 MSTORE PUSH1 0x40 DUP2 KECCAK256 PUSH1 0x40 MLOAD SWAP3 PUSH2 0x2208 DUP5 PUSH2 0x18F2 JUMP JUMPDEST DUP2 SLOAD DUP5 MSTORE PUSH1 0x1 DUP3 ADD SLOAD AND PUSH1 0x20 DUP5 ADD MSTORE PUSH2 0x2223 PUSH1 0x2 DUP3 ADD PUSH2 0x1B49 JUMP JUMPDEST PUSH1 0x40 DUP5 ADD MSTORE PUSH2 0x2234 PUSH1 0x3 DUP3 ADD PUSH2 0x1B49 JUMP JUMPDEST PUSH1 0x60 DUP5 ADD MSTORE PUSH2 0x2245 PUSH1 0x4 DUP3 ADD PUSH2 0x1B49 JUMP JUMPDEST PUSH1 0x80 DUP5 ADD MSTORE PUSH2 0x2256 PUSH1 0x5 DUP3 ADD PUSH2 0x1B49 JUMP JUMPDEST PUSH1 0xA0 DUP5 ADD MSTORE PUSH2 0x2267 PUSH1 0x6 DUP3 ADD PUSH2 0x1B49 JUMP JUMPDEST PUSH1 0xC0 DUP5 ADD MSTORE PUSH1 0x7 DUP2 ADD SLOAD PUSH1 0xE0 DUP5 ADD MSTORE PUSH1 0x8 DUP2 ADD SLOAD PUSH2 0x100 DUP5 ADD MSTORE PUSH2 0x1C0 PUSH1 0xFF PUSH1 0xE DUP2 PUSH1 0x9 DUP6 ADD SLOAD AND SWAP4 PUSH2 0x229F PUSH2 0x120 DUP9 ADD SWAP6 DUP7 PUSH2 0x1DFA JUMP JUMPDEST PUSH1 0xA DUP2 ADD SLOAD PUSH2 0x140 DUP9 ADD MSTORE PUSH1 0xB DUP2 ADD SLOAD PUSH2 0x160 DUP9 ADD MSTORE PUSH1 0xC DUP2 ADD SLOAD PUSH2 0x180 DUP9 ADD MSTORE PUSH1 0xD DUP2 ADD SLOAD PUSH2 0x1A0 DUP9 ADD MSTORE ADD SLOAD AND SWAP4 ADD SWAP3 ISZERO ISZERO DUP4 MSTORE MLOAD SWAP1 PUSH1 0x5 DUP3 LT ISZERO PUSH2 0x22F6 JUMPI POP PUSH1 0x1 EQ SWAP1 DUP2 PUSH2 0x22EE JUMPI POP SWAP1 JUMP JUMPDEST SWAP1 POP MLOAD ISZERO ISZERO SWAP1 JUMP JUMPDEST PUSH4 0x4E487B71 PUSH1 0xE0 SHL DUP2 MSTORE PUSH1 0x21 PUSH1 0x4 MSTORE PUSH1 0x24 SWAP1 REVERT JUMPDEST POP SWAP1 POP SWAP1 JUMP JUMPDEST PUSH1 0x40 MLOAD SWAP1 PUSH2 0x231D DUP3 PUSH2 0x18F2 JUMP JUMPDEST DUP2 PUSH2 0x1C0 PUSH1 0x0 SWAP2 DUP3 DUP2 MSTORE DUP3 PUSH1 0x20 DUP3 ADD MSTORE PUSH1 0x60 DUP1 PUSH1 0x40 DUP4 ADD MSTORE DUP1 DUP1 DUP4 ADD MSTORE DUP1 PUSH1 0x80 DUP4 ADD MSTORE DUP1 PUSH1 0xA0 DUP4 ADD MSTORE PUSH1 0xC0 DUP3 ADD MSTORE DUP3 PUSH1 0xE0 DUP3 ADD MSTORE DUP3 PUSH2 0x100 DUP3 ADD MSTORE DUP3 PUSH2 0x120 DUP3 ADD MSTORE DUP3 PUSH2 0x140 DUP3 ADD MSTORE DUP3 PUSH2 0x160 DUP3 ADD MSTORE DUP3 PUSH2 0x180 DUP3 ADD MSTORE DUP3 PUSH2 0x1A0 DUP3 ADD MSTORE ADD MSTORE JUMP INVALID 0xD9 SWAP15 BYTE PUSH25 0xEE533B031A2899E363975C1B753B79485C37AA8A0C70DFD20F EQ PUSH25 0xE30CE23C3E399818CFEE81A7AB0880F714E53D7672B08DF0FA PUSH3 0xF28434 AND 0xE1 0xEA MULMOD LOG2 PUSH5 0x6970667358 0x22 SLT KECCAK256 0x21 0xF8 KECCAK256 0x23 0x5E COINBASE MULMOD 0xBC 0x26 DELEGATECALL DUP2 0xDD DUP9 0xC8 0xB9 0xE3 0x49 SWAP4 DUP14 0xB6 INVALID 0xD1 0x5D 0xF BYTE SWAP2 0x21 0xC5 SWAP2 PUSH3 0x9C564 PUSH20 0x6F6C634300081400332F8788117E7EFF1D82E926 0xEC PUSH26 0x4901D17C78024A50270940304540A733656F0D00000000000000 "},"methodIdentifiers":{"ADMIN_ROLE()":"75b238fc","DEFAULT_ADMIN_ROLE()":"a217fddf","VERIFIER_ROLE()":"e7705db6","addressToNgoId(address)":"2826a190","adminVerificationFrozen()":"5848a1bf","blacklistNGO(uint256,string)":"b925130b","freezeAdminVerification()":"8f4397ff","getActivityLogs(uint256)":"0e6e369c","getNGOByAddress(address)":"4ca0901c","getNGOById(uint256)":"d009f0d5","getRoleAdmin(bytes32)":"248a9ca3","getTotalNGOs()":"1bc3812d","governance()":"5aa6e675","grantRole(bytes32,address)":"2f2ff15d","hasRole(bytes32,address)":"91d14854","isNGOVerified(address)":"5a7f7015","logActivity(uint256,string)":"7f77095b","ngoActivityLogs(uint256,uint256)":"fdc27ae6","ngos(uint256)":"fa8266f2","pause()":"8456cb59","paused()":"5c975abb","registerNGO(address,string,string,string,string,string)":"7fa7a67c","rejectNGO(uint256,string)":"4caf78a1","renounceRole(bytes32,address)":"36568abe","revokeRole(bytes32,address)":"d547741f","supportsInterface(bytes4)":"01ffc9a7","suspendNGO(uint256,string)":"914cb9a1","suspendNGOThroughGovernance(uint256,string)":"1fee316d","unpause()":"3f4ba83a","updateGovernance(address)":"b2561263","updateReputation(uint256,uint256)":"0675f763","updateStatistics(uint256,uint256,uint256,uint256)":"3a1744a0","verifiedCount()":"6bfe4ec2","verifyNGO(uint256)":"3a752d96","verifyNGOThroughGovernance(uint256)":"1dcf05fa"}}}}}