{"contracts/NGOGovernance.sol":{"NGOGovernance":{"abi":[{"inputs":[],"stateMutability":"nonpayable","type":"constructor"},{"inputs":[],"name":"AccessControlBadConfirmation","type":"error"},{"inputs":[{"internalType":"address","name":"account","type":"address"},{"internalType":"bytes32","name":"neededRole","type":"bytes32"}],"name":"AccessControlUnauthorizedAccount","type":"error"},{"inputs":[],"name":"ReentrancyGuardReentrantCall","type":"error"},{"anonymous":false,"inputs":[{"indexed":true,"internalType":"uint256","name":"ngoId","type":"uint256"},{"indexed":true,"internalType":"uint256","name":"proposalId","type":"uint256"},{"indexed":true,"internalType":"address","name":"challenger","type":"address"}],"name":"NGOChallenged","type":"event"},{"anonymous":false,"inputs":[{"indexed":true,"internalType":"uint256","name":"proposalId","type":"uint256"},{"indexed":true,"internalType":"uint256","name":"ngoId","type":"uint256"},{"indexed":false,"internalType":"enum NGOGovernance.ProposalType","name":"proposalType","type":"uint8"},{"indexed":true,"internalType":"address","name":"proposer","type":"address"},{"indexed":false,"internalType":"string","name":"description","type":"string"}],"name":"ProposalCreated","type":"event"},{"anonymous":false,"inputs":[{"indexed":true,"internalType":"uint256","name":"proposalId","type":"uint256"},{"indexed":false,"internalType":"bool","name":"verified","type":"bool"},{"indexed":false,"internalType":"string","name":"reason","type":"string"}],"name":"ProposalExecuted","type":"event"},{"anonymous":false,"inputs":[{"indexed":true,"internalType":"address","name":"user","type":"address"},{"indexed":false,"internalType":"uint256","name":"oldScore","type":"uint256"},{"indexed":false,"internalType":"uint256","name":"newScore","type":"uint256"}],"name":"ReputationUpdated","type":"event"},{"anonymous":false,"inputs":[{"indexed":true,"internalType":"bytes32","name":"role","type":"bytes32"},{"indexed":true,"internalType":"bytes32","name":"previousAdminRole","type":"bytes32"},{"indexed":true,"internalType":"bytes32","name":"newAdminRole","type":"bytes32"}],"name":"RoleAdminChanged","type":"event"},{"anonymous":false,"inputs":[{"indexed":true,"internalType":"bytes32","name":"role","type":"bytes32"},{"indexed":true,"internalType":"address","name":"account","type":"address"},{"indexed":true,"internalType":"address","name":"sender","type":"address"}],"name":"RoleGranted","type":"event"},{"anonymous":false,"inputs":[{"indexed":true,"internalType":"bytes32","name":"role","type":"bytes32"},{"indexed":true,"internalType":"address","name":"account","type":"address"},{"indexed":true,"internalType":"address","name":"sender","type":"address"}],"name":"RoleRevoked","type":"event"},{"anonymous":false,"inputs":[{"indexed":true,"internalType":"uint256","name":"proposalId","type":"uint256"},{"indexed":true,"internalType":"address","name":"voter","type":"address"},{"indexed":false,"internalType":"enum NGOGovernance.VoteType","name":"voteType","type":"uint8"},{"indexed":false,"internalType":"uint256","name":"votingPower","type":"uint256"}],"name":"VoteCast","type":"event"},{"inputs":[],"name":"ADMIN_ROLE","outputs":[{"internalType":"bytes32","name":"","type":"bytes32"}],"stateMutability":"view","type":"function"},{"inputs":[],"name":"DEFAULT_ADMIN_ROLE","outputs":[{"internalType":"bytes32","name":"","type":"bytes32"}],"stateMutability":"view","type":"function"},{"inputs":[],"name":"MIN_REPUTATION_TO_VOTE","outputs":[{"internalType":"uint256","name":"","type":"uint256"}],"stateMutability":"view","type":"function"},{"inputs":[],"name":"REPUTATION_CHANGE_PER_VOTE","outputs":[{"internalType":"uint256","name":"","type":"uint256"}],"stateMutability":"view","type":"function"},{"inputs":[],"name":"VERIFIER_ROLE","outputs":[{"internalType":"bytes32","name":"","type":"bytes32"}],"stateMutability":"view","type":"function"},{"inputs":[],"name":"VOTE_WEIGHT_BASE","outputs":[{"internalType":"uint256","name":"","type":"uint256"}],"stateMutability":"view","type":"function"},{"inputs":[],"name":"VOTING_DURATION","outputs":[{"internalType":"uint256","name":"","type":"uint256"}],"stateMutability":"view","type":"function"},{"inputs":[{"internalType":"uint256","name":"","type":"uint256"}],"name":"allProposalIds","outputs":[{"internalType":"uint256","name":"","type":"uint256"}],"stateMutability":"view","type":"function"},{"inputs":[{"internalType":"address","name":"user","type":"address"},{"internalType":"uint256","name":"proposalId","type":"uint256"}],"name":"canVote","outputs":[{"internalType":"bool","name":"","type":"bool"}],"stateMutability":"view","type":"function"},{"inputs":[{"internalType":"uint256","name":"proposalId","type":"uint256"},{"internalType":"enum NGOGovernance.VoteType","name":"voteType","type":"uint8"}],"name":"castVote","outputs":[],"stateMutability":"nonpayable","type":"function"},{"inputs":[{"internalType":"uint256","name":"ngoId","type":"uint256"},{"internalType":"string","name":"description","type":"string"},{"internalType":"string","name":"evidenceHash","type":"string"}],"name":"challengeNGO","outputs":[{"internalType":"uint256","name":"","type":"uint256"}],"stateMutability":"nonpayable","type":"function"},{"inputs":[{"internalType":"uint256","name":"ngoId","type":"uint256"},{"internalType":"string","name":"description","type":"string"},{"internalType":"string","name":"evidenceHash","type":"string"}],"name":"createVerificationProposal","outputs":[{"internalType":"uint256","name":"","type":"uint256"}],"stateMutability":"nonpayable","type":"function"},{"inputs":[{"internalType":"uint256","name":"proposalId","type":"uint256"}],"name":"executeProposal","outputs":[],"stateMutability":"nonpayable","type":"function"},{"inputs":[],"name":"getAllProposalIds","outputs":[{"internalType":"uint256[]","name":"","type":"uint256[]"}],"stateMutability":"view","type":"function"},{"inputs":[{"internalType":"uint256","name":"proposalId","type":"uint256"}],"name":"getProposal","outputs":[{"internalType":"uint256","name":"ngoId","type":"uint256"},{"internalType":"enum NGOGovernance.ProposalType","name":"proposalType","type":"uint8"},{"internalType":"address","name":"proposer","type":"address"},{"internalType":"string","name":"description","type":"string"},{"internalType":"uint256","name":"startTime","type":"uint256"},{"internalType":"uint256","name":"endTime","type":"uint256"},{"internalType":"uint256","name":"upvotes","type":"uint256"},{"internalType":"uint256","name":"downvotes","type":"uint256"},{"internalType":"bool","name":"executed","type":"bool"}],"stateMutability":"view","type":"function"},{"inputs":[{"internalType":"bytes32","name":"role","type":"bytes32"}],"name":"getRoleAdmin","outputs":[{"internalType":"bytes32","name":"","type":"bytes32"}],"stateMutability":"view","type":"function"},{"inputs":[{"internalType":"address","name":"user","type":"address"}],"name":"getUserReputation","outputs":[{"internalType":"uint256","name":"score","type":"uint256"},{"internalType":"uint256","name":"totalProposals","type":"uint256"},{"internalType":"uint256","name":"successfulVerifications","type":"uint256"},{"internalType":"uint256","name":"successfulChallenges","type":"uint256"},{"internalType":"uint256","name":"lastActivity","type":"uint256"}],"stateMutability":"view","type":"function"},{"inputs":[{"internalType":"bytes32","name":"role","type":"bytes32"},{"internalType":"address","name":"account","type":"address"}],"name":"grantRole","outputs":[],"stateMutability":"nonpayable","type":"function"},{"inputs":[{"internalType":"bytes32","name":"role","type":"bytes32"},{"internalType":"address","name":"account","type":"address"}],"name":"hasRole","outputs":[{"internalType":"bool","name":"","type":"bool"}],"stateMutability":"view","type":"function"},{"inputs":[{"internalType":"address","name":"","type":"address"}],"name":"hasVotedOnProposal","outputs":[{"internalType":"bool","name":"","type":"bool"}],"stateMutability":"view","type":"function"},{"inputs":[{"internalType":"address","name":"user","type":"address"}],"name":"initializeReputation","outputs":[],"stateMutability":"nonpayable","type":"function"},{"inputs":[{"internalType":"uint256","name":"","type":"uint256"},{"internalType":"uint256","name":"","type":"uint256"}],"name":"ngoChallenges","outputs":[{"internalType":"uint256","name":"","type":"uint256"}],"stateMutability":"view","type":"function"},{"inputs":[{"internalType":"uint256","name":"","type":"uint256"}],"name":"ngoVerificationProposals","outputs":[{"internalType":"uint256","name":"","type":"uint256"}],"stateMutability":"view","type":"function"},{"inputs":[{"internalType":"uint256","name":"","type":"uint256"}],"name":"proposals","outputs":[{"internalType":"uint256","name":"proposalId","type":"uint256"},{"internalType":"uint256","name":"ngoId","type":"uint256"},{"internalType":"enum NGOGovernance.ProposalType","name":"proposalType","type":"uint8"},{"internalType":"address","name":"proposer","type":"address"},{"internalType":"string","name":"description","type":"string"},{"internalType":"string","name":"evidenceHash","type":"string"},{"internalType":"uint256","name":"startTime","type":"uint256"},{"internalType":"uint256","name":"endTime","type":"uint256"},{"internalType":"uint256","name":"upvotes","type":"uint256"},{"internalType":"uint256","name":"downvotes","type":"uint256"},{"internalType":"uint256","name":"totalVotingPower","type":"uint256"},{"internalType":"bool","name":"executed","type":"bool"}],"stateMutability":"view","type":"function"},{"inputs":[{"internalType":"bytes32","name":"role","type":"bytes32"},{"internalType":"address","name":"callerConfirmation","type":"address"}],"name":"renounceRole","outputs":[],"stateMutability":"nonpayable","type":"function"},{"inputs":[{"internalType":"bytes32","name":"role","type":"bytes32"},{"internalType":"address","name":"account","type":"address"}],"name":"revokeRole","outputs":[],"stateMutability":"nonpayable","type":"function"},{"inputs":[{"internalType":"bytes4","name":"interfaceId","type":"bytes4"}],"name":"supportsInterface","outputs":[{"internalType":"bool","name":"","type":"bool"}],"stateMutability":"view","type":"function"},{"inputs":[{"internalType":"address","name":"_ngoRegistry","type":"address"}],"name":"updateNgoRegistry","outputs":[],"stateMutability":"nonpayable","type":"function"},{"inputs":[{"internalType":"address","name":"","type":"address"}],"name":"userReputations","outputs":[{"internalType":"uint256","name":"score","type":"uint256"},{"internalType":"uint256","name":"totalProposals","type":"uint256"},{"internalType":"uint256","name":"successfulVerifications","type":"uint256"},{"internalType":"uint256","name":"successfulChallenges","type":"uint256"},{"internalType":"uint256","name":"lastActivity","type":"uint256"}],"stateMutability":"view","type":"function"}],"evm":{"bytecode":{"linkReferences":{},"object":"60806040523461002657600180556100163361002b565b50604051611f4f90816100bc8239f35b600080fd5b6001600160a01b031660008181527fad3228b676f7d3cd4284a5443f17f1962b36e491b30a40b2405849e597ba5fb5602052604081205490919060ff166100b757818052816020526040822081835260205260408220600160ff1982541617905533917f2f8788117e7eff1d82e926ec794901d17c78024a50270940304540a733656f0d8180a4600190565b509056fe6080604052600436101561001257600080fd5b60003560e01c8063013cf08b146118a457806301ffc9a71461184e57806308c08400146107655780630d61b5191461154f578063176ce8d71461152357806319eb8d48146114f2578063248a9ca3146114c35780632f2ff15d1461148457806336568abe1461143d5780634a542b8f14610f485780635678138814610d005780635a462a201461076a5780635df3920714610765578063755303441461074957806375b238fc1461070e5780637bb27c111461062b5780637f80be75146105ec5780638ec98877146105a557806391d148541461055857806399ffb682146104e2578063a217fddf146104c6578063a438d208146104a8578063baccbfdb14610416578063c7f758a81461035d578063c97bfe6b1461030c578063d547741f146102cb578063e7705db614610290578063efa90d36146101da5763f8b116911461015b57600080fd5b346101d55760203660031901126101d5576001600160a01b0361017c611b65565b166000526003602052604060002080546101d16001830154926002810154906004600382015491015491604051958695869192608093969594919660a084019784526020840152604083015260608201520152565b0390f35b600080fd5b346101d55760003660031901126101d557604051806007548083526020809301809160076000527fa66cc928b5edb82af9bd49922954155ab7b0942694bea4ce44661d9a8736c6889060005b8682821061027c57868661023c82880383611a21565b604051928392818401908285525180915260408401929160005b82811061026557505050500390f35b835185528695509381019392810192600101610256565b835485529093019260019283019201610226565b346101d55760003660031901126101d55760206040517f0ce23c3e399818cfee81a7ab0880f714e53d7672b08df0fa62f2843416e1ea098152f35b346101d55760403660031901126101d55761030a6004356102ea611b7b565b90806000526000602052610305600160406000200154611cda565b611d7e565b005b346101d55760203660031901126101d5576004356007548110156101d55760209060076000527fa66cc928b5edb82af9bd49922954155ab7b0942694bea4ce44661d9a8736c6880154604051908152f35b346101d55760203660031901126101d557600435600052600260205260406000206001810154600282015460ff81169260058101549160068201546007830154906103f56008850154936103bb600360ff600a890154169701611a43565b90604051998a998a526103cd81611ae9565b60208a015260081c6001600160a01b0316604089015261012060608901819052880190611b09565b94608087015260a086015260c085015260e084015215156101008301520390f35b346101d55760203660031901126101d5576001600160a01b03610437611b65565b166000526003602052604060002060405190610452826119cd565b80548083526001820154602080850182905260028401546040808701829052600386015460608089018290526004909701546080988901819052825196875293860194909452840152928201529182015260a090f35b346101d55760003660031901126101d557602060405162093a808152f35b346101d55760003660031901126101d557602060405160008152f35b346101d55760203660031901126101d5576104fb611b65565b610503611c60565b6001600160a01b03161561051357005b60405162461bcd60e51b815260206004820152601c60248201527f496e76616c6964204e474f2072656769737472792061646472657373000000006044820152606490fd5b346101d55760403660031901126101d557610571611b7b565b600435600052600060205260406000209060018060a01b0316600052602052602060ff604060002054166040519015158152f35b346101d55760403660031901126101d5576024356004356000526005602052604060002080548210156101d5576020916105de91611c32565b90546040519160031b1c8152f35b346101d55760203660031901126101d5576001600160a01b0361060d611b65565b166000526006602052602060ff604060002054166040519015158152f35b346101d55760203660031901126101d557610644611b65565b61064c611c60565b6001600160a01b03166000818152600360205260409020546106c957600460405191610677836119cd565b6101f48352602083016000815260408401600081526060850191600083526080860193428552600052600360205260406000209551865551600186015551600285015551600384015551910155600080f35b60405162461bcd60e51b815260206004820152601e60248201527f52657075746174696f6e20616c726561647920696e697469616c697a656400006044820152606490fd5b346101d55760003660031901126101d55760206040517fa49807205ce4d355092ef5a8a18f56e8913cf4a201fbe287825b095693c217758152f35b346101d55760003660031901126101d5576020604051600a8152f35b611b49565b346101d55761077836611be8565b610783929192611e77565b33600052600360205261079e60646040600020541015611df3565b6107a9600854611e3f565b60088181556000828152600260208190526040909120838155600180820187905591810180546001600160a81b0319163390941b610100600160a81b0316939093179091179091559091845167ffffffffffffffff8111610b5d576108116003840154611993565b601f8111610cb9575b50806020601f8211600114610c4c57600091610c41575b508160011b916000199060031b1c19161760038301555b80519067ffffffffffffffff8211610b5d5781906108696004850154611993565b601f8111610beb575b50602090601f8311600114610b7e57600092610b73575b50508160011b916000199060031b1c19161760048201555b42600582015562093a80420190814211610ade57600601558160005260056020526040600020805468010000000000000000811015610b5d576108e991600182018155611c32565b81549060031b9083821b91600019901b191617905580600052600260205260406000209260068401544211610b2957600b8401336000528060205260ff60406000205416610af457336000526003602052604060002060405161094b816119cd565b608060048354938484526001810154602085015260028101546040850152600381015460608501520154910152606481029080820460641490151715610ade576020956103e860099204926002604051916109a5836119e9565b600183528983016001815260408401908782526060850192600a8452336000528c526109e5604060002095511515869060ff801983541691151516179055565b516109ef81611ae9565b6109f881611ae9565b61ff0085549160081b169061ff0019161784555160018401555191015560088101610a24848254611e6a565b905501610a32828254611e6a565b9055604051906001825285820152827fb83d25c6a5d258561330739951487acb4bd09ba5190b5d32c4f261817d90679260403393a382827f013b23f04f3ebda1dfa81d7178b32b76c4bf35879a70c233d0a9251c24bd3df96040516001815260408882015280610aa733966040830190611b09565b0390a4604051918133917fa4851481bc6d2b72cb014bc82ce7233c00d978bda88cec8b29027757180d1ee7600080a4600180558152f35b634e487b7160e01b600052601160045260246000fd5b60405162461bcd60e51b815260206004820152600d60248201526c105b1c9958591e481d9bdd1959609a1b6044820152606490fd5b60405162461bcd60e51b815260206004820152600c60248201526b159bdd1a5b99c8195b99195960a21b6044820152606490fd5b634e487b7160e01b600052604160045260246000fd5b015190508680610889565b600485016000908152602081209350601f198516905b818110610bd35750908460019594939210610bba575b505050811b0160048201556108a1565b015160001960f88460031b161c19169055868080610baa565b92936020600181928786015181550195019301610b94565b909150600484016000526020600020601f840160051c81019160208510610c37575b90601f859493920160051c01905b818110610c285750610872565b60008155849350600101610c1b565b9091508190610c0d565b905086015187610831565b91506003840160005260206000206000925b601f1983168410610ca1576001935082601f19811610610c88575b5050811b016003830155610848565b88015160001960f88460031b161c191690558780610c79565b88810151825560209384019360019092019101610c5e565b600384016000526020600020601f830160051c810160208410610cf9575b601f830160051c82018110610ced57505061081a565b60008155600101610cd7565b5080610cd7565b346101d55760403660031901126101d55760243560043560028210156101d557610d28611e77565b33600052602060038152610d4460646040600020541015611df3565b816000526002815260406000209060068201544211610f1557600b8201913360005282825260ff60406000205416610ee0573360005260038252604060002090604051610d90816119cd565b6080600484549485845260018101548785015260028101546040850152600381015460608501520154910152606482029180830460641490151715610ade576103e86009920493600260405191610de6836119e9565b60018352858301610df68a611ae9565b89815260408401908882526060850192600a8452336000528852610e2e604060002095511515869060ff801983541691151516179055565b51610e3881611ae9565b610e4181611ae9565b61ff0085549160081b169061ff00191617845551600184015551910155610e6786611ae9565b85610eca5760078101610e7b858254611e6a565b90555b01610e8a838254611e6a565b905560405193610e9981611ae9565b84528301527fb83d25c6a5d258561330739951487acb4bd09ba5190b5d32c4f261817d90679260403393a360018055005b60088101610ed9858254611e6a565b9055610e7e565b60405162461bcd60e51b815260048101839052600d60248201526c105b1c9958591e481d9bdd1959609a1b6044820152606490fd5b6064906040519062461bcd60e51b82526004820152600c60248201526b159bdd1a5b99c8195b99195960a21b6044820152fd5b346101d557610f5636611be8565b90610f5f611e77565b8260005260046020526040600020546113f857336000526003602052610f8d60646040600020541015611df3565b610f98600854611e3f565b600881815560008281526002602081905260409091208381556001810187905590810180546001600160a81b0319163390931b610100600160a81b0316929092179091559092825167ffffffffffffffff8111610b5d57610ffc6003840154611993565b601f81116113b1575b50806020601f821160011461134457600091611339575b508160011b916000199060031b1c19161760038301555b80519067ffffffffffffffff8211610b5d5781906110546004850154611993565b601f81116112e3575b50602090601f83116001146112765760009261126b575b50508160011b916000199060031b1c19161760048201555b42600582015562093a80420190814211610ade57600601558260005260046020528160406000205581600052600260205260406000209260068401544211610b2957600b8401336000528060205260ff60406000205416610af4573360005260036020526040600020604051611101816119cd565b608060048354938484526001810154602085015260028101546040850152600381015460608501520154910152606481029080820460641490151715610ade576020956103e8600992049260026040519161115b836119e9565b600183528983016000815260408401908782526060850192600a8452336000528c5261119b604060002095511515869060ff801983541691151516179055565b516111a581611ae9565b6111ae81611ae9565b61ff0085549160081b169061ff00191617845551600184015551910155600781016111da848254611e6a565b9055016111e8828254611e6a565b9055604051906000825285820152837fb83d25c6a5d258561330739951487acb4bd09ba5190b5d32c4f261817d90679260403393a3827f013b23f04f3ebda1dfa81d7178b32b76c4bf35879a70c233d0a9251c24bd3df9604051600081526040878201528061125c33966040830190611b09565b0390a460018055604051908152f35b015190508680611074565b600485016000908152602081209350601f198516905b8181106112cb57509084600195949392106112b2575b505050811b01600482015561108c565b015160001960f88460031b161c191690558680806112a2565b9293602060018192878601518155019501930161128c565b909150600484016000526020600020601f840160051c8101916020851061132f575b90601f859493920160051c01905b818110611320575061105d565b60008155849350600101611313565b9091508190611305565b90508401518761101c565b91506003840160005260206000206000925b601f1983168410611399576001935082601f19811610611380575b5050811b016003830155611033565b86015160001960f88460031b161c191690558780611371565b86810151825560209384019360019092019101611356565b600384016000526020600020601f830160051c8101602084106113f1575b601f830160051c820181106113e5575050611005565b600081556001016113cf565b50806113cf565b60405162461bcd60e51b815260206004820152601760248201527f50726f706f73616c20616c7265616479206578697374730000000000000000006044820152606490fd5b346101d55760403660031901126101d557611456611b7b565b336001600160a01b038216036114725761030a90600435611d7e565b60405163334bd91960e11b8152600490fd5b346101d55760403660031901126101d55761030a6004356114a3611b7b565b908060005260006020526114be600160406000200154611cda565b611d00565b346101d55760203660031901126101d55760043560005260006020526020600160406000200154604051908152f35b346101d55760403660031901126101d5576020611519611510611b65565b60243590611e9a565b6040519015158152f35b346101d55760203660031901126101d55760043560005260046020526020604060002054604051908152f35b346101d5576020806003193601126101d55760043561156c611e77565b80600052600291828152604060002092600684015442111561181657600a8401805460ff81166117de5760ff191660011790556007840154600880860154919091109182156117af576040516115c181611a05565b600f81526e141c9bdc1bdcd85b081c185cdcd959608a1b85820152955b83156117385781015460ff166115f381611ae9565b6116ab578460005280845260406000209181830160018060a01b0392838254841c1660005260038752604060002061162b8154611e4e565b9055838254841c166000526003875260406000200161164a8154611e5c565b905554901c166000526003835260096000910154905b81811061169d575050611694600080516020611efa83398151915293945b6040805194859485528401526040830190611b09565b0390a260018055005b6116a690611e3f565b611660565b908460005281845260406000209182019060018060a01b0391828154831c166000526003865260406000206116e08154611e4e565b905554901c166003845260005260036040600020016116ff8154611e5c565b90556009015460005b81811061172a575050611694600080516020611efa833981519152939461167e565b61173390611e3f565b611708565b50600085815281855260408082209092015490921c6001600160a01b03168252600384529020805493949390600a8211611787575b5050611694600080516020611efa8339815191529361167e565b60091982019490918511610ade57939055611694600080516020611efa83398151915261176d565b6040516117bb81611a05565b6011815270141c9bdc1bdcd85b081c995a9958dd1959607a1b85820152956115de565b60405162461bcd60e51b815260048101859052601060248201526f105b1c9958591e48195e1958dd5d195960821b6044820152606490fd5b60405162461bcd60e51b815260048101839052601060248201526f159bdd1a5b99c81b9bdd08195b99195960821b6044820152606490fd5b346101d55760203660031901126101d55760043563ffffffff60e01b81168091036101d557602090637965db0b60e01b8114908115611893575b506040519015158152f35b6301ffc9a760e01b14905082611888565b346101d55760203660031901126101d557600435600052600260205260206040600020805490600181015460028201549160ff83166118e560038301611a43565b936118f260048401611a43565b9461196a60058501549661195c60068701549360078801549560088901549760ff600a60098c01549b0154169a6040519e8f9e8f908152015261193481611ae9565b60408d015260081c6001600160a01b031660608c015261018060808c018190528b0190611b09565b9089820360a08b0152611b09565b9560c088015260e087015261010086015261012085015261014084015215156101608301520390f35b90600182811c921680156119c3575b60208310146119ad57565b634e487b7160e01b600052602260045260246000fd5b91607f16916119a2565b60a0810190811067ffffffffffffffff821117610b5d57604052565b6080810190811067ffffffffffffffff821117610b5d57604052565b6040810190811067ffffffffffffffff821117610b5d57604052565b90601f8019910116810190811067ffffffffffffffff821117610b5d57604052565b9060405191826000825492611a5784611993565b908184526001948581169081600014611ac65750600114611a83575b5050611a8192500383611a21565b565b9093915060005260209081600020936000915b818310611aae575050611a8193508201013880611a73565b85548884018501529485019487945091830191611a96565b915050611a8194506020925060ff191682840152151560051b8201013880611a73565b60021115611af357565b634e487b7160e01b600052602160045260246000fd5b919082519283825260005b848110611b35575050826000602080949584010152601f8019910116010190565b602081830181015184830182015201611b14565b346101d55760003660031901126101d557602060405160648152f35b600435906001600160a01b03821682036101d557565b602435906001600160a01b03821682036101d557565b81601f820112156101d55780359067ffffffffffffffff8211610b5d5760405192611bc6601f8401601f191660200185611a21565b828452602083830101116101d557816000926020809301838601378301015290565b60606003198201126101d5576004359167ffffffffffffffff6024358181116101d55783611c1891600401611b91565b926044359182116101d557611c2f91600401611b91565b90565b8054821015611c4a5760005260206000200190600090565b634e487b7160e01b600052603260045260246000fd5b3360009081527f7d7ffb7a348e1c6a02869081a26547b49160dd3df72d1d75a570eb9b698292ec60205260409020547fa49807205ce4d355092ef5a8a18f56e8913cf4a201fbe287825b095693c217759060ff1615611cbc5750565b6044906040519063e2517d3f60e01b82523360048301526024820152fd5b80600052600060205260406000203360005260205260ff6040600020541615611cbc5750565b9060009180835282602052604083209160018060a01b03169182845260205260ff60408420541615600014611d7957808352826020526040832082845260205260408320600160ff198254161790557f2f8788117e7eff1d82e926ec794901d17c78024a50270940304540a733656f0d339380a4600190565b505090565b9060009180835282602052604083209160018060a01b03169182845260205260ff604084205416600014611d795780835282602052604083208284526020526040832060ff1981541690557ff6391f5c32d9c69d2a47ea670b442974b53935d1edc7fd64eb21e047a839171b339380a4600190565b15611dfa57565b60405162461bcd60e51b815260206004820152601760248201527f496e73756666696369656e742072657075746174696f6e0000000000000000006044820152606490fd5b6000198114610ade5760010190565b9060148201809211610ade57565b9060018201809211610ade57565b91908201809211610ade57565b600260015414611e88576002600155565b604051633ee5aeb560e01b8152600490fd5b6001600160a01b0316600081815260036020526040812054909290606411611d7957825260026020526040822060ff600a82015416611d795760068101544211611d7957600b9183520160205260ff604082205416611c2f575060019056fe8409f7bbba63946ccaafd59b0ee4d3e7fbd9101018d50b2de041b198581aea9ea2646970667358221220a2c04e988c0ad6e31a11ec8da17b36db8632796d1330a5c126090fcb7b1f9e5964736f6c63430008140033","opcodes":"PUSH1 0x80 PUSH1 0x40 MSTORE CALLVALUE PUSH2 0x26 JUMPI PUSH1 0x1 DUP1 SSTORE PUSH2 0x16 CALLER PUSH2 0x2B JUMP JUMPDEST POP PUSH1 0x40 MLOAD PUSH2 0x1F4F SWAP1 DUP2 PUSH2 0xBC DUP3 CODECOPY RETURN JUMPDEST PUSH1 0x0 DUP1 REVERT JUMPDEST PUSH1 0x1 PUSH1 0x1 PUSH1 0xA0 SHL SUB AND PUSH1 0x0 DUP2 DUP2 MSTORE PUSH32 0xAD3228B676F7D3CD4284A5443F17F1962B36E491B30A40B2405849E597BA5FB5 PUSH1 0x20 MSTORE PUSH1 0x40 DUP2 KECCAK256 SLOAD SWAP1 SWAP2 SWAP1 PUSH1 0xFF AND PUSH2 0xB7 JUMPI DUP2 DUP1 MSTORE DUP2 PUSH1 0x20 MSTORE PUSH1 0x40 DUP3 KECCAK256 DUP2 DUP4 MSTORE PUSH1 0x20 MSTORE PUSH1 0x40 DUP3 KECCAK256 PUSH1 0x1 PUSH1 0xFF NOT DUP3 SLOAD AND OR SWAP1 SSTORE CALLER SWAP2 PUSH32 0x2F8788117E7EFF1D82E926EC794901D17C78024A50270940304540A733656F0D DUP2 DUP1 LOG4 PUSH1 0x1 SWAP1 JUMP JUMPDEST POP SWAP1 JUMP INVALID PUSH1 0x80 PUSH1 0x40 MSTORE PUSH1 0x4 CALLDATASIZE LT ISZERO PUSH2 0x12 JUMPI PUSH1 0x0 DUP1 REVERT JUMPDEST PUSH1 0x0 CALLDATALOAD PUSH1 0xE0 SHR DUP1 PUSH4 0x13CF08B EQ PUSH2 0x18A4 JUMPI DUP1 PUSH4 0x1FFC9A7 EQ PUSH2 0x184E JUMPI DUP1 PUSH4 0x8C08400 EQ PUSH2 0x765 JUMPI DUP1 PUSH4 0xD61B519 EQ PUSH2 0x154F JUMPI DUP1 PUSH4 0x176CE8D7 EQ PUSH2 0x1523 JUMPI DUP1 PUSH4 0x19EB8D48 EQ PUSH2 0x14F2 JUMPI DUP1 PUSH4 0x248A9CA3 EQ PUSH2 0x14C3 JUMPI DUP1 PUSH4 0x2F2FF15D EQ PUSH2 0x1484 JUMPI DUP1 PUSH4 0x36568ABE EQ PUSH2 0x143D JUMPI DUP1 PUSH4 0x4A542B8F EQ PUSH2 0xF48 JUMPI DUP1 PUSH4 0x56781388 EQ PUSH2 0xD00 JUMPI DUP1 PUSH4 0x5A462A20 EQ PUSH2 0x76A JUMPI DUP1 PUSH4 0x5DF39207 EQ PUSH2 0x765 JUMPI DUP1 PUSH4 0x75530344 EQ PUSH2 0x749 JUMPI DUP1 PUSH4 0x75B238FC EQ PUSH2 0x70E JUMPI DUP1 PUSH4 0x7BB27C11 EQ PUSH2 0x62B JUMPI DUP1 PUSH4 0x7F80BE75 EQ PUSH2 0x5EC JUMPI DUP1 PUSH4 0x8EC98877 EQ PUSH2 0x5A5 JUMPI DUP1 PUSH4 0x91D14854 EQ PUSH2 0x558 JUMPI DUP1 PUSH4 0x99FFB682 EQ PUSH2 0x4E2 JUMPI DUP1 PUSH4 0xA217FDDF EQ PUSH2 0x4C6 JUMPI DUP1 PUSH4 0xA438D208 EQ PUSH2 0x4A8 JUMPI DUP1 PUSH4 0xBACCBFDB EQ PUSH2 0x416 JUMPI DUP1 PUSH4 0xC7F758A8 EQ PUSH2 0x35D JUMPI DUP1 PUSH4 0xC97BFE6B EQ PUSH2 0x30C JUMPI DUP1 PUSH4 0xD547741F EQ PUSH2 0x2CB JUMPI DUP1 PUSH4 0xE7705DB6 EQ PUSH2 0x290 JUMPI DUP1 PUSH4 0xEFA90D36 EQ PUSH2 0x1DA JUMPI PUSH4 0xF8B11691 EQ PUSH2 0x15B JUMPI PUSH1 0x0 DUP1 REVERT JUMPDEST CALLVALUE PUSH2 0x1D5 JUMPI PUSH1 0x20 CALLDATASIZE PUSH1 0x3 NOT ADD SLT PUSH2 0x1D5 JUMPI PUSH1 0x1 PUSH1 0x1 PUSH1 0xA0 SHL SUB PUSH2 0x17C PUSH2 0x1B65 JUMP JUMPDEST AND PUSH1 0x0 MSTORE PUSH1 0x3 PUSH1 0x20 MSTORE PUSH1 0x40 PUSH1 0x0 KECCAK256 DUP1 SLOAD PUSH2 0x1D1 PUSH1 0x1 DUP4 ADD SLOAD SWAP3 PUSH1 0x2 DUP2 ADD SLOAD SWAP1 PUSH1 0x4 PUSH1 0x3 DUP3 ADD SLOAD SWAP2 ADD SLOAD SWAP2 PUSH1 0x40 MLOAD SWAP6 DUP7 SWAP6 DUP7 SWAP2 SWAP3 PUSH1 0x80 SWAP4 SWAP7 SWAP6 SWAP5 SWAP2 SWAP7 PUSH1 0xA0 DUP5 ADD SWAP8 DUP5 MSTORE PUSH1 0x20 DUP5 ADD MSTORE PUSH1 0x40 DUP4 ADD MSTORE PUSH1 0x60 DUP3 ADD MSTORE ADD MSTORE JUMP JUMPDEST SUB SWAP1 RETURN JUMPDEST PUSH1 0x0 DUP1 REVERT JUMPDEST CALLVALUE PUSH2 0x1D5 JUMPI PUSH1 0x0 CALLDATASIZE PUSH1 0x3 NOT ADD SLT PUSH2 0x1D5 JUMPI PUSH1 0x40 MLOAD DUP1 PUSH1 0x7 SLOAD DUP1 DUP4 MSTORE PUSH1 0x20 DUP1 SWAP4 ADD DUP1 SWAP2 PUSH1 0x7 PUSH1 0x0 MSTORE PUSH32 0xA66CC928B5EDB82AF9BD49922954155AB7B0942694BEA4CE44661D9A8736C688 SWAP1 PUSH1 0x0 JUMPDEST DUP7 DUP3 DUP3 LT PUSH2 0x27C JUMPI DUP7 DUP7 PUSH2 0x23C DUP3 DUP9 SUB DUP4 PUSH2 0x1A21 JUMP JUMPDEST PUSH1 0x40 MLOAD SWAP3 DUP4 SWAP3 DUP2 DUP5 ADD SWAP1 DUP3 DUP6 MSTORE MLOAD DUP1 SWAP2 MSTORE PUSH1 0x40 DUP5 ADD SWAP3 SWAP2 PUSH1 0x0 JUMPDEST DUP3 DUP2 LT PUSH2 0x265 JUMPI POP POP POP POP SUB SWAP1 RETURN JUMPDEST DUP4 MLOAD DUP6 MSTORE DUP7 SWAP6 POP SWAP4 DUP2 ADD SWAP4 SWAP3 DUP2 ADD SWAP3 PUSH1 0x1 ADD PUSH2 0x256 JUMP JUMPDEST DUP4 SLOAD DUP6 MSTORE SWAP1 SWAP4 ADD SWAP3 PUSH1 0x1 SWAP3 DUP4 ADD SWAP3 ADD PUSH2 0x226 JUMP JUMPDEST CALLVALUE PUSH2 0x1D5 JUMPI PUSH1 0x0 CALLDATASIZE PUSH1 0x3 NOT ADD SLT PUSH2 0x1D5 JUMPI PUSH1 0x20 PUSH1 0x40 MLOAD PUSH32 0xCE23C3E399818CFEE81A7AB0880F714E53D7672B08DF0FA62F2843416E1EA09 DUP2 MSTORE RETURN JUMPDEST CALLVALUE PUSH2 0x1D5 JUMPI PUSH1 0x40 CALLDATASIZE PUSH1 0x3 NOT ADD SLT PUSH2 0x1D5 JUMPI PUSH2 0x30A PUSH1 0x4 CALLDATALOAD PUSH2 0x2EA PUSH2 0x1B7B JUMP JUMPDEST SWAP1 DUP1 PUSH1 0x0 MSTORE PUSH1 0x0 PUSH1 0x20 MSTORE PUSH2 0x305 PUSH1 0x1 PUSH1 0x40 PUSH1 0x0 KECCAK256 ADD SLOAD PUSH2 0x1CDA JUMP JUMPDEST PUSH2 0x1D7E JUMP JUMPDEST STOP JUMPDEST CALLVALUE PUSH2 0x1D5 JUMPI PUSH1 0x20 CALLDATASIZE PUSH1 0x3 NOT ADD SLT PUSH2 0x1D5 JUMPI PUSH1 0x4 CALLDATALOAD PUSH1 0x7 SLOAD DUP2 LT ISZERO PUSH2 0x1D5 JUMPI PUSH1 0x20 SWAP1 PUSH1 0x7 PUSH1 0x0 MSTORE PUSH32 0xA66CC928B5EDB82AF9BD49922954155AB7B0942694BEA4CE44661D9A8736C688 ADD SLOAD PUSH1 0x40 MLOAD SWAP1 DUP2 MSTORE RETURN JUMPDEST CALLVALUE PUSH2 0x1D5 JUMPI PUSH1 0x20 CALLDATASIZE PUSH1 0x3 NOT ADD SLT PUSH2 0x1D5 JUMPI PUSH1 0x4 CALLDATALOAD PUSH1 0x0 MSTORE PUSH1 0x2 PUSH1 0x20 MSTORE PUSH1 0x40 PUSH1 0x0 KECCAK256 PUSH1 0x1 DUP2 ADD SLOAD PUSH1 0x2 DUP3 ADD SLOAD PUSH1 0xFF DUP2 AND SWAP3 PUSH1 0x5 DUP2 ADD SLOAD SWAP2 PUSH1 0x6 DUP3 ADD SLOAD PUSH1 0x7 DUP4 ADD SLOAD SWAP1 PUSH2 0x3F5 PUSH1 0x8 DUP6 ADD SLOAD SWAP4 PUSH2 0x3BB PUSH1 0x3 PUSH1 0xFF PUSH1 0xA DUP10 ADD SLOAD AND SWAP8 ADD PUSH2 0x1A43 JUMP JUMPDEST SWAP1 PUSH1 0x40 MLOAD SWAP10 DUP11 SWAP10 DUP11 MSTORE PUSH2 0x3CD DUP2 PUSH2 0x1AE9 JUMP JUMPDEST PUSH1 0x20 DUP11 ADD MSTORE PUSH1 0x8 SHR PUSH1 0x1 PUSH1 0x1 PUSH1 0xA0 SHL SUB AND PUSH1 0x40 DUP10 ADD MSTORE PUSH2 0x120 PUSH1 0x60 DUP10 ADD DUP2 SWAP1 MSTORE DUP9 ADD SWAP1 PUSH2 0x1B09 JUMP JUMPDEST SWAP5 PUSH1 0x80 DUP8 ADD MSTORE PUSH1 0xA0 DUP7 ADD MSTORE PUSH1 0xC0 DUP6 ADD MSTORE PUSH1 0xE0 DUP5 ADD MSTORE ISZERO ISZERO PUSH2 0x100 DUP4 ADD MSTORE SUB SWAP1 RETURN JUMPDEST CALLVALUE PUSH2 0x1D5 JUMPI PUSH1 0x20 CALLDATASIZE PUSH1 0x3 NOT ADD SLT PUSH2 0x1D5 JUMPI PUSH1 0x1 PUSH1 0x1 PUSH1 0xA0 SHL SUB PUSH2 0x437 PUSH2 0x1B65 JUMP JUMPDEST AND PUSH1 0x0 MSTORE PUSH1 0x3 PUSH1 0x20 MSTORE PUSH1 0x40 PUSH1 0x0 KECCAK256 PUSH1 0x40 MLOAD SWAP1 PUSH2 0x452 DUP3 PUSH2 0x19CD JUMP JUMPDEST DUP1 SLOAD DUP1 DUP4 MSTORE PUSH1 0x1 DUP3 ADD SLOAD PUSH1 0x20 DUP1 DUP6 ADD DUP3 SWAP1 MSTORE PUSH1 0x2 DUP5 ADD SLOAD PUSH1 0x40 DUP1 DUP8 ADD DUP3 SWAP1 MSTORE PUSH1 0x3 DUP7 ADD SLOAD PUSH1 0x60 DUP1 DUP10 ADD DUP3 SWAP1 MSTORE PUSH1 0x4 SWAP1 SWAP8 ADD SLOAD PUSH1 0x80 SWAP9 DUP10 ADD DUP2 SWAP1 MSTORE DUP3 MLOAD SWAP7 DUP8 MSTORE SWAP4 DUP7 ADD SWAP5 SWAP1 SWAP5 MSTORE DUP5 ADD MSTORE SWAP3 DUP3 ADD MSTORE SWAP2 DUP3 ADD MSTORE PUSH1 0xA0 SWAP1 RETURN JUMPDEST CALLVALUE PUSH2 0x1D5 JUMPI PUSH1 0x0 CALLDATASIZE PUSH1 0x3 NOT ADD SLT PUSH2 0x1D5 JUMPI PUSH1 0x20 PUSH1 0x40 MLOAD PUSH3 0x93A80 DUP2 MSTORE RETURN JUMPDEST CALLVALUE PUSH2 0x1D5 JUMPI PUSH1 0x0 CALLDATASIZE PUSH1 0x3 NOT ADD SLT PUSH2 0x1D5 JUMPI PUSH1 0x20 PUSH1 0x40 MLOAD PUSH1 0x0 DUP2 MSTORE RETURN JUMPDEST CALLVALUE PUSH2 0x1D5 JUMPI PUSH1 0x20 CALLDATASIZE PUSH1 0x3 NOT ADD SLT PUSH2 0x1D5 JUMPI PUSH2 0x4FB PUSH2 0x1B65 JUMP JUMPDEST PUSH2 0x503 PUSH2 0x1C60 JUMP JUMPDEST PUSH1 0x1 PUSH1 0x1 PUSH1 0xA0 SHL SUB AND ISZERO PUSH2 0x513 JUMPI STOP JUMPDEST PUSH1 0x40 MLOAD PUSH3 0x461BCD PUSH1 0xE5 SHL DUP2 MSTORE PUSH1 0x20 PUSH1 0x4 DUP3 ADD MSTORE PUSH1 0x1C PUSH1 0x24 DUP3 ADD MSTORE PUSH32 0x496E76616C6964204E474F207265676973747279206164647265737300000000 PUSH1 0x44 DUP3 ADD MSTORE PUSH1 0x64 SWAP1 REVERT JUMPDEST CALLVALUE PUSH2 0x1D5 JUMPI PUSH1 0x40 CALLDATASIZE PUSH1 0x3 NOT ADD SLT PUSH2 0x1D5 JUMPI PUSH2 0x571 PUSH2 0x1B7B JUMP JUMPDEST PUSH1 0x4 CALLDATALOAD PUSH1 0x0 MSTORE PUSH1 0x0 PUSH1 0x20 MSTORE PUSH1 0x40 PUSH1 0x0 KECCAK256 SWAP1 PUSH1 0x1 DUP1 PUSH1 0xA0 SHL SUB AND PUSH1 0x0 MSTORE PUSH1 0x20 MSTORE PUSH1 0x20 PUSH1 0xFF PUSH1 0x40 PUSH1 0x0 KECCAK256 SLOAD AND PUSH1 0x40 MLOAD SWAP1 ISZERO ISZERO DUP2 MSTORE RETURN JUMPDEST CALLVALUE PUSH2 0x1D5 JUMPI PUSH1 0x40 CALLDATASIZE PUSH1 0x3 NOT ADD SLT PUSH2 0x1D5 JUMPI PUSH1 0x24 CALLDATALOAD PUSH1 0x4 CALLDATALOAD PUSH1 0x0 MSTORE PUSH1 0x5 PUSH1 0x20 MSTORE PUSH1 0x40 PUSH1 0x0 KECCAK256 DUP1 SLOAD DUP3 LT ISZERO PUSH2 0x1D5 JUMPI PUSH1 0x20 SWAP2 PUSH2 0x5DE SWAP2 PUSH2 0x1C32 JUMP JUMPDEST SWAP1 SLOAD PUSH1 0x40 MLOAD SWAP2 PUSH1 0x3 SHL SHR DUP2 MSTORE RETURN JUMPDEST CALLVALUE PUSH2 0x1D5 JUMPI PUSH1 0x20 CALLDATASIZE PUSH1 0x3 NOT ADD SLT PUSH2 0x1D5 JUMPI PUSH1 0x1 PUSH1 0x1 PUSH1 0xA0 SHL SUB PUSH2 0x60D PUSH2 0x1B65 JUMP JUMPDEST AND PUSH1 0x0 MSTORE PUSH1 0x6 PUSH1 0x20 MSTORE PUSH1 0x20 PUSH1 0xFF PUSH1 0x40 PUSH1 0x0 KECCAK256 SLOAD AND PUSH1 0x40 MLOAD SWAP1 ISZERO ISZERO DUP2 MSTORE RETURN JUMPDEST CALLVALUE PUSH2 0x1D5 JUMPI PUSH1 0x20 CALLDATASIZE PUSH1 0x3 NOT ADD SLT PUSH2 0x1D5 JUMPI PUSH2 0x644 PUSH2 0x1B65 JUMP JUMPDEST PUSH2 0x64C PUSH2 0x1C60 JUMP JUMPDEST PUSH1 0x1 PUSH1 0x1 PUSH1 0xA0 SHL SUB AND PUSH1 0x0 DUP2 DUP2 MSTORE PUSH1 0x3 PUSH1 0x20 MSTORE PUSH1 0x40 SWAP1 KECCAK256 SLOAD PUSH2 0x6C9 JUMPI PUSH1 0x4 PUSH1 0x40 MLOAD SWAP2 PUSH2 0x677 DUP4 PUSH2 0x19CD JUMP JUMPDEST PUSH2 0x1F4 DUP4 MSTORE PUSH1 0x20 DUP4 ADD PUSH1 0x0 DUP2 MSTORE PUSH1 0x40 DUP5 ADD PUSH1 0x0 DUP2 MSTORE PUSH1 0x60 DUP6 ADD SWAP2 PUSH1 0x0 DUP4 MSTORE PUSH1 0x80 DUP7 ADD SWAP4 TIMESTAMP DUP6 MSTORE PUSH1 0x0 MSTORE PUSH1 0x3 PUSH1 0x20 MSTORE PUSH1 0x40 PUSH1 0x0 KECCAK256 SWAP6 MLOAD DUP7 SSTORE MLOAD PUSH1 0x1 DUP7 ADD SSTORE MLOAD PUSH1 0x2 DUP6 ADD SSTORE MLOAD PUSH1 0x3 DUP5 ADD SSTORE MLOAD SWAP2 ADD SSTORE PUSH1 0x0 DUP1 RETURN JUMPDEST PUSH1 0x40 MLOAD PUSH3 0x461BCD PUSH1 0xE5 SHL DUP2 MSTORE PUSH1 0x20 PUSH1 0x4 DUP3 ADD MSTORE PUSH1 0x1E PUSH1 0x24 DUP3 ADD MSTORE PUSH32 0x52657075746174696F6E20616C726561647920696E697469616C697A65640000 PUSH1 0x44 DUP3 ADD MSTORE PUSH1 0x64 SWAP1 REVERT JUMPDEST CALLVALUE PUSH2 0x1D5 JUMPI PUSH1 0x0 CALLDATASIZE PUSH1 0x3 NOT ADD SLT PUSH2 0x1D5 JUMPI PUSH1 0x20 PUSH1 0x40 MLOAD PUSH32 0xA49807205CE4D355092EF5A8A18F56E8913CF4A201FBE287825B095693C21775 DUP2 MSTORE RETURN JUMPDEST CALLVALUE PUSH2 0x1D5 JUMPI PUSH1 0x0 CALLDATASIZE PUSH1 0x3 NOT ADD SLT PUSH2 0x1D5 JUMPI PUSH1 0x20 PUSH1 0x40 MLOAD PUSH1 0xA DUP2 MSTORE RETURN JUMPDEST PUSH2 0x1B49 JUMP JUMPDEST CALLVALUE PUSH2 0x1D5 JUMPI PUSH2 0x778 CALLDATASIZE PUSH2 0x1BE8 JUMP JUMPDEST PUSH2 0x783 SWAP3 SWAP2 SWAP3 PUSH2 0x1E77 JUMP JUMPDEST CALLER PUSH1 0x0 MSTORE PUSH1 0x3 PUSH1 0x20 MSTORE PUSH2 0x79E PUSH1 0x64 PUSH1 0x40 PUSH1 0x0 KECCAK256 SLOAD LT ISZERO PUSH2 0x1DF3 JUMP JUMPDEST PUSH2 0x7A9 PUSH1 0x8 SLOAD PUSH2 0x1E3F JUMP JUMPDEST PUSH1 0x8 DUP2 DUP2 SSTORE PUSH1 0x0 DUP3 DUP2 MSTORE PUSH1 0x2 PUSH1 0x20 DUP2 SWAP1 MSTORE PUSH1 0x40 SWAP1 SWAP2 KECCAK256 DUP4 DUP2 SSTORE PUSH1 0x1 DUP1 DUP3 ADD DUP8 SWAP1 SSTORE SWAP2 DUP2 ADD DUP1 SLOAD PUSH1 0x1 PUSH1 0x1 PUSH1 0xA8 SHL SUB NOT AND CALLER SWAP1 SWAP5 SHL PUSH2 0x100 PUSH1 0x1 PUSH1 0xA8 SHL SUB AND SWAP4 SWAP1 SWAP4 OR SWAP1 SWAP2 OR SWAP1 SWAP2 SSTORE SWAP1 SWAP2 DUP5 MLOAD PUSH8 0xFFFFFFFFFFFFFFFF DUP2 GT PUSH2 0xB5D JUMPI PUSH2 0x811 PUSH1 0x3 DUP5 ADD SLOAD PUSH2 0x1993 JUMP JUMPDEST PUSH1 0x1F DUP2 GT PUSH2 0xCB9 JUMPI JUMPDEST POP DUP1 PUSH1 0x20 PUSH1 0x1F DUP3 GT PUSH1 0x1 EQ PUSH2 0xC4C JUMPI PUSH1 0x0 SWAP2 PUSH2 0xC41 JUMPI JUMPDEST POP DUP2 PUSH1 0x1 SHL SWAP2 PUSH1 0x0 NOT SWAP1 PUSH1 0x3 SHL SHR NOT AND OR PUSH1 0x3 DUP4 ADD SSTORE JUMPDEST DUP1 MLOAD SWAP1 PUSH8 0xFFFFFFFFFFFFFFFF DUP3 GT PUSH2 0xB5D JUMPI DUP2 SWAP1 PUSH2 0x869 PUSH1 0x4 DUP6 ADD SLOAD PUSH2 0x1993 JUMP JUMPDEST PUSH1 0x1F DUP2 GT PUSH2 0xBEB JUMPI JUMPDEST POP PUSH1 0x20 SWAP1 PUSH1 0x1F DUP4 GT PUSH1 0x1 EQ PUSH2 0xB7E JUMPI PUSH1 0x0 SWAP3 PUSH2 0xB73 JUMPI JUMPDEST POP POP DUP2 PUSH1 0x1 SHL SWAP2 PUSH1 0x0 NOT SWAP1 PUSH1 0x3 SHL SHR NOT AND OR PUSH1 0x4 DUP3 ADD SSTORE JUMPDEST TIMESTAMP PUSH1 0x5 DUP3 ADD SSTORE PUSH3 0x93A80 TIMESTAMP ADD SWAP1 DUP2 TIMESTAMP GT PUSH2 0xADE JUMPI PUSH1 0x6 ADD SSTORE DUP2 PUSH1 0x0 MSTORE PUSH1 0x5 PUSH1 0x20 MSTORE PUSH1 0x40 PUSH1 0x0 KECCAK256 DUP1 SLOAD PUSH9 0x10000000000000000 DUP2 LT ISZERO PUSH2 0xB5D JUMPI PUSH2 0x8E9 SWAP2 PUSH1 0x1 DUP3 ADD DUP2 SSTORE PUSH2 0x1C32 JUMP JUMPDEST DUP2 SLOAD SWAP1 PUSH1 0x3 SHL SWAP1 DUP4 DUP3 SHL SWAP2 PUSH1 0x0 NOT SWAP1 SHL NOT AND OR SWAP1 SSTORE DUP1 PUSH1 0x0 MSTORE PUSH1 0x2 PUSH1 0x20 MSTORE PUSH1 0x40 PUSH1 0x0 KECCAK256 SWAP3 PUSH1 0x6 DUP5 ADD SLOAD TIMESTAMP GT PUSH2 0xB29 JUMPI PUSH1 0xB DUP5 ADD CALLER PUSH1 0x0 MSTORE DUP1 PUSH1 0x20 MSTORE PUSH1 0xFF PUSH1 0x40 PUSH1 0x0 KECCAK256 SLOAD AND PUSH2 0xAF4 JUMPI CALLER PUSH1 0x0 MSTORE PUSH1 0x3 PUSH1 0x20 MSTORE PUSH1 0x40 PUSH1 0x0 KECCAK256 PUSH1 0x40 MLOAD PUSH2 0x94B DUP2 PUSH2 0x19CD JUMP JUMPDEST PUSH1 0x80 PUSH1 0x4 DUP4 SLOAD SWAP4 DUP5 DUP5 MSTORE PUSH1 0x1 DUP2 ADD SLOAD PUSH1 0x20 DUP6 ADD MSTORE PUSH1 0x2 DUP2 ADD SLOAD PUSH1 0x40 DUP6 ADD MSTORE PUSH1 0x3 DUP2 ADD SLOAD PUSH1 0x60 DUP6 ADD MSTORE ADD SLOAD SWAP2 ADD MSTORE PUSH1 0x64 DUP2 MUL SWAP1 DUP1 DUP3 DIV PUSH1 0x64 EQ SWAP1 ISZERO OR ISZERO PUSH2 0xADE JUMPI PUSH1 0x20 SWAP6 PUSH2 0x3E8 PUSH1 0x9 SWAP3 DIV SWAP3 PUSH1 0x2 PUSH1 0x40 MLOAD SWAP2 PUSH2 0x9A5 DUP4 PUSH2 0x19E9 JUMP JUMPDEST PUSH1 0x1 DUP4 MSTORE DUP10 DUP4 ADD PUSH1 0x1 DUP2 MSTORE PUSH1 0x40 DUP5 ADD SWAP1 DUP8 DUP3 MSTORE PUSH1 0x60 DUP6 ADD SWAP3 PUSH1 0xA DUP5 MSTORE CALLER PUSH1 0x0 MSTORE DUP13 MSTORE PUSH2 0x9E5 PUSH1 0x40 PUSH1 0x0 KECCAK256 SWAP6 MLOAD ISZERO ISZERO DUP7 SWAP1 PUSH1 0xFF DUP1 NOT DUP4 SLOAD AND SWAP2 ISZERO ISZERO AND OR SWAP1 SSTORE JUMP JUMPDEST MLOAD PUSH2 0x9EF DUP2 PUSH2 0x1AE9 JUMP JUMPDEST PUSH2 0x9F8 DUP2 PUSH2 0x1AE9 JUMP JUMPDEST PUSH2 0xFF00 DUP6 SLOAD SWAP2 PUSH1 0x8 SHL AND SWAP1 PUSH2 0xFF00 NOT AND OR DUP5 SSTORE MLOAD PUSH1 0x1 DUP5 ADD SSTORE MLOAD SWAP2 ADD SSTORE PUSH1 0x8 DUP2 ADD PUSH2 0xA24 DUP5 DUP3 SLOAD PUSH2 0x1E6A JUMP JUMPDEST SWAP1 SSTORE ADD PUSH2 0xA32 DUP3 DUP3 SLOAD PUSH2 0x1E6A JUMP JUMPDEST SWAP1 SSTORE PUSH1 0x40 MLOAD SWAP1 PUSH1 0x1 DUP3 MSTORE DUP6 DUP3 ADD MSTORE DUP3 PUSH32 0xB83D25C6A5D258561330739951487ACB4BD09BA5190B5D32C4F261817D906792 PUSH1 0x40 CALLER SWAP4 LOG3 DUP3 DUP3 PUSH32 0x13B23F04F3EBDA1DFA81D7178B32B76C4BF35879A70C233D0A9251C24BD3DF9 PUSH1 0x40 MLOAD PUSH1 0x1 DUP2 MSTORE PUSH1 0x40 DUP9 DUP3 ADD MSTORE DUP1 PUSH2 0xAA7 CALLER SWAP7 PUSH1 0x40 DUP4 ADD SWAP1 PUSH2 0x1B09 JUMP JUMPDEST SUB SWAP1 LOG4 PUSH1 0x40 MLOAD SWAP2 DUP2 CALLER SWAP2 PUSH32 0xA4851481BC6D2B72CB014BC82CE7233C00D978BDA88CEC8B29027757180D1EE7 PUSH1 0x0 DUP1 LOG4 PUSH1 0x1 DUP1 SSTORE DUP2 MSTORE RETURN JUMPDEST PUSH4 0x4E487B71 PUSH1 0xE0 SHL PUSH1 0x0 MSTORE PUSH1 0x11 PUSH1 0x4 MSTORE PUSH1 0x24 PUSH1 0x0 REVERT JUMPDEST PUSH1 0x40 MLOAD PUSH3 0x461BCD PUSH1 0xE5 SHL DUP2 MSTORE PUSH1 0x20 PUSH1 0x4 DUP3 ADD MSTORE PUSH1 0xD PUSH1 0x24 DUP3 ADD MSTORE PUSH13 0x105B1C9958591E481D9BDD1959 PUSH1 0x9A SHL PUSH1 0x44 DUP3 ADD MSTORE PUSH1 0x64 SWAP1 REVERT JUMPDEST PUSH1 0x40 MLOAD PUSH3 0x461BCD PUSH1 0xE5 SHL DUP2 MSTORE PUSH1 0x20 PUSH1 0x4 DUP3 ADD MSTORE PUSH1 0xC PUSH1 0x24 DUP3 ADD MSTORE PUSH12 0x159BDD1A5B99C8195B991959 PUSH1 0xA2 SHL PUSH1 0x44 DUP3 ADD MSTORE PUSH1 0x64 SWAP1 REVERT JUMPDEST PUSH4 0x4E487B71 PUSH1 0xE0 SHL PUSH1 0x0 MSTORE PUSH1 0x41 PUSH1 0x4 MSTORE PUSH1 0x24 PUSH1 0x0 REVERT JUMPDEST ADD MLOAD SWAP1 POP DUP7 DUP1 PUSH2 0x889 JUMP JUMPDEST PUSH1 0x4 DUP6 ADD PUSH1 0x0 SWAP1 DUP2 MSTORE PUSH1 0x20 DUP2 KECCAK256 SWAP4 POP PUSH1 0x1F NOT DUP6 AND SWAP1 JUMPDEST DUP2 DUP2 LT PUSH2 0xBD3 JUMPI POP SWAP1 DUP5 PUSH1 0x1 SWAP6 SWAP5 SWAP4 SWAP3 LT PUSH2 0xBBA JUMPI JUMPDEST POP POP POP DUP2 SHL ADD PUSH1 0x4 DUP3 ADD SSTORE PUSH2 0x8A1 JUMP JUMPDEST ADD MLOAD PUSH1 0x0 NOT PUSH1 0xF8 DUP5 PUSH1 0x3 SHL AND SHR NOT AND SWAP1 SSTORE DUP7 DUP1 DUP1 PUSH2 0xBAA JUMP JUMPDEST SWAP3 SWAP4 PUSH1 0x20 PUSH1 0x1 DUP2 SWAP3 DUP8 DUP7 ADD MLOAD DUP2 SSTORE ADD SWAP6 ADD SWAP4 ADD PUSH2 0xB94 JUMP JUMPDEST SWAP1 SWAP2 POP PUSH1 0x4 DUP5 ADD PUSH1 0x0 MSTORE PUSH1 0x20 PUSH1 0x0 KECCAK256 PUSH1 0x1F DUP5 ADD PUSH1 0x5 SHR DUP2 ADD SWAP2 PUSH1 0x20 DUP6 LT PUSH2 0xC37 JUMPI JUMPDEST SWAP1 PUSH1 0x1F DUP6 SWAP5 SWAP4 SWAP3 ADD PUSH1 0x5 SHR ADD SWAP1 JUMPDEST DUP2 DUP2 LT PUSH2 0xC28 JUMPI POP PUSH2 0x872 JUMP JUMPDEST PUSH1 0x0 DUP2 SSTORE DUP5 SWAP4 POP PUSH1 0x1 ADD PUSH2 0xC1B JUMP JUMPDEST SWAP1 SWAP2 POP DUP2 SWAP1 PUSH2 0xC0D JUMP JUMPDEST SWAP1 POP DUP7 ADD MLOAD DUP8 PUSH2 0x831 JUMP JUMPDEST SWAP2 POP PUSH1 0x3 DUP5 ADD PUSH1 0x0 MSTORE PUSH1 0x20 PUSH1 0x0 KECCAK256 PUSH1 0x0 SWAP3 JUMPDEST PUSH1 0x1F NOT DUP4 AND DUP5 LT PUSH2 0xCA1 JUMPI PUSH1 0x1 SWAP4 POP DUP3 PUSH1 0x1F NOT DUP2 AND LT PUSH2 0xC88 JUMPI JUMPDEST POP POP DUP2 SHL ADD PUSH1 0x3 DUP4 ADD SSTORE PUSH2 0x848 JUMP JUMPDEST DUP9 ADD MLOAD PUSH1 0x0 NOT PUSH1 0xF8 DUP5 PUSH1 0x3 SHL AND SHR NOT AND SWAP1 SSTORE DUP8 DUP1 PUSH2 0xC79 JUMP JUMPDEST DUP9 DUP2 ADD MLOAD DUP3 SSTORE PUSH1 0x20 SWAP4 DUP5 ADD SWAP4 PUSH1 0x1 SWAP1 SWAP3 ADD SWAP2 ADD PUSH2 0xC5E JUMP JUMPDEST PUSH1 0x3 DUP5 ADD PUSH1 0x0 MSTORE PUSH1 0x20 PUSH1 0x0 KECCAK256 PUSH1 0x1F DUP4 ADD PUSH1 0x5 SHR DUP2 ADD PUSH1 0x20 DUP5 LT PUSH2 0xCF9 JUMPI JUMPDEST PUSH1 0x1F DUP4 ADD PUSH1 0x5 SHR DUP3 ADD DUP2 LT PUSH2 0xCED JUMPI POP POP PUSH2 0x81A JUMP JUMPDEST PUSH1 0x0 DUP2 SSTORE PUSH1 0x1 ADD PUSH2 0xCD7 JUMP JUMPDEST POP DUP1 PUSH2 0xCD7 JUMP JUMPDEST CALLVALUE PUSH2 0x1D5 JUMPI PUSH1 0x40 CALLDATASIZE PUSH1 0x3 NOT ADD SLT PUSH2 0x1D5 JUMPI PUSH1 0x24 CALLDATALOAD PUSH1 0x4 CALLDATALOAD PUSH1 0x2 DUP3 LT ISZERO PUSH2 0x1D5 JUMPI PUSH2 0xD28 PUSH2 0x1E77 JUMP JUMPDEST CALLER PUSH1 0x0 MSTORE PUSH1 0x20 PUSH1 0x3 DUP2 MSTORE PUSH2 0xD44 PUSH1 0x64 PUSH1 0x40 PUSH1 0x0 KECCAK256 SLOAD LT ISZERO PUSH2 0x1DF3 JUMP JUMPDEST DUP2 PUSH1 0x0 MSTORE PUSH1 0x2 DUP2 MSTORE PUSH1 0x40 PUSH1 0x0 KECCAK256 SWAP1 PUSH1 0x6 DUP3 ADD SLOAD TIMESTAMP GT PUSH2 0xF15 JUMPI PUSH1 0xB DUP3 ADD SWAP2 CALLER PUSH1 0x0 MSTORE DUP3 DUP3 MSTORE PUSH1 0xFF PUSH1 0x40 PUSH1 0x0 KECCAK256 SLOAD AND PUSH2 0xEE0 JUMPI CALLER PUSH1 0x0 MSTORE PUSH1 0x3 DUP3 MSTORE PUSH1 0x40 PUSH1 0x0 KECCAK256 SWAP1 PUSH1 0x40 MLOAD PUSH2 0xD90 DUP2 PUSH2 0x19CD JUMP JUMPDEST PUSH1 0x80 PUSH1 0x4 DUP5 SLOAD SWAP5 DUP6 DUP5 MSTORE PUSH1 0x1 DUP2 ADD SLOAD DUP8 DUP6 ADD MSTORE PUSH1 0x2 DUP2 ADD SLOAD PUSH1 0x40 DUP6 ADD MSTORE PUSH1 0x3 DUP2 ADD SLOAD PUSH1 0x60 DUP6 ADD MSTORE ADD SLOAD SWAP2 ADD MSTORE PUSH1 0x64 DUP3 MUL SWAP2 DUP1 DUP4 DIV PUSH1 0x64 EQ SWAP1 ISZERO OR ISZERO PUSH2 0xADE JUMPI PUSH2 0x3E8 PUSH1 0x9 SWAP3 DIV SWAP4 PUSH1 0x2 PUSH1 0x40 MLOAD SWAP2 PUSH2 0xDE6 DUP4 PUSH2 0x19E9 JUMP JUMPDEST PUSH1 0x1 DUP4 MSTORE DUP6 DUP4 ADD PUSH2 0xDF6 DUP11 PUSH2 0x1AE9 JUMP JUMPDEST DUP10 DUP2 MSTORE PUSH1 0x40 DUP5 ADD SWAP1 DUP9 DUP3 MSTORE PUSH1 0x60 DUP6 ADD SWAP3 PUSH1 0xA DUP5 MSTORE CALLER PUSH1 0x0 MSTORE DUP9 MSTORE PUSH2 0xE2E PUSH1 0x40 PUSH1 0x0 KECCAK256 SWAP6 MLOAD ISZERO ISZERO DUP7 SWAP1 PUSH1 0xFF DUP1 NOT DUP4 SLOAD AND SWAP2 ISZERO ISZERO AND OR SWAP1 SSTORE JUMP JUMPDEST MLOAD PUSH2 0xE38 DUP2 PUSH2 0x1AE9 JUMP JUMPDEST PUSH2 0xE41 DUP2 PUSH2 0x1AE9 JUMP JUMPDEST PUSH2 0xFF00 DUP6 SLOAD SWAP2 PUSH1 0x8 SHL AND SWAP1 PUSH2 0xFF00 NOT AND OR DUP5 SSTORE MLOAD PUSH1 0x1 DUP5 ADD SSTORE MLOAD SWAP2 ADD SSTORE PUSH2 0xE67 DUP7 PUSH2 0x1AE9 JUMP JUMPDEST DUP6 PUSH2 0xECA JUMPI PUSH1 0x7 DUP2 ADD PUSH2 0xE7B DUP6 DUP3 SLOAD PUSH2 0x1E6A JUMP JUMPDEST SWAP1 SSTORE JUMPDEST ADD PUSH2 0xE8A DUP4 DUP3 SLOAD PUSH2 0x1E6A JUMP JUMPDEST SWAP1 SSTORE PUSH1 0x40 MLOAD SWAP4 PUSH2 0xE99 DUP2 PUSH2 0x1AE9 JUMP JUMPDEST DUP5 MSTORE DUP4 ADD MSTORE PUSH32 0xB83D25C6A5D258561330739951487ACB4BD09BA5190B5D32C4F261817D906792 PUSH1 0x40 CALLER SWAP4 LOG3 PUSH1 0x1 DUP1 SSTORE STOP JUMPDEST PUSH1 0x8 DUP2 ADD PUSH2 0xED9 DUP6 DUP3 SLOAD PUSH2 0x1E6A JUMP JUMPDEST SWAP1 SSTORE PUSH2 0xE7E JUMP JUMPDEST PUSH1 0x40 MLOAD PUSH3 0x461BCD PUSH1 0xE5 SHL DUP2 MSTORE PUSH1 0x4 DUP2 ADD DUP4 SWAP1 MSTORE PUSH1 0xD PUSH1 0x24 DUP3 ADD MSTORE PUSH13 0x105B1C9958591E481D9BDD1959 PUSH1 0x9A SHL PUSH1 0x44 DUP3 ADD MSTORE PUSH1 0x64 SWAP1 REVERT JUMPDEST PUSH1 0x64 SWAP1 PUSH1 0x40 MLOAD SWAP1 PUSH3 0x461BCD PUSH1 0xE5 SHL DUP3 MSTORE PUSH1 0x4 DUP3 ADD MSTORE PUSH1 0xC PUSH1 0x24 DUP3 ADD MSTORE PUSH12 0x159BDD1A5B99C8195B991959 PUSH1 0xA2 SHL PUSH1 0x44 DUP3 ADD MSTORE REVERT JUMPDEST CALLVALUE PUSH2 0x1D5 JUMPI PUSH2 0xF56 CALLDATASIZE PUSH2 0x1BE8 JUMP JUMPDEST SWAP1 PUSH2 0xF5F PUSH2 0x1E77 JUMP JUMPDEST DUP3 PUSH1 0x0 MSTORE PUSH1 0x4 PUSH1 0x20 MSTORE PUSH1 0x40 PUSH1 0x0 KECCAK256 SLOAD PUSH2 0x13F8 JUMPI CALLER PUSH1 0x0 MSTORE PUSH1 0x3 PUSH1 0x20 MSTORE PUSH2 0xF8D PUSH1 0x64 PUSH1 0x40 PUSH1 0x0 KECCAK256 SLOAD LT ISZERO PUSH2 0x1DF3 JUMP JUMPDEST PUSH2 0xF98 PUSH1 0x8 SLOAD PUSH2 0x1E3F JUMP JUMPDEST PUSH1 0x8 DUP2 DUP2 SSTORE PUSH1 0x0 DUP3 DUP2 MSTORE PUSH1 0x2 PUSH1 0x20 DUP2 SWAP1 MSTORE PUSH1 0x40 SWAP1 SWAP2 KECCAK256 DUP4 DUP2 SSTORE PUSH1 0x1 DUP2 ADD DUP8 SWAP1 SSTORE SWAP1 DUP2 ADD DUP1 SLOAD PUSH1 0x1 PUSH1 0x1 PUSH1 0xA8 SHL SUB NOT AND CALLER SWAP1 SWAP4 SHL PUSH2 0x100 PUSH1 0x1 PUSH1 0xA8 SHL SUB AND SWAP3 SWAP1 SWAP3 OR SWAP1 SWAP2 SSTORE SWAP1 SWAP3 DUP3 MLOAD PUSH8 0xFFFFFFFFFFFFFFFF DUP2 GT PUSH2 0xB5D JUMPI PUSH2 0xFFC PUSH1 0x3 DUP5 ADD SLOAD PUSH2 0x1993 JUMP JUMPDEST PUSH1 0x1F DUP2 GT PUSH2 0x13B1 JUMPI JUMPDEST POP DUP1 PUSH1 0x20 PUSH1 0x1F DUP3 GT PUSH1 0x1 EQ PUSH2 0x1344 JUMPI PUSH1 0x0 SWAP2 PUSH2 0x1339 JUMPI JUMPDEST POP DUP2 PUSH1 0x1 SHL SWAP2 PUSH1 0x0 NOT SWAP1 PUSH1 0x3 SHL SHR NOT AND OR PUSH1 0x3 DUP4 ADD SSTORE JUMPDEST DUP1 MLOAD SWAP1 PUSH8 0xFFFFFFFFFFFFFFFF DUP3 GT PUSH2 0xB5D JUMPI DUP2 SWAP1 PUSH2 0x1054 PUSH1 0x4 DUP6 ADD SLOAD PUSH2 0x1993 JUMP JUMPDEST PUSH1 0x1F DUP2 GT PUSH2 0x12E3 JUMPI JUMPDEST POP PUSH1 0x20 SWAP1 PUSH1 0x1F DUP4 GT PUSH1 0x1 EQ PUSH2 0x1276 JUMPI PUSH1 0x0 SWAP3 PUSH2 0x126B JUMPI JUMPDEST POP POP DUP2 PUSH1 0x1 SHL SWAP2 PUSH1 0x0 NOT SWAP1 PUSH1 0x3 SHL SHR NOT AND OR PUSH1 0x4 DUP3 ADD SSTORE JUMPDEST TIMESTAMP PUSH1 0x5 DUP3 ADD SSTORE PUSH3 0x93A80 TIMESTAMP ADD SWAP1 DUP2 TIMESTAMP GT PUSH2 0xADE JUMPI PUSH1 0x6 ADD SSTORE DUP3 PUSH1 0x0 MSTORE PUSH1 0x4 PUSH1 0x20 MSTORE DUP2 PUSH1 0x40 PUSH1 0x0 KECCAK256 SSTORE DUP2 PUSH1 0x0 MSTORE PUSH1 0x2 PUSH1 0x20 MSTORE PUSH1 0x40 PUSH1 0x0 KECCAK256 SWAP3 PUSH1 0x6 DUP5 ADD SLOAD TIMESTAMP GT PUSH2 0xB29 JUMPI PUSH1 0xB DUP5 ADD CALLER PUSH1 0x0 MSTORE DUP1 PUSH1 0x20 MSTORE PUSH1 0xFF PUSH1 0x40 PUSH1 0x0 KECCAK256 SLOAD AND PUSH2 0xAF4 JUMPI CALLER PUSH1 0x0 MSTORE PUSH1 0x3 PUSH1 0x20 MSTORE PUSH1 0x40 PUSH1 0x0 KECCAK256 PUSH1 0x40 MLOAD PUSH2 0x1101 DUP2 PUSH2 0x19CD JUMP JUMPDEST PUSH1 0x80 PUSH1 0x4 DUP4 SLOAD SWAP4 DUP5 DUP5 MSTORE PUSH1 0x1 DUP2 ADD SLOAD PUSH1 0x20 DUP6 ADD MSTORE PUSH1 0x2 DUP2 ADD SLOAD PUSH1 0x40 DUP6 ADD MSTORE PUSH1 0x3 DUP2 ADD SLOAD PUSH1 0x60 DUP6 ADD MSTORE ADD SLOAD SWAP2 ADD MSTORE PUSH1 0x64 DUP2 MUL SWAP1 DUP1 DUP3 DIV PUSH1 0x64 EQ SWAP1 ISZERO OR ISZERO PUSH2 0xADE JUMPI PUSH1 0x20 SWAP6 PUSH2 0x3E8 PUSH1 0x9 SWAP3 DIV SWAP3 PUSH1 0x2 PUSH1 0x40 MLOAD SWAP2 PUSH2 0x115B DUP4 PUSH2 0x19E9 JUMP JUMPDEST PUSH1 0x1 DUP4 MSTORE DUP10 DUP4 ADD PUSH1 0x0 DUP2 MSTORE PUSH1 0x40 DUP5 ADD SWAP1 DUP8 DUP3 MSTORE PUSH1 0x60 DUP6 ADD SWAP3 PUSH1 0xA DUP5 MSTORE CALLER PUSH1 0x0 MSTORE DUP13 MSTORE PUSH2 0x119B PUSH1 0x40 PUSH1 0x0 KECCAK256 SWAP6 MLOAD ISZERO ISZERO DUP7 SWAP1 PUSH1 0xFF DUP1 NOT DUP4 SLOAD AND SWAP2 ISZERO ISZERO AND OR SWAP1 SSTORE JUMP JUMPDEST MLOAD PUSH2 0x11A5 DUP2 PUSH2 0x1AE9 JUMP JUMPDEST PUSH2 0x11AE DUP2 PUSH2 0x1AE9 JUMP JUMPDEST PUSH2 0xFF00 DUP6 SLOAD SWAP2 PUSH1 0x8 SHL AND SWAP1 PUSH2 0xFF00 NOT AND OR DUP5 SSTORE MLOAD PUSH1 0x1 DUP5 ADD SSTORE MLOAD SWAP2 ADD SSTORE PUSH1 0x7 DUP2 ADD PUSH2 0x11DA DUP5 DUP3 SLOAD PUSH2 0x1E6A JUMP JUMPDEST SWAP1 SSTORE ADD PUSH2 0x11E8 DUP3 DUP3 SLOAD PUSH2 0x1E6A JUMP JUMPDEST SWAP1 SSTORE PUSH1 0x40 MLOAD SWAP1 PUSH1 0x0 DUP3 MSTORE DUP6 DUP3 ADD MSTORE DUP4 PUSH32 0xB83D25C6A5D258561330739951487ACB4BD09BA5190B5D32C4F261817D906792 PUSH1 0x40 CALLER SWAP4 LOG3 DUP3 PUSH32 0x13B23F04F3EBDA1DFA81D7178B32B76C4BF35879A70C233D0A9251C24BD3DF9 PUSH1 0x40 MLOAD PUSH1 0x0 DUP2 MSTORE PUSH1 0x40 DUP8 DUP3 ADD MSTORE DUP1 PUSH2 0x125C CALLER SWAP7 PUSH1 0x40 DUP4 ADD SWAP1 PUSH2 0x1B09 JUMP JUMPDEST SUB SWAP1 LOG4 PUSH1 0x1 DUP1 SSTORE PUSH1 0x40 MLOAD SWAP1 DUP2 MSTORE RETURN JUMPDEST ADD MLOAD SWAP1 POP DUP7 DUP1 PUSH2 0x1074 JUMP JUMPDEST PUSH1 0x4 DUP6 ADD PUSH1 0x0 SWAP1 DUP2 MSTORE PUSH1 0x20 DUP2 KECCAK256 SWAP4 POP PUSH1 0x1F NOT DUP6 AND SWAP1 JUMPDEST DUP2 DUP2 LT PUSH2 0x12CB JUMPI POP SWAP1 DUP5 PUSH1 0x1 SWAP6 SWAP5 SWAP4 SWAP3 LT PUSH2 0x12B2 JUMPI JUMPDEST POP POP POP DUP2 SHL ADD PUSH1 0x4 DUP3 ADD SSTORE PUSH2 0x108C JUMP JUMPDEST ADD MLOAD PUSH1 0x0 NOT PUSH1 0xF8 DUP5 PUSH1 0x3 SHL AND SHR NOT AND SWAP1 SSTORE DUP7 DUP1 DUP1 PUSH2 0x12A2 JUMP JUMPDEST SWAP3 SWAP4 PUSH1 0x20 PUSH1 0x1 DUP2 SWAP3 DUP8 DUP7 ADD MLOAD DUP2 SSTORE ADD SWAP6 ADD SWAP4 ADD PUSH2 0x128C JUMP JUMPDEST SWAP1 SWAP2 POP PUSH1 0x4 DUP5 ADD PUSH1 0x0 MSTORE PUSH1 0x20 PUSH1 0x0 KECCAK256 PUSH1 0x1F DUP5 ADD PUSH1 0x5 SHR DUP2 ADD SWAP2 PUSH1 0x20 DUP6 LT PUSH2 0x132F JUMPI JUMPDEST SWAP1 PUSH1 0x1F DUP6 SWAP5 SWAP4 SWAP3 ADD PUSH1 0x5 SHR ADD SWAP1 JUMPDEST DUP2 DUP2 LT PUSH2 0x1320 JUMPI POP PUSH2 0x105D JUMP JUMPDEST PUSH1 0x0 DUP2 SSTORE DUP5 SWAP4 POP PUSH1 0x1 ADD PUSH2 0x1313 JUMP JUMPDEST SWAP1 SWAP2 POP DUP2 SWAP1 PUSH2 0x1305 JUMP JUMPDEST SWAP1 POP DUP5 ADD MLOAD DUP8 PUSH2 0x101C JUMP JUMPDEST SWAP2 POP PUSH1 0x3 DUP5 ADD PUSH1 0x0 MSTORE PUSH1 0x20 PUSH1 0x0 KECCAK256 PUSH1 0x0 SWAP3 JUMPDEST PUSH1 0x1F NOT DUP4 AND DUP5 LT PUSH2 0x1399 JUMPI PUSH1 0x1 SWAP4 POP DUP3 PUSH1 0x1F NOT DUP2 AND LT PUSH2 0x1380 JUMPI JUMPDEST POP POP DUP2 SHL ADD PUSH1 0x3 DUP4 ADD SSTORE PUSH2 0x1033 JUMP JUMPDEST DUP7 ADD MLOAD PUSH1 0x0 NOT PUSH1 0xF8 DUP5 PUSH1 0x3 SHL AND SHR NOT AND SWAP1 SSTORE DUP8 DUP1 PUSH2 0x1371 JUMP JUMPDEST DUP7 DUP2 ADD MLOAD DUP3 SSTORE PUSH1 0x20 SWAP4 DUP5 ADD SWAP4 PUSH1 0x1 SWAP1 SWAP3 ADD SWAP2 ADD PUSH2 0x1356 JUMP JUMPDEST PUSH1 0x3 DUP5 ADD PUSH1 0x0 MSTORE PUSH1 0x20 PUSH1 0x0 KECCAK256 PUSH1 0x1F DUP4 ADD PUSH1 0x5 SHR DUP2 ADD PUSH1 0x20 DUP5 LT PUSH2 0x13F1 JUMPI JUMPDEST PUSH1 0x1F DUP4 ADD PUSH1 0x5 SHR DUP3 ADD DUP2 LT PUSH2 0x13E5 JUMPI POP POP PUSH2 0x1005 JUMP JUMPDEST PUSH1 0x0 DUP2 SSTORE PUSH1 0x1 ADD PUSH2 0x13CF JUMP JUMPDEST POP DUP1 PUSH2 0x13CF JUMP JUMPDEST PUSH1 0x40 MLOAD PUSH3 0x461BCD PUSH1 0xE5 SHL DUP2 MSTORE PUSH1 0x20 PUSH1 0x4 DUP3 ADD MSTORE PUSH1 0x17 PUSH1 0x24 DUP3 ADD MSTORE PUSH32 0x50726F706F73616C20616C726561647920657869737473000000000000000000 PUSH1 0x44 DUP3 ADD MSTORE PUSH1 0x64 SWAP1 REVERT JUMPDEST CALLVALUE PUSH2 0x1D5 JUMPI PUSH1 0x40 CALLDATASIZE PUSH1 0x3 NOT ADD SLT PUSH2 0x1D5 JUMPI PUSH2 0x1456 PUSH2 0x1B7B JUMP JUMPDEST CALLER PUSH1 0x1 PUSH1 0x1 PUSH1 0xA0 SHL SUB DUP3 AND SUB PUSH2 0x1472 JUMPI PUSH2 0x30A SWAP1 PUSH1 0x4 CALLDATALOAD PUSH2 0x1D7E JUMP JUMPDEST PUSH1 0x40 MLOAD PUSH4 0x334BD919 PUSH1 0xE1 SHL DUP2 MSTORE PUSH1 0x4 SWAP1 REVERT JUMPDEST CALLVALUE PUSH2 0x1D5 JUMPI PUSH1 0x40 CALLDATASIZE PUSH1 0x3 NOT ADD SLT PUSH2 0x1D5 JUMPI PUSH2 0x30A PUSH1 0x4 CALLDATALOAD PUSH2 0x14A3 PUSH2 0x1B7B JUMP JUMPDEST SWAP1 DUP1 PUSH1 0x0 MSTORE PUSH1 0x0 PUSH1 0x20 MSTORE PUSH2 0x14BE PUSH1 0x1 PUSH1 0x40 PUSH1 0x0 KECCAK256 ADD SLOAD PUSH2 0x1CDA JUMP JUMPDEST PUSH2 0x1D00 JUMP JUMPDEST CALLVALUE PUSH2 0x1D5 JUMPI PUSH1 0x20 CALLDATASIZE PUSH1 0x3 NOT ADD SLT PUSH2 0x1D5 JUMPI PUSH1 0x4 CALLDATALOAD PUSH1 0x0 MSTORE PUSH1 0x0 PUSH1 0x20 MSTORE PUSH1 0x20 PUSH1 0x1 PUSH1 0x40 PUSH1 0x0 KECCAK256 ADD SLOAD PUSH1 0x40 MLOAD SWAP1 DUP2 MSTORE RETURN JUMPDEST CALLVALUE PUSH2 0x1D5 JUMPI PUSH1 0x40 CALLDATASIZE PUSH1 0x3 NOT ADD SLT PUSH2 0x1D5 JUMPI PUSH1 0x20 PUSH2 0x1519 PUSH2 0x1510 PUSH2 0x1B65 JUMP JUMPDEST PUSH1 0x24 CALLDATALOAD SWAP1 PUSH2 0x1E9A JUMP JUMPDEST PUSH1 0x40 MLOAD SWAP1 ISZERO ISZERO DUP2 MSTORE RETURN JUMPDEST CALLVALUE PUSH2 0x1D5 JUMPI PUSH1 0x20 CALLDATASIZE PUSH1 0x3 NOT ADD SLT PUSH2 0x1D5 JUMPI PUSH1 0x4 CALLDATALOAD PUSH1 0x0 MSTORE PUSH1 0x4 PUSH1 0x20 MSTORE PUSH1 0x20 PUSH1 0x40 PUSH1 0x0 KECCAK256 SLOAD PUSH1 0x40 MLOAD SWAP1 DUP2 MSTORE RETURN JUMPDEST CALLVALUE PUSH2 0x1D5 JUMPI PUSH1 0x20 DUP1 PUSH1 0x3 NOT CALLDATASIZE ADD SLT PUSH2 0x1D5 JUMPI PUSH1 0x4 CALLDATALOAD PUSH2 0x156C PUSH2 0x1E77 JUMP JUMPDEST DUP1 PUSH1 0x0 MSTORE PUSH1 0x2 SWAP2 DUP3 DUP2 MSTORE PUSH1 0x40 PUSH1 0x0 KECCAK256 SWAP3 PUSH1 0x6 DUP5 ADD SLOAD TIMESTAMP GT ISZERO PUSH2 0x1816 JUMPI PUSH1 0xA DUP5 ADD DUP1 SLOAD PUSH1 0xFF DUP2 AND PUSH2 0x17DE JUMPI PUSH1 0xFF NOT AND PUSH1 0x1 OR SWAP1 SSTORE PUSH1 0x7 DUP5 ADD SLOAD PUSH1 0x8 DUP1 DUP7 ADD SLOAD SWAP2 SWAP1 SWAP2 LT SWAP2 DUP3 ISZERO PUSH2 0x17AF JUMPI PUSH1 0x40 MLOAD PUSH2 0x15C1 DUP2 PUSH2 0x1A05 JUMP JUMPDEST PUSH1 0xF DUP2 MSTORE PUSH15 0x141C9BDC1BDCD85B081C185CDCD959 PUSH1 0x8A SHL DUP6 DUP3 ADD MSTORE SWAP6 JUMPDEST DUP4 ISZERO PUSH2 0x1738 JUMPI DUP2 ADD SLOAD PUSH1 0xFF AND PUSH2 0x15F3 DUP2 PUSH2 0x1AE9 JUMP JUMPDEST PUSH2 0x16AB JUMPI DUP5 PUSH1 0x0 MSTORE DUP1 DUP5 MSTORE PUSH1 0x40 PUSH1 0x0 KECCAK256 SWAP2 DUP2 DUP4 ADD PUSH1 0x1 DUP1 PUSH1 0xA0 SHL SUB SWAP3 DUP4 DUP3 SLOAD DUP5 SHR AND PUSH1 0x0 MSTORE PUSH1 0x3 DUP8 MSTORE PUSH1 0x40 PUSH1 0x0 KECCAK256 PUSH2 0x162B DUP2 SLOAD PUSH2 0x1E4E JUMP JUMPDEST SWAP1 SSTORE DUP4 DUP3 SLOAD DUP5 SHR AND PUSH1 0x0 MSTORE PUSH1 0x3 DUP8 MSTORE PUSH1 0x40 PUSH1 0x0 KECCAK256 ADD PUSH2 0x164A DUP2 SLOAD PUSH2 0x1E5C JUMP JUMPDEST SWAP1 SSTORE SLOAD SWAP1 SHR AND PUSH1 0x0 MSTORE PUSH1 0x3 DUP4 MSTORE PUSH1 0x9 PUSH1 0x0 SWAP2 ADD SLOAD SWAP1 JUMPDEST DUP2 DUP2 LT PUSH2 0x169D JUMPI POP POP PUSH2 0x1694 PUSH1 0x0 DUP1 MLOAD PUSH1 0x20 PUSH2 0x1EFA DUP4 CODECOPY DUP2 MLOAD SWAP2 MSTORE SWAP4 SWAP5 JUMPDEST PUSH1 0x40 DUP1 MLOAD SWAP5 DUP6 SWAP5 DUP6 MSTORE DUP5 ADD MSTORE PUSH1 0x40 DUP4 ADD SWAP1 PUSH2 0x1B09 JUMP JUMPDEST SUB SWAP1 LOG2 PUSH1 0x1 DUP1 SSTORE STOP JUMPDEST PUSH2 0x16A6 SWAP1 PUSH2 0x1E3F JUMP JUMPDEST PUSH2 0x1660 JUMP JUMPDEST SWAP1 DUP5 PUSH1 0x0 MSTORE DUP2 DUP5 MSTORE PUSH1 0x40 PUSH1 0x0 KECCAK256 SWAP2 DUP3 ADD SWAP1 PUSH1 0x1 DUP1 PUSH1 0xA0 SHL SUB SWAP2 DUP3 DUP2 SLOAD DUP4 SHR AND PUSH1 0x0 MSTORE PUSH1 0x3 DUP7 MSTORE PUSH1 0x40 PUSH1 0x0 KECCAK256 PUSH2 0x16E0 DUP2 SLOAD PUSH2 0x1E4E JUMP JUMPDEST SWAP1 SSTORE SLOAD SWAP1 SHR AND PUSH1 0x3 DUP5 MSTORE PUSH1 0x0 MSTORE PUSH1 0x3 PUSH1 0x40 PUSH1 0x0 KECCAK256 ADD PUSH2 0x16FF DUP2 SLOAD PUSH2 0x1E5C JUMP JUMPDEST SWAP1 SSTORE PUSH1 0x9 ADD SLOAD PUSH1 0x0 JUMPDEST DUP2 DUP2 LT PUSH2 0x172A JUMPI POP POP PUSH2 0x1694 PUSH1 0x0 DUP1 MLOAD PUSH1 0x20 PUSH2 0x1EFA DUP4 CODECOPY DUP2 MLOAD SWAP2 MSTORE SWAP4 SWAP5 PUSH2 0x167E JUMP JUMPDEST PUSH2 0x1733 SWAP1 PUSH2 0x1E3F JUMP JUMPDEST PUSH2 0x1708 JUMP JUMPDEST POP PUSH1 0x0 DUP6 DUP2 MSTORE DUP2 DUP6 MSTORE PUSH1 0x40 DUP1 DUP3 KECCAK256 SWAP1 SWAP3 ADD SLOAD SWAP1 SWAP3 SHR PUSH1 0x1 PUSH1 0x1 PUSH1 0xA0 SHL SUB AND DUP3 MSTORE PUSH1 0x3 DUP5 MSTORE SWAP1 KECCAK256 DUP1 SLOAD SWAP4 SWAP5 SWAP4 SWAP1 PUSH1 0xA DUP3 GT PUSH2 0x1787 JUMPI JUMPDEST POP POP PUSH2 0x1694 PUSH1 0x0 DUP1 MLOAD PUSH1 0x20 PUSH2 0x1EFA DUP4 CODECOPY DUP2 MLOAD SWAP2 MSTORE SWAP4 PUSH2 0x167E JUMP JUMPDEST PUSH1 0x9 NOT DUP3 ADD SWAP5 SWAP1 SWAP2 DUP6 GT PUSH2 0xADE JUMPI SWAP4 SWAP1 SSTORE PUSH2 0x1694 PUSH1 0x0 DUP1 MLOAD PUSH1 0x20 PUSH2 0x1EFA DUP4 CODECOPY DUP2 MLOAD SWAP2 MSTORE PUSH2 0x176D JUMP JUMPDEST PUSH1 0x40 MLOAD PUSH2 0x17BB DUP2 PUSH2 0x1A05 JUMP JUMPDEST PUSH1 0x11 DUP2 MSTORE PUSH17 0x141C9BDC1BDCD85B081C995A9958DD1959 PUSH1 0x7A SHL DUP6 DUP3 ADD MSTORE SWAP6 PUSH2 0x15DE JUMP JUMPDEST PUSH1 0x40 MLOAD PUSH3 0x461BCD PUSH1 0xE5 SHL DUP2 MSTORE PUSH1 0x4 DUP2 ADD DUP6 SWAP1 MSTORE PUSH1 0x10 PUSH1 0x24 DUP3 ADD MSTORE PUSH16 0x105B1C9958591E48195E1958DD5D1959 PUSH1 0x82 SHL PUSH1 0x44 DUP3 ADD MSTORE PUSH1 0x64 SWAP1 REVERT JUMPDEST PUSH1 0x40 MLOAD PUSH3 0x461BCD PUSH1 0xE5 SHL DUP2 MSTORE PUSH1 0x4 DUP2 ADD DUP4 SWAP1 MSTORE PUSH1 0x10 PUSH1 0x24 DUP3 ADD MSTORE PUSH16 0x159BDD1A5B99C81B9BDD08195B991959 PUSH1 0x82 SHL PUSH1 0x44 DUP3 ADD MSTORE PUSH1 0x64 SWAP1 REVERT JUMPDEST CALLVALUE PUSH2 0x1D5 JUMPI PUSH1 0x20 CALLDATASIZE PUSH1 0x3 NOT ADD SLT PUSH2 0x1D5 JUMPI PUSH1 0x4 CALLDATALOAD PUSH4 0xFFFFFFFF PUSH1 0xE0 SHL DUP2 AND DUP1 SWAP2 SUB PUSH2 0x1D5 JUMPI PUSH1 0x20 SWAP1 PUSH4 0x7965DB0B PUSH1 0xE0 SHL DUP2 EQ SWAP1 DUP2 ISZERO PUSH2 0x1893 JUMPI JUMPDEST POP PUSH1 0x40 MLOAD SWAP1 ISZERO ISZERO DUP2 MSTORE RETURN JUMPDEST PUSH4 0x1FFC9A7 PUSH1 0xE0 SHL EQ SWAP1 POP DUP3 PUSH2 0x1888 JUMP JUMPDEST CALLVALUE PUSH2 0x1D5 JUMPI PUSH1 0x20 CALLDATASIZE PUSH1 0x3 NOT ADD SLT PUSH2 0x1D5 JUMPI PUSH1 0x4 CALLDATALOAD PUSH1 0x0 MSTORE PUSH1 0x2 PUSH1 0x20 MSTORE PUSH1 0x20 PUSH1 0x40 PUSH1 0x0 KECCAK256 DUP1 SLOAD SWAP1 PUSH1 0x1 DUP2 ADD SLOAD PUSH1 0x2 DUP3 ADD SLOAD SWAP2 PUSH1 0xFF DUP4 AND PUSH2 0x18E5 PUSH1 0x3 DUP4 ADD PUSH2 0x1A43 JUMP JUMPDEST SWAP4 PUSH2 0x18F2 PUSH1 0x4 DUP5 ADD PUSH2 0x1A43 JUMP JUMPDEST SWAP5 PUSH2 0x196A PUSH1 0x5 DUP6 ADD SLOAD SWAP7 PUSH2 0x195C PUSH1 0x6 DUP8 ADD SLOAD SWAP4 PUSH1 0x7 DUP9 ADD SLOAD SWAP6 PUSH1 0x8 DUP10 ADD SLOAD SWAP8 PUSH1 0xFF PUSH1 0xA PUSH1 0x9 DUP13 ADD SLOAD SWAP12 ADD SLOAD AND SWAP11 PUSH1 0x40 MLOAD SWAP15 DUP16 SWAP15 DUP16 SWAP1 DUP2 MSTORE ADD MSTORE PUSH2 0x1934 DUP2 PUSH2 0x1AE9 JUMP JUMPDEST PUSH1 0x40 DUP14 ADD MSTORE PUSH1 0x8 SHR PUSH1 0x1 PUSH1 0x1 PUSH1 0xA0 SHL SUB AND PUSH1 0x60 DUP13 ADD MSTORE PUSH2 0x180 PUSH1 0x80 DUP13 ADD DUP2 SWAP1 MSTORE DUP12 ADD SWAP1 PUSH2 0x1B09 JUMP JUMPDEST SWAP1 DUP10 DUP3 SUB PUSH1 0xA0 DUP12 ADD MSTORE PUSH2 0x1B09 JUMP JUMPDEST SWAP6 PUSH1 0xC0 DUP9 ADD MSTORE PUSH1 0xE0 DUP8 ADD MSTORE PUSH2 0x100 DUP7 ADD MSTORE PUSH2 0x120 DUP6 ADD MSTORE PUSH2 0x140 DUP5 ADD MSTORE ISZERO ISZERO PUSH2 0x160 DUP4 ADD MSTORE SUB SWAP1 RETURN JUMPDEST SWAP1 PUSH1 0x1 DUP3 DUP2 SHR SWAP3 AND DUP1 ISZERO PUSH2 0x19C3 JUMPI JUMPDEST PUSH1 0x20 DUP4 LT EQ PUSH2 0x19AD JUMPI JUMP JUMPDEST PUSH4 0x4E487B71 PUSH1 0xE0 SHL PUSH1 0x0 MSTORE PUSH1 0x22 PUSH1 0x4 MSTORE PUSH1 0x24 PUSH1 0x0 REVERT JUMPDEST SWAP2 PUSH1 0x7F AND SWAP2 PUSH2 0x19A2 JUMP JUMPDEST PUSH1 0xA0 DUP2 ADD SWAP1 DUP2 LT PUSH8 0xFFFFFFFFFFFFFFFF DUP3 GT OR PUSH2 0xB5D JUMPI PUSH1 0x40 MSTORE JUMP JUMPDEST PUSH1 0x80 DUP2 ADD SWAP1 DUP2 LT PUSH8 0xFFFFFFFFFFFFFFFF DUP3 GT OR PUSH2 0xB5D JUMPI PUSH1 0x40 MSTORE JUMP JUMPDEST PUSH1 0x40 DUP2 ADD SWAP1 DUP2 LT PUSH8 0xFFFFFFFFFFFFFFFF DUP3 GT OR PUSH2 0xB5D JUMPI PUSH1 0x40 MSTORE JUMP JUMPDEST SWAP1 PUSH1 0x1F DUP1 NOT SWAP2 ADD AND DUP2 ADD SWAP1 DUP2 LT PUSH8 0xFFFFFFFFFFFFFFFF DUP3 GT OR PUSH2 0xB5D JUMPI PUSH1 0x40 MSTORE JUMP JUMPDEST SWAP1 PUSH1 0x40 MLOAD SWAP2 DUP3 PUSH1 0x0 DUP3 SLOAD SWAP3 PUSH2 0x1A57 DUP5 PUSH2 0x1993 JUMP JUMPDEST SWAP1 DUP2 DUP5 MSTORE PUSH1 0x1 SWAP5 DUP6 DUP2 AND SWAP1 DUP2 PUSH1 0x0 EQ PUSH2 0x1AC6 JUMPI POP PUSH1 0x1 EQ PUSH2 0x1A83 JUMPI JUMPDEST POP POP PUSH2 0x1A81 SWAP3 POP SUB DUP4 PUSH2 0x1A21 JUMP JUMPDEST JUMP JUMPDEST SWAP1 SWAP4 SWAP2 POP PUSH1 0x0 MSTORE PUSH1 0x20 SWAP1 DUP2 PUSH1 0x0 KECCAK256 SWAP4 PUSH1 0x0 SWAP2 JUMPDEST DUP2 DUP4 LT PUSH2 0x1AAE JUMPI POP POP PUSH2 0x1A81 SWAP4 POP DUP3 ADD ADD CODESIZE DUP1 PUSH2 0x1A73 JUMP JUMPDEST DUP6 SLOAD DUP9 DUP5 ADD DUP6 ADD MSTORE SWAP5 DUP6 ADD SWAP5 DUP8 SWAP5 POP SWAP2 DUP4 ADD SWAP2 PUSH2 0x1A96 JUMP JUMPDEST SWAP2 POP POP PUSH2 0x1A81 SWAP5 POP PUSH1 0x20 SWAP3 POP PUSH1 0xFF NOT AND DUP3 DUP5 ADD MSTORE ISZERO ISZERO PUSH1 0x5 SHL DUP3 ADD ADD CODESIZE DUP1 PUSH2 0x1A73 JUMP JUMPDEST PUSH1 0x2 GT ISZERO PUSH2 0x1AF3 JUMPI JUMP JUMPDEST PUSH4 0x4E487B71 PUSH1 0xE0 SHL PUSH1 0x0 MSTORE PUSH1 0x21 PUSH1 0x4 MSTORE PUSH1 0x24 PUSH1 0x0 REVERT JUMPDEST SWAP2 SWAP1 DUP3 MLOAD SWAP3 DUP4 DUP3 MSTORE PUSH1 0x0 JUMPDEST DUP5 DUP2 LT PUSH2 0x1B35 JUMPI POP POP DUP3 PUSH1 0x0 PUSH1 0x20 DUP1 SWAP5 SWAP6 DUP5 ADD ADD MSTORE PUSH1 0x1F DUP1 NOT SWAP2 ADD AND ADD ADD SWAP1 JUMP JUMPDEST PUSH1 0x20 DUP2 DUP4 ADD DUP2 ADD MLOAD DUP5 DUP4 ADD DUP3 ADD MSTORE ADD PUSH2 0x1B14 JUMP JUMPDEST CALLVALUE PUSH2 0x1D5 JUMPI PUSH1 0x0 CALLDATASIZE PUSH1 0x3 NOT ADD SLT PUSH2 0x1D5 JUMPI PUSH1 0x20 PUSH1 0x40 MLOAD PUSH1 0x64 DUP2 MSTORE RETURN JUMPDEST PUSH1 0x4 CALLDATALOAD SWAP1 PUSH1 0x1 PUSH1 0x1 PUSH1 0xA0 SHL SUB DUP3 AND DUP3 SUB PUSH2 0x1D5 JUMPI JUMP JUMPDEST PUSH1 0x24 CALLDATALOAD SWAP1 PUSH1 0x1 PUSH1 0x1 PUSH1 0xA0 SHL SUB DUP3 AND DUP3 SUB PUSH2 0x1D5 JUMPI JUMP JUMPDEST DUP2 PUSH1 0x1F DUP3 ADD SLT ISZERO PUSH2 0x1D5 JUMPI DUP1 CALLDATALOAD SWAP1 PUSH8 0xFFFFFFFFFFFFFFFF DUP3 GT PUSH2 0xB5D JUMPI PUSH1 0x40 MLOAD SWAP3 PUSH2 0x1BC6 PUSH1 0x1F DUP5 ADD PUSH1 0x1F NOT AND PUSH1 0x20 ADD DUP6 PUSH2 0x1A21 JUMP JUMPDEST DUP3 DUP5 MSTORE PUSH1 0x20 DUP4 DUP4 ADD ADD GT PUSH2 0x1D5 JUMPI DUP2 PUSH1 0x0 SWAP3 PUSH1 0x20 DUP1 SWAP4 ADD DUP4 DUP7 ADD CALLDATACOPY DUP4 ADD ADD MSTORE SWAP1 JUMP JUMPDEST PUSH1 0x60 PUSH1 0x3 NOT DUP3 ADD SLT PUSH2 0x1D5 JUMPI PUSH1 0x4 CALLDATALOAD SWAP2 PUSH8 0xFFFFFFFFFFFFFFFF PUSH1 0x24 CALLDATALOAD DUP2 DUP2 GT PUSH2 0x1D5 JUMPI DUP4 PUSH2 0x1C18 SWAP2 PUSH1 0x4 ADD PUSH2 0x1B91 JUMP JUMPDEST SWAP3 PUSH1 0x44 CALLDATALOAD SWAP2 DUP3 GT PUSH2 0x1D5 JUMPI PUSH2 0x1C2F SWAP2 PUSH1 0x4 ADD PUSH2 0x1B91 JUMP JUMPDEST SWAP1 JUMP JUMPDEST DUP1 SLOAD DUP3 LT ISZERO PUSH2 0x1C4A JUMPI PUSH1 0x0 MSTORE PUSH1 0x20 PUSH1 0x0 KECCAK256 ADD SWAP1 PUSH1 0x0 SWAP1 JUMP JUMPDEST PUSH4 0x4E487B71 PUSH1 0xE0 SHL PUSH1 0x0 MSTORE PUSH1 0x32 PUSH1 0x4 MSTORE PUSH1 0x24 PUSH1 0x0 REVERT JUMPDEST CALLER PUSH1 0x0 SWAP1 DUP2 MSTORE PUSH32 0x7D7FFB7A348E1C6A02869081A26547B49160DD3DF72D1D75A570EB9B698292EC PUSH1 0x20 MSTORE PUSH1 0x40 SWAP1 KECCAK256 SLOAD PUSH32 0xA49807205CE4D355092EF5A8A18F56E8913CF4A201FBE287825B095693C21775 SWAP1 PUSH1 0xFF AND ISZERO PUSH2 0x1CBC JUMPI POP JUMP JUMPDEST PUSH1 0x44 SWAP1 PUSH1 0x40 MLOAD SWAP1 PUSH4 0xE2517D3F PUSH1 0xE0 SHL DUP3 MSTORE CALLER PUSH1 0x4 DUP4 ADD MSTORE PUSH1 0x24 DUP3 ADD MSTORE REVERT JUMPDEST DUP1 PUSH1 0x0 MSTORE PUSH1 0x0 PUSH1 0x20 MSTORE PUSH1 0x40 PUSH1 0x0 KECCAK256 CALLER PUSH1 0x0 MSTORE PUSH1 0x20 MSTORE PUSH1 0xFF PUSH1 0x40 PUSH1 0x0 KECCAK256 SLOAD AND ISZERO PUSH2 0x1CBC JUMPI POP JUMP JUMPDEST SWAP1 PUSH1 0x0 SWAP2 DUP1 DUP4 MSTORE DUP3 PUSH1 0x20 MSTORE PUSH1 0x40 DUP4 KECCAK256 SWAP2 PUSH1 0x1 DUP1 PUSH1 0xA0 SHL SUB AND SWAP2 DUP3 DUP5 MSTORE PUSH1 0x20 MSTORE PUSH1 0xFF PUSH1 0x40 DUP5 KECCAK256 SLOAD AND ISZERO PUSH1 0x0 EQ PUSH2 0x1D79 JUMPI DUP1 DUP4 MSTORE DUP3 PUSH1 0x20 MSTORE PUSH1 0x40 DUP4 KECCAK256 DUP3 DUP5 MSTORE PUSH1 0x20 MSTORE PUSH1 0x40 DUP4 KECCAK256 PUSH1 0x1 PUSH1 0xFF NOT DUP3 SLOAD AND OR SWAP1 SSTORE PUSH32 0x2F8788117E7EFF1D82E926EC794901D17C78024A50270940304540A733656F0D CALLER SWAP4 DUP1 LOG4 PUSH1 0x1 SWAP1 JUMP JUMPDEST POP POP SWAP1 JUMP JUMPDEST SWAP1 PUSH1 0x0 SWAP2 DUP1 DUP4 MSTORE DUP3 PUSH1 0x20 MSTORE PUSH1 0x40 DUP4 KECCAK256 SWAP2 PUSH1 0x1 DUP1 PUSH1 0xA0 SHL SUB AND SWAP2 DUP3 DUP5 MSTORE PUSH1 0x20 MSTORE PUSH1 0xFF PUSH1 0x40 DUP5 KECCAK256 SLOAD AND PUSH1 0x0 EQ PUSH2 0x1D79 JUMPI DUP1 DUP4 MSTORE DUP3 PUSH1 0x20 MSTORE PUSH1 0x40 DUP4 KECCAK256 DUP3 DUP5 MSTORE PUSH1 0x20 MSTORE PUSH1 0x40 DUP4 KECCAK256 PUSH1 0xFF NOT DUP2 SLOAD AND SWAP1 SSTORE PUSH32 0xF6391F5C32D9C69D2A47EA670B442974B53935D1EDC7FD64EB21E047A839171B CALLER SWAP4 DUP1 LOG4 PUSH1 0x1 SWAP1 JUMP JUMPDEST ISZERO PUSH2 0x1DFA JUMPI JUMP JUMPDEST PUSH1 0x40 MLOAD PUSH3 0x461BCD PUSH1 0xE5 SHL DUP2 MSTORE PUSH1 0x20 PUSH1 0x4 DUP3 ADD MSTORE PUSH1 0x17 PUSH1 0x24 DUP3 ADD MSTORE PUSH32 0x496E73756666696369656E742072657075746174696F6E000000000000000000 PUSH1 0x44 DUP3 ADD MSTORE PUSH1 0x64 SWAP1 REVERT JUMPDEST PUSH1 0x0 NOT DUP2 EQ PUSH2 0xADE JUMPI PUSH1 0x1 ADD SWAP1 JUMP JUMPDEST SWAP1 PUSH1 0x14 DUP3 ADD DUP1 SWAP3 GT PUSH2 0xADE JUMPI JUMP JUMPDEST SWAP1 PUSH1 0x1 DUP3 ADD DUP1 SWAP3 GT PUSH2 0xADE JUMPI JUMP JUMPDEST SWAP2 SWAP1 DUP3 ADD DUP1 SWAP3 GT PUSH2 0xADE JUMPI JUMP JUMPDEST PUSH1 0x2 PUSH1 0x1 SLOAD EQ PUSH2 0x1E88 JUMPI PUSH1 0x2 PUSH1 0x1 SSTORE JUMP JUMPDEST PUSH1 0x40 MLOAD PUSH4 0x3EE5AEB5 PUSH1 0xE0 SHL DUP2 MSTORE PUSH1 0x4 SWAP1 REVERT JUMPDEST PUSH1 0x1 PUSH1 0x1 PUSH1 0xA0 SHL SUB AND PUSH1 0x0 DUP2 DUP2 MSTORE PUSH1 0x3 PUSH1 0x20 MSTORE PUSH1 0x40 DUP2 KECCAK256 SLOAD SWAP1 SWAP3 SWAP1 PUSH1 0x64 GT PUSH2 0x1D79 JUMPI DUP3 MSTORE PUSH1 0x2 PUSH1 0x20 MSTORE PUSH1 0x40 DUP3 KECCAK256 PUSH1 0xFF PUSH1 0xA DUP3 ADD SLOAD AND PUSH2 0x1D79 JUMPI PUSH1 0x6 DUP2 ADD SLOAD TIMESTAMP GT PUSH2 0x1D79 JUMPI PUSH1 0xB SWAP2 DUP4 MSTORE ADD PUSH1 0x20 MSTORE PUSH1 0xFF PUSH1 0x40 DUP3 KECCAK256 SLOAD AND PUSH2 0x1C2F JUMPI POP PUSH1 0x1 SWAP1 JUMP INVALID DUP5 MULMOD 0xF7 0xBB 0xBA PUSH4 0x946CCAAF 0xD5 SWAP12 0xE 0xE4 0xD3 0xE7 0xFB 0xD9 LT LT XOR 0xD5 SIGNEXTEND 0x2D 0xE0 COINBASE 0xB1 SWAP9 PC BYTE 0xEA SWAP15 LOG2 PUSH5 0x6970667358 0x22 SLT KECCAK256 LOG2 0xC0 0x4E SWAP9 DUP13 EXP 0xD6 0xE3 BYTE GT 0xEC DUP14 LOG1 PUSH28 0x36DB8632796D1330A5C126090FCB7B1F9E5964736F6C634300081400 CALLER "},"methodIdentifiers":{"ADMIN_ROLE()":"75b238fc","DEFAULT_ADMIN_ROLE()":"a217fddf","MIN_REPUTATION_TO_VOTE()":"5df39207","REPUTATION_CHANGE_PER_VOTE()":"75530344","VERIFIER_ROLE()":"e7705db6","VOTE_WEIGHT_BASE()":"08c08400","VOTING_DURATION()":"a438d208","allProposalIds(uint256)":"c97bfe6b","canVote(address,uint256)":"19eb8d48","castVote(uint256,uint8)":"56781388","challengeNGO(uint256,string,string)":"5a462a20","createVerificationProposal(uint256,string,string)":"4a542b8f","executeProposal(uint256)":"0d61b519","getAllProposalIds()":"efa90d36","getProposal(uint256)":"c7f758a8","getRoleAdmin(bytes32)":"248a9ca3","getUserReputation(address)":"baccbfdb","grantRole(bytes32,address)":"2f2ff15d","hasRole(bytes32,address)":"91d14854","hasVotedOnProposal(address)":"7f80be75","initializeReputation(address)":"7bb27c11","ngoChallenges(uint256,uint256)":"8ec98877","ngoVerificationProposals(uint256)":"176ce8d7","proposals(uint256)":"013cf08b","renounceRole(bytes32,address)":"36568abe","revokeRole(bytes32,address)":"d547741f","supportsInterface(bytes4)":"01ffc9a7","updateNgoRegistry(address)":"99ffb682","userReputations(address)":"f8b11691"}}}}}