{
  "_format": "hh-sol-artifact-1",
  "contractName": "ServiceProviderRegistry",
  "sourceName": "contracts/ServiceProviderRegistry.sol",
  "abi": [
    {
      "inputs": [],
      "stateMutability": "nonpayable",
      "type": "constructor"
    },
    {
      "inputs": [],
      "name": "AccessControlBadConfirmation",
      "type": "error"
    },
    {
      "inputs": [
        {
          "internalType": "address",
          "name": "account",
          "type": "address"
        },
        {
          "internalType": "bytes32",
          "name": "neededRole",
          "type": "bytes32"
        }
      ],
      "name": "AccessControlUnauthorizedAccount",
      "type": "error"
    },
    {
      "inputs": [],
      "name": "EnforcedPause",
      "type": "error"
    },
    {
      "inputs": [],
      "name": "ExpectedPause",
      "type": "error"
    },
    {
      "anonymous": false,
      "inputs": [
        {
          "indexed": false,
          "internalType": "address",
          "name": "account",
          "type": "address"
        }
      ],
      "name": "Paused",
      "type": "event"
    },
    {
      "anonymous": false,
      "inputs": [
        {
          "indexed": true,
          "internalType": "uint256",
          "name": "providerId",
          "type": "uint256"
        },
        {
          "indexed": true,
          "internalType": "address",
          "name": "providerAddress",
          "type": "address"
        },
        {
          "indexed": false,
          "internalType": "string",
          "name": "name",
          "type": "string"
        }
      ],
      "name": "ProviderRegistered",
      "type": "event"
    },
    {
      "anonymous": false,
      "inputs": [
        {
          "indexed": true,
          "internalType": "uint256",
          "name": "providerId",
          "type": "uint256"
        },
        {
          "indexed": false,
          "internalType": "enum ServiceProviderRegistry.ProviderStatus",
          "name": "oldStatus",
          "type": "uint8"
        },
        {
          "indexed": false,
          "internalType": "enum ServiceProviderRegistry.ProviderStatus",
          "name": "newStatus",
          "type": "uint8"
        }
      ],
      "name": "ProviderStatusChanged",
      "type": "event"
    },
    {
      "anonymous": false,
      "inputs": [
        {
          "indexed": true,
          "internalType": "uint256",
          "name": "providerId",
          "type": "uint256"
        }
      ],
      "name": "ProviderVerified",
      "type": "event"
    },
    {
      "anonymous": false,
      "inputs": [
        {
          "indexed": true,
          "internalType": "uint256",
          "name": "providerId",
          "type": "uint256"
        },
        {
          "indexed": false,
          "internalType": "uint256",
          "name": "amount",
          "type": "uint256"
        }
      ],
      "name": "RedemptionRecorded",
      "type": "event"
    },
    {
      "anonymous": false,
      "inputs": [
        {
          "indexed": true,
          "internalType": "bytes32",
          "name": "role",
          "type": "bytes32"
        },
        {
          "indexed": true,
          "internalType": "bytes32",
          "name": "previousAdminRole",
          "type": "bytes32"
        },
        {
          "indexed": true,
          "internalType": "bytes32",
          "name": "newAdminRole",
          "type": "bytes32"
        }
      ],
      "name": "RoleAdminChanged",
      "type": "event"
    },
    {
      "anonymous": false,
      "inputs": [
        {
          "indexed": true,
          "internalType": "bytes32",
          "name": "role",
          "type": "bytes32"
        },
        {
          "indexed": true,
          "internalType": "address",
          "name": "account",
          "type": "address"
        },
        {
          "indexed": true,
          "internalType": "address",
          "name": "sender",
          "type": "address"
        }
      ],
      "name": "RoleGranted",
      "type": "event"
    },
    {
      "anonymous": false,
      "inputs": [
        {
          "indexed": true,
          "internalType": "bytes32",
          "name": "role",
          "type": "bytes32"
        },
        {
          "indexed": true,
          "internalType": "address",
          "name": "account",
          "type": "address"
        },
        {
          "indexed": true,
          "internalType": "address",
          "name": "sender",
          "type": "address"
        }
      ],
      "name": "RoleRevoked",
      "type": "event"
    },
    {
      "anonymous": false,
      "inputs": [
        {
          "indexed": false,
          "internalType": "address",
          "name": "account",
          "type": "address"
        }
      ],
      "name": "Unpaused",
      "type": "event"
    },
    {
      "inputs": [],
      "name": "ADMIN_ROLE",
      "outputs": [
        {
          "internalType": "bytes32",
          "name": "",
          "type": "bytes32"
        }
      ],
      "stateMutability": "view",
      "type": "function"
    },
    {
      "inputs": [],
      "name": "DEFAULT_ADMIN_ROLE",
      "outputs": [
        {
          "internalType": "bytes32",
          "name": "",
          "type": "bytes32"
        }
      ],
      "stateMutability": "view",
      "type": "function"
    },
    {
      "inputs": [],
      "name": "VERIFIER_ROLE",
      "outputs": [
        {
          "internalType": "bytes32",
          "name": "",
          "type": "bytes32"
        }
      ],
      "stateMutability": "view",
      "type": "function"
    },
    {
      "inputs": [
        {
          "internalType": "address",
          "name": "",
          "type": "address"
        }
      ],
      "name": "addressToProviderId",
      "outputs": [
        {
          "internalType": "uint256",
          "name": "",
          "type": "uint256"
        }
      ],
      "stateMutability": "view",
      "type": "function"
    },
    {
      "inputs": [
        {
          "internalType": "address",
          "name": "providerAddress",
          "type": "address"
        }
      ],
      "name": "getProviderByAddress",
      "outputs": [
        {
          "components": [
            {
              "internalType": "uint256",
              "name": "providerId",
              "type": "uint256"
            },
            {
              "internalType": "address",
              "name": "providerAddress",
              "type": "address"
            },
            {
              "internalType": "string",
              "name": "name",
              "type": "string"
            },
            {
              "internalType": "string",
              "name": "registrationNumber",
              "type": "string"
            },
            {
              "internalType": "string",
              "name": "serviceType",
              "type": "string"
            },
            {
              "internalType": "string",
              "name": "location",
              "type": "string"
            },
            {
              "internalType": "string",
              "name": "verificationDocHash",
              "type": "string"
            },
            {
              "internalType": "uint256",
              "name": "registeredAt",
              "type": "uint256"
            },
            {
              "internalType": "uint256",
              "name": "verifiedAt",
              "type": "uint256"
            },
            {
              "internalType": "enum ServiceProviderRegistry.ProviderStatus",
              "name": "status",
              "type": "uint8"
            },
            {
              "internalType": "uint256",
              "name": "totalRedemptions",
              "type": "uint256"
            },
            {
              "internalType": "uint256",
              "name": "totalAmountRedeemed",
              "type": "uint256"
            },
            {
              "internalType": "bool",
              "name": "isActive",
              "type": "bool"
            }
          ],
          "internalType": "struct ServiceProviderRegistry.ServiceProvider",
          "name": "",
          "type": "tuple"
        }
      ],
      "stateMutability": "view",
      "type": "function"
    },
    {
      "inputs": [
        {
          "internalType": "bytes32",
          "name": "role",
          "type": "bytes32"
        }
      ],
      "name": "getRoleAdmin",
      "outputs": [
        {
          "internalType": "bytes32",
          "name": "",
          "type": "bytes32"
        }
      ],
      "stateMutability": "view",
      "type": "function"
    },
    {
      "inputs": [
        {
          "internalType": "bytes32",
          "name": "role",
          "type": "bytes32"
        },
        {
          "internalType": "address",
          "name": "account",
          "type": "address"
        }
      ],
      "name": "grantRole",
      "outputs": [],
      "stateMutability": "nonpayable",
      "type": "function"
    },
    {
      "inputs": [
        {
          "internalType": "bytes32",
          "name": "role",
          "type": "bytes32"
        },
        {
          "internalType": "address",
          "name": "account",
          "type": "address"
        }
      ],
      "name": "hasRole",
      "outputs": [
        {
          "internalType": "bool",
          "name": "",
          "type": "bool"
        }
      ],
      "stateMutability": "view",
      "type": "function"
    },
    {
      "inputs": [
        {
          "internalType": "address",
          "name": "providerAddress",
          "type": "address"
        }
      ],
      "name": "isProviderVerified",
      "outputs": [
        {
          "internalType": "bool",
          "name": "",
          "type": "bool"
        }
      ],
      "stateMutability": "view",
      "type": "function"
    },
    {
      "inputs": [],
      "name": "pause",
      "outputs": [],
      "stateMutability": "nonpayable",
      "type": "function"
    },
    {
      "inputs": [],
      "name": "paused",
      "outputs": [
        {
          "internalType": "bool",
          "name": "",
          "type": "bool"
        }
      ],
      "stateMutability": "view",
      "type": "function"
    },
    {
      "inputs": [
        {
          "internalType": "uint256",
          "name": "",
          "type": "uint256"
        }
      ],
      "name": "providers",
      "outputs": [
        {
          "internalType": "uint256",
          "name": "providerId",
          "type": "uint256"
        },
        {
          "internalType": "address",
          "name": "providerAddress",
          "type": "address"
        },
        {
          "internalType": "string",
          "name": "name",
          "type": "string"
        },
        {
          "internalType": "string",
          "name": "registrationNumber",
          "type": "string"
        },
        {
          "internalType": "string",
          "name": "serviceType",
          "type": "string"
        },
        {
          "internalType": "string",
          "name": "location",
          "type": "string"
        },
        {
          "internalType": "string",
          "name": "verificationDocHash",
          "type": "string"
        },
        {
          "internalType": "uint256",
          "name": "registeredAt",
          "type": "uint256"
        },
        {
          "internalType": "uint256",
          "name": "verifiedAt",
          "type": "uint256"
        },
        {
          "internalType": "enum ServiceProviderRegistry.ProviderStatus",
          "name": "status",
          "type": "uint8"
        },
        {
          "internalType": "uint256",
          "name": "totalRedemptions",
          "type": "uint256"
        },
        {
          "internalType": "uint256",
          "name": "totalAmountRedeemed",
          "type": "uint256"
        },
        {
          "internalType": "bool",
          "name": "isActive",
          "type": "bool"
        }
      ],
      "stateMutability": "view",
      "type": "function"
    },
    {
      "inputs": [
        {
          "internalType": "uint256",
          "name": "providerId",
          "type": "uint256"
        },
        {
          "internalType": "uint256",
          "name": "amount",
          "type": "uint256"
        }
      ],
      "name": "recordRedemption",
      "outputs": [],
      "stateMutability": "nonpayable",
      "type": "function"
    },
    {
      "inputs": [
        {
          "internalType": "address",
          "name": "providerAddress",
          "type": "address"
        },
        {
          "internalType": "string",
          "name": "name",
          "type": "string"
        },
        {
          "internalType": "string",
          "name": "registrationNumber",
          "type": "string"
        },
        {
          "internalType": "string",
          "name": "serviceType",
          "type": "string"
        },
        {
          "internalType": "string",
          "name": "location",
          "type": "string"
        },
        {
          "internalType": "string",
          "name": "verificationDocHash",
          "type": "string"
        }
      ],
      "name": "registerProvider",
      "outputs": [
        {
          "internalType": "uint256",
          "name": "",
          "type": "uint256"
        }
      ],
      "stateMutability": "nonpayable",
      "type": "function"
    },
    {
      "inputs": [
        {
          "internalType": "bytes32",
          "name": "role",
          "type": "bytes32"
        },
        {
          "internalType": "address",
          "name": "callerConfirmation",
          "type": "address"
        }
      ],
      "name": "renounceRole",
      "outputs": [],
      "stateMutability": "nonpayable",
      "type": "function"
    },
    {
      "inputs": [
        {
          "internalType": "bytes32",
          "name": "role",
          "type": "bytes32"
        },
        {
          "internalType": "address",
          "name": "account",
          "type": "address"
        }
      ],
      "name": "revokeRole",
      "outputs": [],
      "stateMutability": "nonpayable",
      "type": "function"
    },
    {
      "inputs": [
        {
          "internalType": "bytes4",
          "name": "interfaceId",
          "type": "bytes4"
        }
      ],
      "name": "supportsInterface",
      "outputs": [
        {
          "internalType": "bool",
          "name": "",
          "type": "bool"
        }
      ],
      "stateMutability": "view",
      "type": "function"
    },
    {
      "inputs": [],
      "name": "unpause",
      "outputs": [],
      "stateMutability": "nonpayable",
      "type": "function"
    },
    {
      "inputs": [
        {
          "internalType": "uint256",
          "name": "providerId",
          "type": "uint256"
        }
      ],
      "name": "verifyProvider",
      "outputs": [],
      "stateMutability": "nonpayable",
      "type": "function"
    }
  ],
  "bytecode": "0x6080604052346200003e57620000153362000043565b506200002133620000c3565b506200002d3362000165565b506040516118699081620002038239f35b600080fd5b6001600160a01b031660008181527fad3228b676f7d3cd4284a5443f17f1962b36e491b30a40b2405849e597ba5fb5602052604081205490919060ff16620000bf57818052816020526040822081835260205260408220600160ff19825416179055339160008051602062001a6c8339815191528180a4600190565b5090565b6001600160a01b031660008181527f7d7ffb7a348e1c6a02869081a26547b49160dd3df72d1d75a570eb9b698292ec60205260408120549091907fa49807205ce4d355092ef5a8a18f56e8913cf4a201fbe287825b095693c217759060ff166200016057808352826020526040832082845260205260408320600160ff1982541617905560008051602062001a6c833981519152339380a4600190565b505090565b6001600160a01b031660008181527f1da0b5176dfe03406af5a6eed66ca01dda9b45ac4da671c3fa379cb93717ef8160205260408120549091907f0ce23c3e399818cfee81a7ab0880f714e53d7672b08df0fa62f2843416e1ea099060ff166200016057808352826020526040832082845260205260408320600160ff1982541617905560008051602062001a6c833981519152339380a460019056fe608080604052600436101561001357600080fd5b60003560e01c90816301ffc9a7146112d0575080630adc6045146109f75780632335bde014610762578063248a9ca3146107335780632f2ff15d146106f457806336568abe146106ad5780633f4ba83a1461064357806350f3fc811461050d57806358bd1175146104e05780635c975abb146104bd57806372b2d13a1461041f57806375b238fc146103e45780638456cb591461038b5780638c10b1881461021457806391d14854146101c7578063a217fddf146101ab578063d547741f1461016a578063e7705db61461012f5763e835440e146100f057600080fd5b3461012a57602036600319011261012a576001600160a01b03610111611323565b1660005260036020526020604060002054604051908152f35b600080fd5b3461012a57600036600319011261012a5760206040517f0ce23c3e399818cfee81a7ab0880f714e53d7672b08df0fa62f2843416e1ea098152f35b3461012a57604036600319011261012a576101a9600435610189611339565b908060005260006020526101a460016040600020015461156b565b61160f565b005b3461012a57600036600319011261012a57602060405160008152f35b3461012a57604036600319011261012a576101e0611339565b600435600052600060205260406000209060018060a01b0316600052602052602060ff604060002054166040519015158152f35b3461012a5760208060031936011261012a57600435907f0ce23c3e399818cfee81a7ab0880f714e53d7672b08df0fa62f2843416e1ea098060005260008252604060002033600052825260ff604060002054161561036d57508160005260048152604060002090610287825415156116bd565b600982019182549260ff8416936004851015610357578461031257927f8cd0d8aec737bd6d99f62a939f586991ba44208d41ae046628b76dea445f597294926001928360409660ff191617905560084291015561030c84518094887f649d0e3f95137b0f90d2c2d15f2344307ba5711d27f805ab2865a2a6bd7e21b4600080a2611422565b820152a2005b60405162461bcd60e51b815260048101859052601760248201527f50726f7669646572206973206e6f742070656e64696e670000000000000000006044820152606490fd5b634e487b7160e01b600052602160045260246000fd5b6044906040519063e2517d3f60e01b82523360048301526024820152fd5b3461012a57600036600319011261012a576103a461150f565b6103ac61169f565b600160ff19815416176001557f62e78cea01bee320cd4e420270b5ea74000d11b0c9f74754ebdbfc544b05a2586020604051338152a1005b3461012a57600036600319011261012a5760206040517fa49807205ce4d355092ef5a8a18f56e8913cf4a201fbe287825b095693c217758152f35b3461012a57604036600319011261012a5760043560243561043e61150f565b816000526004602052600b604060002061045a815415156116bd565b600a81016104688154611684565b9055018054918083018093116104a7577f06ac948eb7b5b85e69741f85160d418ca357a17bc363091b2144251dae6e03269260209255604051908152a2005b634e487b7160e01b600052601160045260246000fd5b3461012a57600036600319011261012a57602060ff600154166040519015158152f35b3461012a57602036600319011261012a5760206105036104fe611323565b611709565b6040519015158152f35b3461012a57602036600319011261012a5760048035600090815260209190915260409020805460018201546001600160a01b03169161054e60028201611469565b61055a60038301611469565b9161056760048201611469565b9261057460058301611469565b9361058160068401611469565b94600784015495600885015491600986015460ff1693600a87015495600b88015497600c015460ff16986040519c8d9c8d5260208d01528b6101a06040819201528c016105cd916113e2565b8b810360608d01526105de916113e2565b8a810360808c01526105ef916113e2565b89810360a08b0152610600916113e2565b88810360c08a0152610611916113e2565b9560e0880152610100870152610120860161062b91611422565b61014085015261016084015215156101808301520390f35b3461012a57600036600319011261012a5761065c61150f565b60015460ff81161561069b5760ff19166001557f5db9ee0a495bf2e6ff9c91a7834c1ba4fdd244a5e8aa4e537bd38aeae4b073aa6020604051338152a1005b604051638dfc202b60e01b8152600490fd5b3461012a57604036600319011261012a576106c6611339565b336001600160a01b038216036106e2576101a99060043561160f565b60405163334bd91960e11b8152600490fd5b3461012a57604036600319011261012a576101a9600435610713611339565b9080600052600060205261072e60016040600020015461156b565b611591565b3461012a57602036600319011261012a5760043560005260006020526020600160406000200154604051908152f35b3461012a57602036600319011261012a5761077b611323565b600061018060405161078c8161134f565b8281528260208201526060604082015260608082015260606080820152606060a0820152606060c08201528260e082015282610100820152826101208201528261014082015282610160820152015260018060a01b0316600052600360205260406000205480156109bd576000526004602052604060002060ff600c604051926108158461134f565b8054845260018101546001600160a01b0316602085015261083860028201611469565b604085015261084960038201611469565b606085015261085a60048201611469565b608085015261086b60058201611469565b60a085015261087c60068201611469565b60c0850152600781015460e085015260088101546101008501526108aa836009830154166101208601611693565b600a810154610140850152600b81015461016085015201541615156101808201526040518091602082528051602083015260018060a01b03602082015116604083015261018061096d61090e60408401516101a060608701526101c08601906113e2565b610958610944610930606087015193601f1994858a83030160808b01526113e2565b6080870151848983030160a08a01526113e2565b60a0860151838883030160c08901526113e2565b9060c0850151908683030160e08701526113e2565b9160e0810151610100850152610100810151610120850152610999610120820151610140860190611422565b61014081015161016085015261016081015182850152015115156101a08301520390f35b60405162461bcd60e51b8152602060048201526012602482015271141c9bdd9a59195c881b9bdd08199bdd5b9960721b6044820152606490fd5b3461012a5760c036600319011261012a57610a10611323565b6024356001600160401b03811161012a57610a2f90369060040161138c565b906044356001600160401b03811161012a57610a4f90369060040161138c565b916064356001600160401b03811161012a57610a6f90369060040161138c565b916084356001600160401b03811161012a57610a8f90369060040161138c565b60a4356001600160401b03811161012a57610aae90369060040161138c565b90610ab761169f565b6001600160a01b03831615611299576001600160a01b03831660009081526003602052604090205461125457610aee600254611684565b948560025560405196610b008861134f565b86885260018060a01b03851660208901528560408901526060880152608087015260a086015260c08501524260e0850152600061010085015260006101208501526000610140850152600061016085015260016101808501528260005260046020526040600020845181556001810160018060a01b036020870151166bffffffffffffffffffffffff60a01b82541617905560408501518051906001600160401b038211610efe578190610bb7600285015461142f565b601f8111611201575b50602090601f831160011461118f57600092611184575b50508160011b916000199060031b1c19161760028201555b60608501518051906001600160401b038211610efe578190610c14600385015461142f565b601f8111611131575b50602090601f83116001146110bf576000926110b4575b50508160011b916000199060031b1c19161760038201555b60808501518051906001600160401b038211610efe578190610c71600485015461142f565b601f8111611061575b50602090601f8311600114610fef57600092610fe4575b50508160011b916000199060031b1c19161760048201555b60a08501518051906001600160401b038211610efe578190610cce600585015461142f565b601f8111610f91575b50602090601f8311600114610f1f57600092610f14575b50508160011b916000199060031b1c19161760058201555b60c08501518051906001600160401b038211610efe578190610d2b600685015461142f565b601f8111610eab575b50602090601f8311600114610e3957600092610e2e575b50508160011b916000199060031b1c19161760068201555b60e085015160078201556101008501516008820155600981019061012086015192600484101561035757602096869460ff610180600c610e23967f5bff06ea7416a9e74b3c84f839ae5374b91c213b0f140bfe1bcaf209a1eec64f9884199585878354169116179055610140860151600a820155610160860151600b82015501930151151591835416911617905560018060a01b038116600052600387528360406000205560405191829188835260018060a01b031695888301906113e2565b0390a3604051908152f35b015190508780610d4b565b9250600684016000526020600020906000935b601f1984168510610e90576001945083601f19811610610e77575b505050811b016006820155610d63565b015160001960f88460031b161c19169055878080610e67565b81810151835560209485019460019093019290910190610e4c565b909150600684016000526020600020601f840160051c810160208510610ef7575b90849392915b601f830160051c82018110610ee8575050610d34565b60008155859450600101610ed2565b5080610ecc565b634e487b7160e01b600052604160045260246000fd5b015190508780610cee565b9250600584016000526020600020906000935b601f1984168510610f76576001945083601f19811610610f5d575b505050811b016005820155610d06565b015160001960f88460031b161c19169055878080610f4d565b81810151835560209485019460019093019290910190610f32565b909150600584016000526020600020601f840160051c810160208510610fdd575b90849392915b601f830160051c82018110610fce575050610cd7565b60008155859450600101610fb8565b5080610fb2565b015190508780610c91565b9250600484016000526020600020906000935b601f1984168510611046576001945083601f1981161061102d575b505050811b016004820155610ca9565b015160001960f88460031b161c1916905587808061101d565b81810151835560209485019460019093019290910190611002565b909150600484016000526020600020601f840160051c8101602085106110ad575b90849392915b601f830160051c8201811061109e575050610c7a565b60008155859450600101611088565b5080611082565b015190508780610c34565b9250600384016000526020600020906000935b601f1984168510611116576001945083601f198116106110fd575b505050811b016003820155610c4c565b015160001960f88460031b161c191690558780806110ed565b818101518355602094850194600190930192909101906110d2565b909150600384016000526020600020601f840160051c81016020851061117d575b90849392915b601f830160051c8201811061116e575050610c1d565b60008155859450600101611158565b5080611152565b015190508780610bd7565b9250600284016000526020600020906000935b601f19841685106111e6576001945083601f198116106111cd575b505050811b016002820155610bef565b015160001960f88460031b161c191690558780806111bd565b818101518355602094850194600190930192909101906111a2565b909150600284016000526020600020601f840160051c81016020851061124d575b90849392915b601f830160051c8201811061123e575050610bc0565b60008155859450600101611228565b5080611222565b60405162461bcd60e51b815260206004820152601b60248201527f50726f766964657220616c7265616479207265676973746572656400000000006044820152606490fd5b60405162461bcd60e51b815260206004820152600f60248201526e496e76616c6964206164647265737360881b6044820152606490fd5b3461012a57602036600319011261012a576004359063ffffffff60e01b821680920361012a57602091637965db0b60e01b8114908115611312575b5015158152f35b6301ffc9a760e01b1490508361130b565b600435906001600160a01b038216820361012a57565b602435906001600160a01b038216820361012a57565b6101a081019081106001600160401b03821117610efe57604052565b90601f801991011681019081106001600160401b03821117610efe57604052565b81601f8201121561012a578035906001600160401b038211610efe57604051926113c0601f8401601f19166020018561136b565b8284526020838301011161012a57816000926020809301838601378301015290565b919082519283825260005b84811061140e575050826000602080949584010152601f8019910116010190565b6020818301810151848301820152016113ed565b9060048210156103575752565b90600182811c9216801561145f575b602083101461144957565b634e487b7160e01b600052602260045260246000fd5b91607f169161143e565b906040519182600082549261147d8461142f565b9081845260019485811690816000146114ec57506001146114a9575b50506114a79250038361136b565b565b9093915060005260209081600020936000915b8183106114d45750506114a793508201013880611499565b855488840185015294850194879450918301916114bc565b9150506114a794506020925060ff191682840152151560051b8201013880611499565b3360009081527f7d7ffb7a348e1c6a02869081a26547b49160dd3df72d1d75a570eb9b698292ec60205260409020547fa49807205ce4d355092ef5a8a18f56e8913cf4a201fbe287825b095693c217759060ff161561036d5750565b80600052600060205260406000203360005260205260ff604060002054161561036d5750565b9060009180835282602052604083209160018060a01b03169182845260205260ff6040842054161560001461160a57808352826020526040832082845260205260408320600160ff198254161790557f2f8788117e7eff1d82e926ec794901d17c78024a50270940304540a733656f0d339380a4600190565b505090565b9060009180835282602052604083209160018060a01b03169182845260205260ff60408420541660001461160a5780835282602052604083208284526020526040832060ff1981541690557ff6391f5c32d9c69d2a47ea670b442974b53935d1edc7fd64eb21e047a839171b339380a4600190565b60001981146104a75760010190565b60048210156103575752565b60ff600154166116ab57565b60405163d93c066560e01b8152600490fd5b156116c457565b60405162461bcd60e51b815260206004820152601760248201527f50726f766964657220646f6573206e6f742065786973740000000000000000006044820152606490fd5b6001600160a01b03908116600090815260036020526040812054801561182d578152600460205260408120604051926117418461134f565b81548452600182015416602084015261175c60028201611469565b604084015261176d60038201611469565b606084015261177e60048201611469565b608084015261178f60058201611469565b60a08401526117a060068201611469565b60c0840152600781015460e0840152600881015461010084015261018060ff600c81600985015416936117d861012088019586611693565b600a810154610140880152600b810154610160880152015416930192151583525190600482101561181957506001149081611811575090565b905051151590565b634e487b7160e01b81526021600452602490fd5b5090509056fea2646970667358221220d6c7734b9c033a6b361c0a7c6599c56f74bf2633efb888969120fedd1f3561f864736f6c634300081400332f8788117e7eff1d82e926ec794901d17c78024a50270940304540a733656f0d",
  "linkReferences": {},
  "deployedLinkReferences": {}
}